{"contracts/JobRegistry.sol":{"JobRegistry":{"abi":[{"inputs":[],"stateMutability":"nonpayable","type":"constructor"},{"inputs":[{"internalType":"address","name":"owner","type":"address"}],"name":"OwnableInvalidOwner","type":"error"},{"inputs":[{"internalType":"address","name":"account","type":"address"}],"name":"OwnableUnauthorizedAccount","type":"error"},{"anonymous":false,"inputs":[{"indexed":true,"internalType":"bytes32","name":"jobId","type":"bytes32"},{"indexed":true,"internalType":"address","name":"provider","type":"address"},{"indexed":false,"internalType":"uint256","name":"acceptedAt","type":"uint256"}],"name":"JobAccepted","type":"event"},{"anonymous":false,"inputs":[{"indexed":true,"internalType":"bytes32","name":"jobId","type":"bytes32"},{"indexed":false,"internalType":"uint256","name":"completedAt","type":"uint256"}],"name":"JobCompleted","type":"event"},{"anonymous":false,"inputs":[{"indexed":true,"internalType":"bytes32","name":"jobId","type":"bytes32"},{"indexed":true,"internalType":"address","name":"buyer","type":"address"},{"indexed":true,"internalType":"address","name":"provider","type":"address"},{"indexed":false,"internalType":"uint256","name":"amount","type":"uint256"},{"indexed":false,"internalType":"bool","name":"tracked","type":"bool"},{"indexed":false,"internalType":"uint256","name":"createdAt","type":"uint256"}],"name":"JobCreated","type":"event"},{"anonymous":false,"inputs":[{"indexed":true,"internalType":"bytes32","name":"jobId","type":"bytes32"},{"indexed":false,"internalType":"string","name":"reason","type":"string"}],"name":"JobFailed","type":"event"},{"anonymous":false,"inputs":[{"indexed":true,"internalType":"bytes32","name":"jobId","type":"bytes32"},{"indexed":false,"internalType":"uint256","name":"settledAt","type":"uint256"}],"name":"JobSettled","type":"event"},{"anonymous":false,"inputs":[{"indexed":true,"internalType":"address","name":"previousOwner","type":"address"},{"indexed":true,"internalType":"address","name":"newOwner","type":"address"}],"name":"OwnershipTransferred","type":"event"},{"inputs":[],"name":"MAX_JOB_DURATION","outputs":[{"internalType":"uint256","name":"","type":"uint256"}],"stateMutability":"view","type":"function"},{"inputs":[{"internalType":"bytes32","name":"jobId","type":"bytes32"}],"name":"acceptJob","outputs":[],"stateMutability":"nonpayable","type":"function"},{"inputs":[{"internalType":"address","name":"","type":"address"},{"internalType":"uint256","name":"","type":"uint256"}],"name":"buyerJobs","outputs":[{"internalType":"bytes32","name":"","type":"bytes32"}],"stateMutability":"view","type":"function"},{"inputs":[{"internalType":"bytes32","name":"jobId","type":"bytes32"}],"name":"completeJob","outputs":[],"stateMutability":"nonpayable","type":"function"},{"inputs":[{"internalType":"address","name":"provider","type":"address"},{"internalType":"uint256","name":"amount","type":"uint256"},{"internalType":"bool","name":"tracked","type":"bool"},{"internalType":"string","name":"reasoningHash","type":"string"}],"name":"createJob","outputs":[{"internalType":"bytes32","name":"jobId","type":"bytes32"}],"stateMutability":"nonpayable","type":"function"},{"inputs":[{"internalType":"bytes32","name":"jobId","type":"bytes32"},{"internalType":"string","name":"reason","type":"string"}],"name":"failJob","outputs":[],"stateMutability":"nonpayable","type":"function"},{"inputs":[{"internalType":"address","name":"buyer","type":"address"}],"name":"getBuyerJobs","outputs":[{"internalType":"bytes32[]","name":"","type":"bytes32[]"}],"stateMutability":"view","type":"function"},{"inputs":[{"internalType":"bytes32","name":"jobId","type":"bytes32"}],"name":"getJob","outputs":[{"components":[{"internalType":"bytes32","name":"id","type":"bytes32"},{"internalType":"address","name":"buyer","type":"address"},{"internalType":"address","name":"provider","type":"address"},{"internalType":"uint256","name":"amount","type":"uint256"},{"internalType":"enum JobRegistry.JobStatus","name":"status","type":"uint8"},{"internalType":"bool","name":"tracked","type":"bool"},{"internalType":"uint256","name":"createdAt","type":"uint256"},{"internalType":"uint256","name":"completedAt","type":"uint256"},{"internalType":"string","name":"reasoningHash","type":"string"}],"internalType":"struct JobRegistry.Job","name":"","type":"tuple"}],"stateMutability":"view","type":"function"},{"inputs":[{"internalType":"address","name":"provider","type":"address"}],"name":"getProviderJobs","outputs":[{"internalType":"bytes32[]","name":"","type":"bytes32[]"}],"stateMutability":"view","type":"function"},{"inputs":[{"internalType":"bytes32","name":"jobId","type":"bytes32"}],"name":"isJobFinalized","outputs":[{"internalType":"bool","name":"","type":"bool"}],"stateMutability":"view","type":"function"},{"inputs":[{"internalType":"uint256","name":"","type":"uint256"}],"name":"jobList","outputs":[{"internalType":"bytes32","name":"","type":"bytes32"}],"stateMutability":"view","type":"function"},{"inputs":[{"internalType":"bytes32","name":"","type":"bytes32"}],"name":"jobs","outputs":[{"internalType":"bytes32","name":"id","type":"bytes32"},{"internalType":"address","name":"buyer","type":"address"},{"internalType":"address","name":"provider","type":"address"},{"internalType":"uint256","name":"amount","type":"uint256"},{"internalType":"enum JobRegistry.JobStatus","name":"status","type":"uint8"},{"internalType":"bool","name":"tracked","type":"bool"},{"internalType":"uint256","name":"createdAt","type":"uint256"},{"internalType":"uint256","name":"completedAt","type":"uint256"},{"internalType":"string","name":"reasoningHash","type":"string"}],"stateMutability":"view","type":"function"},{"inputs":[],"name":"owner","outputs":[{"internalType":"address","name":"","type":"address"}],"stateMutability":"view","type":"function"},{"inputs":[{"internalType":"address","name":"","type":"address"},{"internalType":"uint256","name":"","type":"uint256"}],"name":"providerJobs","outputs":[{"internalType":"bytes32","name":"","type":"bytes32"}],"stateMutability":"view","type":"function"},{"inputs":[],"name":"renounceOwnership","outputs":[],"stateMutability":"nonpayable","type":"function"},{"inputs":[{"internalType":"bytes32","name":"jobId","type":"bytes32"}],"name":"settleJob","outputs":[],"stateMutability":"nonpayable","type":"function"},{"inputs":[{"internalType":"address","name":"newOwner","type":"address"}],"name":"transferOwnership","outputs":[],"stateMutability":"nonpayable","type":"function"}],"evm":{"bytecode":{"linkReferences":{},"object":"608060405234801561000f575f80fd5b50338061003557604051631e4fbdf760e01b81525f600482015260240160405180910390fd5b61003e81610044565b50610093565b5f80546001600160a01b038381166001600160a01b0319831681178455604051919092169283917f8be0079c531659141344cd1fd0a4f28419497f9722a3daafe3b4186f6b6457e09190a35050565b611551806100a05f395ff3fe608060405234801561000f575f80fd5b5060043610610106575f3560e01c80638da5cb5b1161009e578063ce02dd7d1161006e578063ce02dd7d14610228578063eafa57e91461023b578063f2640b5e1461024e578063f2fde38b14610261578063f729cf0d14610274575f80fd5b80638da5cb5b146101d5578063927a831b146101ef578063991e013914610202578063b894879014610215575f80fd5b80633a917feb116100d95780633a917feb1461018e578063437505bf146101a3578063715018a6146101c35780637b27b2f5146101cb575f80fd5b80630b470fa91461010a5780630c33c522146101325780632661f6cc1461015357806338ed7cfc14610166575b5f80fd5b61011d61011836600461100f565b610294565b60405190151581526020015b60405180910390f35b61014561014036600461100f565b6102e1565b604051908152602001610129565b610145610161366004611086565b610300565b61017961017436600461100f565b61066b565b6040516101299998979695949392919061116d565b6101a161019c3660046111d6565b61074d565b005b6101b66101b136600461121e565b6108d6565b6040516101299190611237565b6101a161093f565b61014562278d0081565b5f546040516001600160a01b039091168152602001610129565b6101456101fd36600461127a565b610952565b6101a161021036600461100f565b61097d565b6101a161022336600461100f565b610b0f565b61014561023636600461127a565b610c62565b6101a161024936600461100f565b610c7b565b6101b661025c36600461121e565b610d5c565b6101a161026f36600461121e565b610dc3565b61028761028236600461100f565b610e00565b60405161012991906112a2565b5f81815260016020526040812060049081015460ff16908160048111156102bd576102bd6110f6565b14806102da575060038160048111156102d8576102d86110f6565b145b9392505050565b600281815481106102f0575f80fd5b5f91825260209091200154905081565b5f6001600160a01b03861661035c5760405162461bcd60e51b815260206004820152601860248201527f496e76616c69642070726f76696465722061646472657373000000000000000060448201526064015b60405180910390fd5b5f85116103ab5760405162461bcd60e51b815260206004820152601d60248201527f416d6f756e74206d7573742062652067726561746572207468616e20300000006044820152606401610353565b6104023387426040516bffffffffffffffffffffffff19606085811b8216602084015284901b166034820152604881018290525f906068016040516020818303038152906040528051906020012090509392505050565b5f818152600160205260409020549091508190036104575760405162461bcd60e51b81526020600482015260126024820152714a6f6220616c72656164792065786973747360701b6044820152606401610353565b60408051610120810182528281523360208201526001600160a01b0388169181019190915260608101869052608081015f815260200185151581526020014281526020015f815260200184848080601f0160208091040260200160405190810160405280939291908181526020018383808284375f92018290525093909452505083815260016020818152604092839020855181559085015181830180546001600160a01b03199081166001600160a01b039384161790915593860151600283018054909516911617909255606084015160038301556080840151600480840180549495509193919260ff1990921691908490811115610559576105596110f6565b021790555060a082015160048201805461ff001916610100921515830217905560c0830151600583015560e08301516006830155820151600782019061059f90826113dc565b50506002805460018082019092557f405787fa12a823e0f2b7631cc41b3ba8828b3321ca811111fa75cd3aa3bb5ace01839055335f81815260036020908152604080832080548087018255908452828420018790556001600160a01b038c16808452600483528184208054968701815584529282902090940186905583518a81528915159181019190915242818501529251909350909184917f98a9d358bab20f69b57207311a76c56ec063cadbc4f049c441dfcba5f9535af19181900360600190a495945050505050565b600160208190525f9182526040909120805491810154600282015460038301546004840154600585015460068601546007870180546001600160a01b03978816989790961696949560ff80861696610100909604169491906106cc90611358565b80601f01602080910402602001604051908101604052809291908181526020018280546106f890611358565b80156107435780601f1061071a57610100808354040283529160200191610743565b820191905f5260205f20905b81548152906001019060200180831161072657829003601f168201915b5050505050905089565b5f838152600160205260409020548390811461077b5760405162461bcd60e51b81526004016103539061149c565b5f848152600160208190526040909120908101546001600160a01b03163314806107b1575060028101546001600160a01b031633145b6108095760405162461bcd60e51b815260206004820152602360248201527f4f6e6c79206275796572206f722070726f76696465722063616e206661696c206044820152623537b160e91b6064820152608401610353565b5f60048083015460ff1690811115610823576108236110f6565b14806108475750600160048083015460ff1690811115610845576108456110f6565b145b6108845760405162461bcd60e51b815260206004820152600e60248201526d496e76616c69642073746174757360901b6044820152606401610353565b60048101805460ff1916600317905560405185907f0d64e3040027d75c3682a1783051bdcac4bda50d37973a650a2117a153b9f1e6906108c790879087906114c8565b60405180910390a25050505050565b6001600160a01b0381165f9081526003602090815260409182902080548351818402810184019094528084526060939283018282801561093357602002820191905f5260205f20905b81548152602001906001019080831161091f575b50505050509050919050565b610947610f94565b6109505f610fc0565b565b6004602052815f5260405f20818154811061096b575f80fd5b905f5260205f20015f91509150505481565b5f81815260016020526040902054819081146109ab5760405162461bcd60e51b81526004016103539061149c565b5f82815260016020526040902060028101546001600160a01b03163314610a145760405162461bcd60e51b815260206004820152601a60248201527f4f6e6c792070726f76696465722063616e20636f6d706c6574650000000000006044820152606401610353565b600160048083015460ff1690811115610a2f57610a2f6110f6565b14610a6d5760405162461bcd60e51b815260206004820152600e60248201526d4a6f62206e6f742061637469766560901b6044820152606401610353565b62278d00816005015442610a8191906114f6565b1115610abd5760405162461bcd60e51b815260206004820152600b60248201526a129bd888195e1c1a5c995960aa1b6044820152606401610353565b60048101805460ff19166002179055426006820181905560405190815283907f9b5ed714c31dfcb1a9397710b6fc1842f37d94ab5dc0ccb528d9a2c97ea76f2a906020015b60405180910390a2505050565b5f8181526001602052604090205481908114610b3d5760405162461bcd60e51b81526004016103539061149c565b5f82815260016020526040902060028101546001600160a01b03163314610bb05760405162461bcd60e51b815260206004820152602160248201527f4f6e6c792061737369676e65642070726f76696465722063616e2061636365706044820152601d60fa1b6064820152608401610353565b5f60048083015460ff1690811115610bca57610bca6110f6565b14610c175760405162461bcd60e51b815260206004820152601860248201527f4a6f62206e6f7420696e2070656e64696e6720737461746500000000000000006044820152606401610353565b60048101805460ff19166001179055604051428152339084907fd2db40975c939910f59ac7aa8c8f2cd5a28a7cda5aea9fe19dcfe3259db2bdc49060200160405180910390a3505050565b6003602052815f5260405f20818154811061096b575f80fd5b610c83610f94565b5f8181526001602052604090205481908114610cb15760405162461bcd60e51b81526004016103539061149c565b5f828152600160205260409020600260048083015460ff1690811115610cd957610cd96110f6565b14610d1a5760405162461bcd60e51b8152602060048201526011602482015270129bd8881b9bdd0818dbdb5c1b195d1959607a1b6044820152606401610353565b6004818101805460ff1916909117905560405142815283907f274f4d415f3351e4e45f4a0b7f4f3dff2cd72eaa33fdc2b0cdf63ab8a2915cda90602001610b02565b6001600160a01b0381165f9081526004602090815260409182902080548351818402810184019094528084526060939283018282801561093357602002820191905f5260205f209081548152602001906001019080831161091f5750505050509050919050565b610dcb610f94565b6001600160a01b038116610df457604051631e4fbdf760e01b81525f6004820152602401610353565b610dfd81610fc0565b50565b610e4d60408051610120810182525f808252602082018190529181018290526060810182905290608082019081526020015f151581526020015f81526020015f8152602001606081525090565b5f8281526001602081815260409283902083516101208101855281548152928101546001600160a01b039081169284019290925260028101549091169282019290925260038201546060820152600480830154919291608084019160ff90911690811115610ebd57610ebd6110f6565b6004811115610ece57610ece6110f6565b81526004820154610100900460ff16151560208201526005820154604082015260068201546060820152600782018054608090920191610f0d90611358565b80601f0160208091040260200160405190810160405280929190818152602001828054610f3990611358565b8015610f845780601f10610f5b57610100808354040283529160200191610f84565b820191905f5260205f20905b815481529060010190602001808311610f6757829003601f168201915b5050505050815250509050919050565b5f546001600160a01b031633146109505760405163118cdaa760e01b8152336004820152602401610353565b5f80546001600160a01b038381166001600160a01b0319831681178455604051919092169283917f8be0079c531659141344cd1fd0a4f28419497f9722a3daafe3b4186f6b6457e09190a35050565b5f6020828403121561101f575f80fd5b5035919050565b80356001600160a01b038116811461103c575f80fd5b919050565b5f8083601f840112611051575f80fd5b50813567ffffffffffffffff811115611068575f80fd5b60208301915083602082850101111561107f575f80fd5b9250929050565b5f805f805f6080868803121561109a575f80fd5b6110a386611026565b945060208601359350604086013580151581146110be575f80fd5b9250606086013567ffffffffffffffff8111156110d9575f80fd5b6110e588828901611041565b969995985093965092949392505050565b634e487b7160e01b5f52602160045260245ffd5b6005811061112657634e487b7160e01b5f52602160045260245ffd5b9052565b5f81518084525f5b8181101561114e57602081850181015186830182015201611132565b505f602082860101526020601f19601f83011685010191505092915050565b8981526001600160a01b03898116602083015288166040820152606081018790525f61012061119f608084018961110a565b86151560a08401528560c08401528460e0840152806101008401526111c68184018561112a565b9c9b505050505050505050505050565b5f805f604084860312156111e8575f80fd5b83359250602084013567ffffffffffffffff811115611205575f80fd5b61121186828701611041565b9497909650939450505050565b5f6020828403121561122e575f80fd5b6102da82611026565b602080825282518282018190525f9190848201906040850190845b8181101561126e57835183529284019291840191600101611252565b50909695505050505050565b5f806040838503121561128b575f80fd5b61129483611026565b946020939093013593505050565b60208152815160208201525f60208301516112c860408401826001600160a01b03169052565b5060408301516001600160a01b0381166060840152506060830151608083015260808301516112fa60a084018261110a565b5060a083015180151560c08401525060c083015160e083810191909152830151610100808401919091528301516101208084015261133c61014084018261112a565b949350505050565b634e487b7160e01b5f52604160045260245ffd5b600181811c9082168061136c57607f821691505b60208210810361138a57634e487b7160e01b5f52602260045260245ffd5b50919050565b601f8211156113d757805f5260205f20601f840160051c810160208510156113b55750805b601f840160051c820191505b818110156113d4575f81556001016113c1565b50505b505050565b815167ffffffffffffffff8111156113f6576113f6611344565b61140a816114048454611358565b84611390565b602080601f83116001811461143d575f84156114265750858301515b5f19600386901b1c1916600185901b178555611494565b5f85815260208120601f198616915b8281101561146b5788860151825594840194600190910190840161144c565b508582101561148857878501515f19600388901b60f8161c191681555b505060018460011b0185555b505050505050565b602080825260129082015271129bd888191bd95cc81b9bdd08195e1a5cdd60721b604082015260600190565b60208152816020820152818360408301375f818301604090810191909152601f909201601f19160101919050565b8181038181111561151557634e487b7160e01b5f52601160045260245ffd5b9291505056fea26469706673582212207dd3caef9393945dbc7cf4d96ebf90032ceb1b442584ee539340992e1b473f9e64736f6c63430008180033","opcodes":"PUSH1 0x80 PUSH1 0x40 MSTORE CALLVALUE DUP1 ISZERO PUSH2 0xF JUMPI PUSH0 DUP1 REVERT JUMPDEST POP CALLER DUP1 PUSH2 0x35 JUMPI PUSH1 0x40 MLOAD PUSH4 0x1E4FBDF7 PUSH1 0xE0 SHL DUP2 MSTORE PUSH0 PUSH1 0x4 DUP3 ADD MSTORE PUSH1 0x24 ADD PUSH1 0x40 MLOAD DUP1 SWAP2 SUB SWAP1 REVERT JUMPDEST PUSH2 0x3E DUP2 PUSH2 0x44 JUMP JUMPDEST POP PUSH2 0x93 JUMP JUMPDEST PUSH0 DUP1 SLOAD PUSH1 0x1 PUSH1 0x1 PUSH1 0xA0 SHL SUB DUP4 DUP2 AND PUSH1 0x1 PUSH1 0x1 PUSH1 0xA0 SHL SUB NOT DUP4 AND DUP2 OR DUP5 SSTORE PUSH1 0x40 MLOAD SWAP2 SWAP1 SWAP3 AND SWAP3 DUP4 SWAP2 PUSH32 0x8BE0079C531659141344CD1FD0A4F28419497F9722A3DAAFE3B4186F6B6457E0 SWAP2 SWAP1 LOG3 POP POP JUMP JUMPDEST PUSH2 0x1551 DUP1 PUSH2 0xA0 PUSH0 CODECOPY PUSH0 RETURN INVALID PUSH1 0x80 PUSH1 0x40 MSTORE CALLVALUE DUP1 ISZERO PUSH2 0xF JUMPI PUSH0 DUP1 REVERT JUMPDEST POP PUSH1 0x4 CALLDATASIZE LT PUSH2 0x106 JUMPI PUSH0 CALLDATALOAD PUSH1 0xE0 SHR DUP1 PUSH4 0x8DA5CB5B GT PUSH2 0x9E JUMPI DUP1 PUSH4 0xCE02DD7D GT PUSH2 0x6E JUMPI DUP1 PUSH4 0xCE02DD7D EQ PUSH2 0x228 JUMPI DUP1 PUSH4 0xEAFA57E9 EQ PUSH2 0x23B JUMPI DUP1 PUSH4 0xF2640B5E EQ PUSH2 0x24E JUMPI DUP1 PUSH4 0xF2FDE38B EQ PUSH2 0x261 JUMPI DUP1 PUSH4 0xF729CF0D EQ PUSH2 0x274 JUMPI PUSH0 DUP1 REVERT JUMPDEST DUP1 PUSH4 0x8DA5CB5B EQ PUSH2 0x1D5 JUMPI DUP1 PUSH4 0x927A831B EQ PUSH2 0x1EF JUMPI DUP1 PUSH4 0x991E0139 EQ PUSH2 0x202 JUMPI DUP1 PUSH4 0xB8948790 EQ PUSH2 0x215 JUMPI PUSH0 DUP1 REVERT JUMPDEST DUP1 PUSH4 0x3A917FEB GT PUSH2 0xD9 JUMPI DUP1 PUSH4 0x3A917FEB EQ PUSH2 0x18E JUMPI DUP1 PUSH4 0x437505BF EQ PUSH2 0x1A3 JUMPI DUP1 PUSH4 0x715018A6 EQ PUSH2 0x1C3 JUMPI DUP1 PUSH4 0x7B27B2F5 EQ PUSH2 0x1CB JUMPI PUSH0 DUP1 REVERT JUMPDEST DUP1 PUSH4 0xB470FA9 EQ PUSH2 0x10A JUMPI DUP1 PUSH4 0xC33C522 EQ PUSH2 0x132 JUMPI DUP1 PUSH4 0x2661F6CC EQ PUSH2 0x153 JUMPI DUP1 PUSH4 0x38ED7CFC EQ PUSH2 0x166 JUMPI JUMPDEST PUSH0 DUP1 REVERT JUMPDEST PUSH2 0x11D PUSH2 0x118 CALLDATASIZE PUSH1 0x4 PUSH2 0x100F JUMP JUMPDEST PUSH2 0x294 JUMP JUMPDEST PUSH1 0x40 MLOAD SWAP1 ISZERO ISZERO DUP2 MSTORE PUSH1 0x20 ADD JUMPDEST PUSH1 0x40 MLOAD DUP1 SWAP2 SUB SWAP1 RETURN JUMPDEST PUSH2 0x145 PUSH2 0x140 CALLDATASIZE PUSH1 0x4 PUSH2 0x100F JUMP JUMPDEST PUSH2 0x2E1 JUMP JUMPDEST PUSH1 0x40 MLOAD SWAP1 DUP2 MSTORE PUSH1 0x20 ADD PUSH2 0x129 JUMP JUMPDEST PUSH2 0x145 PUSH2 0x161 CALLDATASIZE PUSH1 0x4 PUSH2 0x1086 JUMP JUMPDEST PUSH2 0x300 JUMP JUMPDEST PUSH2 0x179 PUSH2 0x174 CALLDATASIZE PUSH1 0x4 PUSH2 0x100F JUMP JUMPDEST PUSH2 0x66B JUMP JUMPDEST PUSH1 0x40 MLOAD PUSH2 0x129 SWAP10 SWAP9 SWAP8 SWAP7 SWAP6 SWAP5 SWAP4 SWAP3 SWAP2 SWAP1 PUSH2 0x116D JUMP JUMPDEST PUSH2 0x1A1 PUSH2 0x19C CALLDATASIZE PUSH1 0x4 PUSH2 0x11D6 JUMP JUMPDEST PUSH2 0x74D JUMP JUMPDEST STOP JUMPDEST PUSH2 0x1B6 PUSH2 0x1B1 CALLDATASIZE PUSH1 0x4 PUSH2 0x121E JUMP JUMPDEST PUSH2 0x8D6 JUMP JUMPDEST PUSH1 0x40 MLOAD PUSH2 0x129 SWAP2 SWAP1 PUSH2 0x1237 JUMP JUMPDEST PUSH2 0x1A1 PUSH2 0x93F JUMP JUMPDEST PUSH2 0x145 PUSH3 0x278D00 DUP2 JUMP JUMPDEST PUSH0 SLOAD PUSH1 0x40 MLOAD PUSH1 0x1 PUSH1 0x1 PUSH1 0xA0 SHL SUB SWAP1 SWAP2 AND DUP2 MSTORE PUSH1 0x20 ADD PUSH2 0x129 JUMP JUMPDEST PUSH2 0x145 PUSH2 0x1FD CALLDATASIZE PUSH1 0x4 PUSH2 0x127A JUMP JUMPDEST PUSH2 0x952 JUMP JUMPDEST PUSH2 0x1A1 PUSH2 0x210 CALLDATASIZE PUSH1 0x4 PUSH2 0x100F JUMP JUMPDEST PUSH2 0x97D JUMP JUMPDEST PUSH2 0x1A1 PUSH2 0x223 CALLDATASIZE PUSH1 0x4 PUSH2 0x100F JUMP JUMPDEST PUSH2 0xB0F JUMP JUMPDEST PUSH2 0x145 PUSH2 0x236 CALLDATASIZE PUSH1 0x4 PUSH2 0x127A JUMP JUMPDEST PUSH2 0xC62 JUMP JUMPDEST PUSH2 0x1A1 PUSH2 0x249 CALLDATASIZE PUSH1 0x4 PUSH2 0x100F JUMP JUMPDEST PUSH2 0xC7B JUMP JUMPDEST PUSH2 0x1B6 PUSH2 0x25C CALLDATASIZE PUSH1 0x4 PUSH2 0x121E JUMP JUMPDEST PUSH2 0xD5C JUMP JUMPDEST PUSH2 0x1A1 PUSH2 0x26F CALLDATASIZE PUSH1 0x4 PUSH2 0x121E JUMP JUMPDEST PUSH2 0xDC3 JUMP JUMPDEST PUSH2 0x287 PUSH2 0x282 CALLDATASIZE PUSH1 0x4 PUSH2 0x100F JUMP JUMPDEST PUSH2 0xE00 JUMP JUMPDEST PUSH1 0x40 MLOAD PUSH2 0x129 SWAP2 SWAP1 PUSH2 0x12A2 JUMP JUMPDEST PUSH0 DUP2 DUP2 MSTORE PUSH1 0x1 PUSH1 0x20 MSTORE PUSH1 0x40 DUP2 KECCAK256 PUSH1 0x4 SWAP1 DUP2 ADD SLOAD PUSH1 0xFF AND SWAP1 DUP2 PUSH1 0x4 DUP2 GT ISZERO PUSH2 0x2BD JUMPI PUSH2 0x2BD PUSH2 0x10F6 JUMP JUMPDEST EQ DUP1 PUSH2 0x2DA JUMPI POP PUSH1 0x3 DUP2 PUSH1 0x4 DUP2 GT ISZERO PUSH2 0x2D8 JUMPI PUSH2 0x2D8 PUSH2 0x10F6 JUMP JUMPDEST EQ JUMPDEST SWAP4 SWAP3 POP POP POP JUMP JUMPDEST PUSH1 0x2 DUP2 DUP2 SLOAD DUP2 LT PUSH2 0x2F0 JUMPI PUSH0 DUP1 REVERT JUMPDEST PUSH0 SWAP2 DUP3 MSTORE PUSH1 0x20 SWAP1 SWAP2 KECCAK256 ADD SLOAD SWAP1 POP DUP2 JUMP JUMPDEST PUSH0 PUSH1 0x1 PUSH1 0x1 PUSH1 0xA0 SHL SUB DUP7 AND PUSH2 0x35C JUMPI PUSH1 0x40 MLOAD PUSH3 0x461BCD PUSH1 0xE5 SHL DUP2 MSTORE PUSH1 0x20 PUSH1 0x4 DUP3 ADD MSTORE PUSH1 0x18 PUSH1 0x24 DUP3 ADD MSTORE PUSH32 0x496E76616C69642070726F766964657220616464726573730000000000000000 PUSH1 0x44 DUP3 ADD MSTORE PUSH1 0x64 ADD JUMPDEST PUSH1 0x40 MLOAD DUP1 SWAP2 SUB SWAP1 REVERT JUMPDEST PUSH0 DUP6 GT PUSH2 0x3AB JUMPI PUSH1 0x40 MLOAD PUSH3 0x461BCD PUSH1 0xE5 SHL DUP2 MSTORE PUSH1 0x20 PUSH1 0x4 DUP3 ADD MSTORE PUSH1 0x1D PUSH1 0x24 DUP3 ADD MSTORE PUSH32 0x416D6F756E74206D7573742062652067726561746572207468616E2030000000 PUSH1 0x44 DUP3 ADD MSTORE PUSH1 0x64 ADD PUSH2 0x353 JUMP JUMPDEST PUSH2 0x402 CALLER DUP8 TIMESTAMP PUSH1 0x40 MLOAD PUSH12 0xFFFFFFFFFFFFFFFFFFFFFFFF NOT PUSH1 0x60 DUP6 DUP2 SHL DUP3 AND PUSH1 0x20 DUP5 ADD MSTORE DUP5 SWAP1 SHL AND PUSH1 0x34 DUP3 ADD MSTORE PUSH1 0x48 DUP2 ADD DUP3 SWAP1 MSTORE PUSH0 SWAP1 PUSH1 0x68 ADD PUSH1 0x40 MLOAD PUSH1 0x20 DUP2 DUP4 SUB SUB DUP2 MSTORE SWAP1 PUSH1 0x40 MSTORE DUP1 MLOAD SWAP1 PUSH1 0x20 ADD KECCAK256 SWAP1 POP SWAP4 SWAP3 POP POP POP JUMP JUMPDEST PUSH0 DUP2 DUP2 MSTORE PUSH1 0x1 PUSH1 0x20 MSTORE PUSH1 0x40 SWAP1 KECCAK256 SLOAD SWAP1 SWAP2 POP DUP2 SWAP1 SUB PUSH2 0x457 JUMPI PUSH1 0x40 MLOAD PUSH3 0x461BCD PUSH1 0xE5 SHL DUP2 MSTORE PUSH1 0x20 PUSH1 0x4 DUP3 ADD MSTORE PUSH1 0x12 PUSH1 0x24 DUP3 ADD MSTORE PUSH18 0x4A6F6220616C726561647920657869737473 PUSH1 0x70 SHL PUSH1 0x44 DUP3 ADD MSTORE PUSH1 0x64 ADD PUSH2 0x353 JUMP JUMPDEST PUSH1 0x40 DUP1 MLOAD PUSH2 0x120 DUP2 ADD DUP3 MSTORE DUP3 DUP2 MSTORE CALLER PUSH1 0x20 DUP3 ADD MSTORE PUSH1 0x1 PUSH1 0x1 PUSH1 0xA0 SHL SUB DUP9 AND SWAP2 DUP2 ADD SWAP2 SWAP1 SWAP2 MSTORE PUSH1 0x60 DUP2 ADD DUP7 SWAP1 MSTORE PUSH1 0x80 DUP2 ADD PUSH0 DUP2 MSTORE PUSH1 0x20 ADD DUP6 ISZERO ISZERO DUP2 MSTORE PUSH1 0x20 ADD TIMESTAMP DUP2 MSTORE PUSH1 0x20 ADD PUSH0 DUP2 MSTORE PUSH1 0x20 ADD DUP5 DUP5 DUP1 DUP1 PUSH1 0x1F ADD PUSH1 0x20 DUP1 SWAP2 DIV MUL PUSH1 0x20 ADD PUSH1 0x40 MLOAD SWAP1 DUP2 ADD PUSH1 0x40 MSTORE DUP1 SWAP4 SWAP3 SWAP2 SWAP1 DUP2 DUP2 MSTORE PUSH1 0x20 ADD DUP4 DUP4 DUP1 DUP3 DUP5 CALLDATACOPY PUSH0 SWAP3 ADD DUP3 SWAP1 MSTORE POP SWAP4 SWAP1 SWAP5 MSTORE POP POP DUP4 DUP2 MSTORE PUSH1 0x1 PUSH1 0x20 DUP2 DUP2 MSTORE PUSH1 0x40 SWAP3 DUP4 SWAP1 KECCAK256 DUP6 MLOAD DUP2 SSTORE SWAP1 DUP6 ADD MLOAD DUP2 DUP4 ADD DUP1 SLOAD PUSH1 0x1 PUSH1 0x1 PUSH1 0xA0 SHL SUB NOT SWAP1 DUP2 AND PUSH1 0x1 PUSH1 0x1 PUSH1 0xA0 SHL SUB SWAP4 DUP5 AND OR SWAP1 SWAP2 SSTORE SWAP4 DUP7 ADD MLOAD PUSH1 0x2 DUP4 ADD DUP1 SLOAD SWAP1 SWAP6 AND SWAP2 AND OR SWAP1 SWAP3 SSTORE PUSH1 0x60 DUP5 ADD MLOAD PUSH1 0x3 DUP4 ADD SSTORE PUSH1 0x80 DUP5 ADD MLOAD PUSH1 0x4 DUP1 DUP5 ADD DUP1 SLOAD SWAP5 SWAP6 POP SWAP2 SWAP4 SWAP2 SWAP3 PUSH1 0xFF NOT SWAP1 SWAP3 AND SWAP2 SWAP1 DUP5 SWAP1 DUP2 GT ISZERO PUSH2 0x559 JUMPI PUSH2 0x559 PUSH2 0x10F6 JUMP JUMPDEST MUL OR SWAP1 SSTORE POP PUSH1 0xA0 DUP3 ADD MLOAD PUSH1 0x4 DUP3 ADD DUP1 SLOAD PUSH2 0xFF00 NOT AND PUSH2 0x100 SWAP3 ISZERO ISZERO DUP4 MUL OR SWAP1 SSTORE PUSH1 0xC0 DUP4 ADD MLOAD PUSH1 0x5 DUP4 ADD SSTORE PUSH1 0xE0 DUP4 ADD MLOAD PUSH1 0x6 DUP4 ADD SSTORE DUP3 ADD MLOAD PUSH1 0x7 DUP3 ADD SWAP1 PUSH2 0x59F SWAP1 DUP3 PUSH2 0x13DC JUMP JUMPDEST POP POP PUSH1 0x2 DUP1 SLOAD PUSH1 0x1 DUP1 DUP3 ADD SWAP1 SWAP3 SSTORE PUSH32 0x405787FA12A823E0F2B7631CC41B3BA8828B3321CA811111FA75CD3AA3BB5ACE ADD DUP4 SWAP1 SSTORE CALLER PUSH0 DUP2 DUP2 MSTORE PUSH1 0x3 PUSH1 0x20 SWAP1 DUP2 MSTORE PUSH1 0x40 DUP1 DUP4 KECCAK256 DUP1 SLOAD DUP1 DUP8 ADD DUP3 SSTORE SWAP1 DUP5 MSTORE DUP3 DUP5 KECCAK256 ADD DUP8 SWAP1 SSTORE PUSH1 0x1 PUSH1 0x1 PUSH1 0xA0 SHL SUB DUP13 AND DUP1 DUP5 MSTORE PUSH1 0x4 DUP4 MSTORE DUP2 DUP5 KECCAK256 DUP1 SLOAD SWAP7 DUP8 ADD DUP2 SSTORE DUP5 MSTORE SWAP3 DUP3 SWAP1 KECCAK256 SWAP1 SWAP5 ADD DUP7 SWAP1 SSTORE DUP4 MLOAD DUP11 DUP2 MSTORE DUP10 ISZERO ISZERO SWAP2 DUP2 ADD SWAP2 SWAP1 SWAP2 MSTORE TIMESTAMP DUP2 DUP6 ADD MSTORE SWAP3 MLOAD SWAP1 SWAP4 POP SWAP1 SWAP2 DUP5 SWAP2 PUSH32 0x98A9D358BAB20F69B57207311A76C56EC063CADBC4F049C441DFCBA5F9535AF1 SWAP2 DUP2 SWAP1 SUB PUSH1 0x60 ADD SWAP1 LOG4 SWAP6 SWAP5 POP POP POP POP POP JUMP JUMPDEST PUSH1 0x1 PUSH1 0x20 DUP2 SWAP1 MSTORE PUSH0 SWAP2 DUP3 MSTORE PUSH1 0x40 SWAP1 SWAP2 KECCAK256 DUP1 SLOAD SWAP2 DUP2 ADD SLOAD PUSH1 0x2 DUP3 ADD SLOAD PUSH1 0x3 DUP4 ADD SLOAD PUSH1 0x4 DUP5 ADD SLOAD PUSH1 0x5 DUP6 ADD SLOAD PUSH1 0x6 DUP7 ADD SLOAD PUSH1 0x7 DUP8 ADD DUP1 SLOAD PUSH1 0x1 PUSH1 0x1 PUSH1 0xA0 SHL SUB SWAP8 DUP9 AND SWAP9 SWAP8 SWAP1 SWAP7 AND SWAP7 SWAP5 SWAP6 PUSH1 0xFF DUP1 DUP7 AND SWAP7 PUSH2 0x100 SWAP1 SWAP7 DIV AND SWAP5 SWAP2 SWAP1 PUSH2 0x6CC SWAP1 PUSH2 0x1358 JUMP JUMPDEST DUP1 PUSH1 0x1F ADD PUSH1 0x20 DUP1 SWAP2 DIV MUL PUSH1 0x20 ADD PUSH1 0x40 MLOAD SWAP1 DUP2 ADD PUSH1 0x40 MSTORE DUP1 SWAP3 SWAP2 SWAP1 DUP2 DUP2 MSTORE PUSH1 0x20 ADD DUP3 DUP1 SLOAD PUSH2 0x6F8 SWAP1 PUSH2 0x1358 JUMP JUMPDEST DUP1 ISZERO PUSH2 0x743 JUMPI DUP1 PUSH1 0x1F LT PUSH2 0x71A JUMPI PUSH2 0x100 DUP1 DUP4 SLOAD DIV MUL DUP4 MSTORE SWAP2 PUSH1 0x20 ADD SWAP2 PUSH2 0x743 JUMP JUMPDEST DUP3 ADD SWAP2 SWAP1 PUSH0 MSTORE PUSH1 0x20 PUSH0 KECCAK256 SWAP1 JUMPDEST DUP2 SLOAD DUP2 MSTORE SWAP1 PUSH1 0x1 ADD SWAP1 PUSH1 0x20 ADD DUP1 DUP4 GT PUSH2 0x726 JUMPI DUP3 SWAP1 SUB PUSH1 0x1F AND DUP3 ADD SWAP2 JUMPDEST POP POP POP POP POP SWAP1 POP DUP10 JUMP JUMPDEST PUSH0 DUP4 DUP2 MSTORE PUSH1 0x1 PUSH1 0x20 MSTORE PUSH1 0x40 SWAP1 KECCAK256 SLOAD DUP4 SWAP1 DUP2 EQ PUSH2 0x77B JUMPI PUSH1 0x40 MLOAD PUSH3 0x461BCD PUSH1 0xE5 SHL DUP2 MSTORE PUSH1 0x4 ADD PUSH2 0x353 SWAP1 PUSH2 0x149C JUMP JUMPDEST PUSH0 DUP5 DUP2 MSTORE PUSH1 0x1 PUSH1 0x20 DUP2 SWAP1 MSTORE PUSH1 0x40 SWAP1 SWAP2 KECCAK256 SWAP1 DUP2 ADD SLOAD PUSH1 0x1 PUSH1 0x1 PUSH1 0xA0 SHL SUB AND CALLER EQ DUP1 PUSH2 0x7B1 JUMPI POP PUSH1 0x2 DUP2 ADD SLOAD PUSH1 0x1 PUSH1 0x1 PUSH1 0xA0 SHL SUB AND CALLER EQ JUMPDEST PUSH2 0x809 JUMPI PUSH1 0x40 MLOAD PUSH3 0x461BCD PUSH1 0xE5 SHL DUP2 MSTORE PUSH1 0x20 PUSH1 0x4 DUP3 ADD MSTORE PUSH1 0x23 PUSH1 0x24 DUP3 ADD MSTORE PUSH32 0x4F6E6C79206275796572206F722070726F76696465722063616E206661696C20 PUSH1 0x44 DUP3 ADD MSTORE PUSH3 0x3537B1 PUSH1 0xE9 SHL PUSH1 0x64 DUP3 ADD MSTORE PUSH1 0x84 ADD PUSH2 0x353 JUMP JUMPDEST PUSH0 PUSH1 0x4 DUP1 DUP4 ADD SLOAD PUSH1 0xFF AND SWAP1 DUP2 GT ISZERO PUSH2 0x823 JUMPI PUSH2 0x823 PUSH2 0x10F6 JUMP JUMPDEST EQ DUP1 PUSH2 0x847 JUMPI POP PUSH1 0x1 PUSH1 0x4 DUP1 DUP4 ADD SLOAD PUSH1 0xFF AND SWAP1 DUP2 GT ISZERO PUSH2 0x845 JUMPI PUSH2 0x845 PUSH2 0x10F6 JUMP JUMPDEST EQ JUMPDEST PUSH2 0x884 JUMPI PUSH1 0x40 MLOAD PUSH3 0x461BCD PUSH1 0xE5 SHL DUP2 MSTORE PUSH1 0x20 PUSH1 0x4 DUP3 ADD MSTORE PUSH1 0xE PUSH1 0x24 DUP3 ADD MSTORE PUSH14 0x496E76616C696420737461747573 PUSH1 0x90 SHL PUSH1 0x44 DUP3 ADD MSTORE PUSH1 0x64 ADD PUSH2 0x353 JUMP JUMPDEST PUSH1 0x4 DUP2 ADD DUP1 SLOAD PUSH1 0xFF NOT AND PUSH1 0x3 OR SWAP1 SSTORE PUSH1 0x40 MLOAD DUP6 SWAP1 PUSH32 0xD64E3040027D75C3682A1783051BDCAC4BDA50D37973A650A2117A153B9F1E6 SWAP1 PUSH2 0x8C7 SWAP1 DUP8 SWAP1 DUP8 SWAP1 PUSH2 0x14C8 JUMP JUMPDEST PUSH1 0x40 MLOAD DUP1 SWAP2 SUB SWAP1 LOG2 POP POP POP POP POP JUMP JUMPDEST PUSH1 0x1 PUSH1 0x1 PUSH1 0xA0 SHL SUB DUP2 AND PUSH0 SWAP1 DUP2 MSTORE PUSH1 0x3 PUSH1 0x20 SWAP1 DUP2 MSTORE PUSH1 0x40 SWAP2 DUP3 SWAP1 KECCAK256 DUP1 SLOAD DUP4 MLOAD DUP2 DUP5 MUL DUP2 ADD DUP5 ADD SWAP1 SWAP5 MSTORE DUP1 DUP5 MSTORE PUSH1 0x60 SWAP4 SWAP3 DUP4 ADD DUP3 DUP3 DUP1 ISZERO PUSH2 0x933 JUMPI PUSH1 0x20 MUL DUP3 ADD SWAP2 SWAP1 PUSH0 MSTORE PUSH1 0x20 PUSH0 KECCAK256 SWAP1 JUMPDEST DUP2 SLOAD DUP2 MSTORE PUSH1 0x20 ADD SWAP1 PUSH1 0x1 ADD SWAP1 DUP1 DUP4 GT PUSH2 0x91F JUMPI JUMPDEST POP POP POP POP POP SWAP1 POP SWAP2 SWAP1 POP JUMP JUMPDEST PUSH2 0x947 PUSH2 0xF94 JUMP JUMPDEST PUSH2 0x950 PUSH0 PUSH2 0xFC0 JUMP JUMPDEST JUMP JUMPDEST PUSH1 0x4 PUSH1 0x20 MSTORE DUP2 PUSH0 MSTORE PUSH1 0x40 PUSH0 KECCAK256 DUP2 DUP2 SLOAD DUP2 LT PUSH2 0x96B JUMPI PUSH0 DUP1 REVERT JUMPDEST SWAP1 PUSH0 MSTORE PUSH1 0x20 PUSH0 KECCAK256 ADD PUSH0 SWAP2 POP SWAP2 POP POP SLOAD DUP2 JUMP JUMPDEST PUSH0 DUP2 DUP2 MSTORE PUSH1 0x1 PUSH1 0x20 MSTORE PUSH1 0x40 SWAP1 KECCAK256 SLOAD DUP2 SWAP1 DUP2 EQ PUSH2 0x9AB JUMPI PUSH1 0x40 MLOAD PUSH3 0x461BCD PUSH1 0xE5 SHL DUP2 MSTORE PUSH1 0x4 ADD PUSH2 0x353 SWAP1 PUSH2 0x149C JUMP JUMPDEST PUSH0 DUP3 DUP2 MSTORE PUSH1 0x1 PUSH1 0x20 MSTORE PUSH1 0x40 SWAP1 KECCAK256 PUSH1 0x2 DUP2 ADD SLOAD PUSH1 0x1 PUSH1 0x1 PUSH1 0xA0 SHL SUB AND CALLER EQ PUSH2 0xA14 JUMPI PUSH1 0x40 MLOAD PUSH3 0x461BCD PUSH1 0xE5 SHL DUP2 MSTORE PUSH1 0x20 PUSH1 0x4 DUP3 ADD MSTORE PUSH1 0x1A PUSH1 0x24 DUP3 ADD MSTORE PUSH32 0x4F6E6C792070726F76696465722063616E20636F6D706C657465000000000000 PUSH1 0x44 DUP3 ADD MSTORE PUSH1 0x64 ADD PUSH2 0x353 JUMP JUMPDEST PUSH1 0x1 PUSH1 0x4 DUP1 DUP4 ADD SLOAD PUSH1 0xFF AND SWAP1 DUP2 GT ISZERO PUSH2 0xA2F JUMPI PUSH2 0xA2F PUSH2 0x10F6 JUMP JUMPDEST EQ PUSH2 0xA6D JUMPI PUSH1 0x40 MLOAD PUSH3 0x461BCD PUSH1 0xE5 SHL DUP2 MSTORE PUSH1 0x20 PUSH1 0x4 DUP3 ADD MSTORE PUSH1 0xE PUSH1 0x24 DUP3 ADD MSTORE PUSH14 0x4A6F62206E6F7420616374697665 PUSH1 0x90 SHL PUSH1 0x44 DUP3 ADD MSTORE PUSH1 0x64 ADD PUSH2 0x353 JUMP JUMPDEST PUSH3 0x278D00 DUP2 PUSH1 0x5 ADD SLOAD TIMESTAMP PUSH2 0xA81 SWAP2 SWAP1 PUSH2 0x14F6 JUMP JUMPDEST GT ISZERO PUSH2 0xABD JUMPI PUSH1 0x40 MLOAD PUSH3 0x461BCD PUSH1 0xE5 SHL DUP2 MSTORE PUSH1 0x20 PUSH1 0x4 DUP3 ADD MSTORE PUSH1 0xB PUSH1 0x24 DUP3 ADD MSTORE PUSH11 0x129BD888195E1C1A5C9959 PUSH1 0xAA SHL PUSH1 0x44 DUP3 ADD MSTORE PUSH1 0x64 ADD PUSH2 0x353 JUMP JUMPDEST PUSH1 0x4 DUP2 ADD DUP1 SLOAD PUSH1 0xFF NOT AND PUSH1 0x2 OR SWAP1 SSTORE TIMESTAMP PUSH1 0x6 DUP3 ADD DUP2 SWAP1 SSTORE PUSH1 0x40 MLOAD SWAP1 DUP2 MSTORE DUP4 SWAP1 PUSH32 0x9B5ED714C31DFCB1A9397710B6FC1842F37D94AB5DC0CCB528D9A2C97EA76F2A SWAP1 PUSH1 0x20 ADD JUMPDEST PUSH1 0x40 MLOAD DUP1 SWAP2 SUB SWAP1 LOG2 POP POP POP JUMP JUMPDEST PUSH0 DUP2 DUP2 MSTORE PUSH1 0x1 PUSH1 0x20 MSTORE PUSH1 0x40 SWAP1 KECCAK256 SLOAD DUP2 SWAP1 DUP2 EQ PUSH2 0xB3D JUMPI PUSH1 0x40 MLOAD PUSH3 0x461BCD PUSH1 0xE5 SHL DUP2 MSTORE PUSH1 0x4 ADD PUSH2 0x353 SWAP1 PUSH2 0x149C JUMP JUMPDEST PUSH0 DUP3 DUP2 MSTORE PUSH1 0x1 PUSH1 0x20 MSTORE PUSH1 0x40 SWAP1 KECCAK256 PUSH1 0x2 DUP2 ADD SLOAD PUSH1 0x1 PUSH1 0x1 PUSH1 0xA0 SHL SUB AND CALLER EQ PUSH2 0xBB0 JUMPI PUSH1 0x40 MLOAD PUSH3 0x461BCD PUSH1 0xE5 SHL DUP2 MSTORE PUSH1 0x20 PUSH1 0x4 DUP3 ADD MSTORE PUSH1 0x21 PUSH1 0x24 DUP3 ADD MSTORE PUSH32 0x4F6E6C792061737369676E65642070726F76696465722063616E206163636570 PUSH1 0x44 DUP3 ADD MSTORE PUSH1 0x1D PUSH1 0xFA SHL PUSH1 0x64 DUP3 ADD MSTORE PUSH1 0x84 ADD PUSH2 0x353 JUMP JUMPDEST PUSH0 PUSH1 0x4 DUP1 DUP4 ADD SLOAD PUSH1 0xFF AND SWAP1 DUP2 GT ISZERO PUSH2 0xBCA JUMPI PUSH2 0xBCA PUSH2 0x10F6 JUMP JUMPDEST EQ PUSH2 0xC17 JUMPI PUSH1 0x40 MLOAD PUSH3 0x461BCD PUSH1 0xE5 SHL DUP2 MSTORE PUSH1 0x20 PUSH1 0x4 DUP3 ADD MSTORE PUSH1 0x18 PUSH1 0x24 DUP3 ADD MSTORE PUSH32 0x4A6F62206E6F7420696E2070656E64696E672073746174650000000000000000 PUSH1 0x44 DUP3 ADD MSTORE PUSH1 0x64 ADD PUSH2 0x353 JUMP JUMPDEST PUSH1 0x4 DUP2 ADD DUP1 SLOAD PUSH1 0xFF NOT AND PUSH1 0x1 OR SWAP1 SSTORE PUSH1 0x40 MLOAD TIMESTAMP DUP2 MSTORE CALLER SWAP1 DUP5 SWAP1 PUSH32 0xD2DB40975C939910F59AC7AA8C8F2CD5A28A7CDA5AEA9FE19DCFE3259DB2BDC4 SWAP1 PUSH1 0x20 ADD PUSH1 0x40 MLOAD DUP1 SWAP2 SUB SWAP1 LOG3 POP POP POP JUMP JUMPDEST PUSH1 0x3 PUSH1 0x20 MSTORE DUP2 PUSH0 MSTORE PUSH1 0x40 PUSH0 KECCAK256 DUP2 DUP2 SLOAD DUP2 LT PUSH2 0x96B JUMPI PUSH0 DUP1 REVERT JUMPDEST PUSH2 0xC83 PUSH2 0xF94 JUMP JUMPDEST PUSH0 DUP2 DUP2 MSTORE PUSH1 0x1 PUSH1 0x20 MSTORE PUSH1 0x40 SWAP1 KECCAK256 SLOAD DUP2 SWAP1 DUP2 EQ PUSH2 0xCB1 JUMPI PUSH1 0x40 MLOAD PUSH3 0x461BCD PUSH1 0xE5 SHL DUP2 MSTORE PUSH1 0x4 ADD PUSH2 0x353 SWAP1 PUSH2 0x149C JUMP JUMPDEST PUSH0 DUP3 DUP2 MSTORE PUSH1 0x1 PUSH1 0x20 MSTORE PUSH1 0x40 SWAP1 KECCAK256 PUSH1 0x2 PUSH1 0x4 DUP1 DUP4 ADD SLOAD PUSH1 0xFF AND SWAP1 DUP2 GT ISZERO PUSH2 0xCD9 JUMPI PUSH2 0xCD9 PUSH2 0x10F6 JUMP JUMPDEST EQ PUSH2 0xD1A JUMPI PUSH1 0x40 MLOAD PUSH3 0x461BCD PUSH1 0xE5 SHL DUP2 MSTORE PUSH1 0x20 PUSH1 0x4 DUP3 ADD MSTORE PUSH1 0x11 PUSH1 0x24 DUP3 ADD MSTORE PUSH17 0x129BD8881B9BDD0818DBDB5C1B195D1959 PUSH1 0x7A SHL PUSH1 0x44 DUP3 ADD MSTORE PUSH1 0x64 ADD PUSH2 0x353 JUMP JUMPDEST PUSH1 0x4 DUP2 DUP2 ADD DUP1 SLOAD PUSH1 0xFF NOT AND SWAP1 SWAP2 OR SWAP1 SSTORE PUSH1 0x40 MLOAD TIMESTAMP DUP2 MSTORE DUP4 SWAP1 PUSH32 0x274F4D415F3351E4E45F4A0B7F4F3DFF2CD72EAA33FDC2B0CDF63AB8A2915CDA SWAP1 PUSH1 0x20 ADD PUSH2 0xB02 JUMP JUMPDEST PUSH1 0x1 PUSH1 0x1 PUSH1 0xA0 SHL SUB DUP2 AND PUSH0 SWAP1 DUP2 MSTORE PUSH1 0x4 PUSH1 0x20 SWAP1 DUP2 MSTORE PUSH1 0x40 SWAP2 DUP3 SWAP1 KECCAK256 DUP1 SLOAD DUP4 MLOAD DUP2 DUP5 MUL DUP2 ADD DUP5 ADD SWAP1 SWAP5 MSTORE DUP1 DUP5 MSTORE PUSH1 0x60 SWAP4 SWAP3 DUP4 ADD DUP3 DUP3 DUP1 ISZERO PUSH2 0x933 JUMPI PUSH1 0x20 MUL DUP3 ADD SWAP2 SWAP1 PUSH0 MSTORE PUSH1 0x20 PUSH0 KECCAK256 SWAP1 DUP2 SLOAD DUP2 MSTORE PUSH1 0x20 ADD SWAP1 PUSH1 0x1 ADD SWAP1 DUP1 DUP4 GT PUSH2 0x91F JUMPI POP POP POP POP POP SWAP1 POP SWAP2 SWAP1 POP JUMP JUMPDEST PUSH2 0xDCB PUSH2 0xF94 JUMP JUMPDEST PUSH1 0x1 PUSH1 0x1 PUSH1 0xA0 SHL SUB DUP2 AND PUSH2 0xDF4 JUMPI PUSH1 0x40 MLOAD PUSH4 0x1E4FBDF7 PUSH1 0xE0 SHL DUP2 MSTORE PUSH0 PUSH1 0x4 DUP3 ADD MSTORE PUSH1 0x24 ADD PUSH2 0x353 JUMP JUMPDEST PUSH2 0xDFD DUP2 PUSH2 0xFC0 JUMP JUMPDEST POP JUMP JUMPDEST PUSH2 0xE4D PUSH1 0x40 DUP1 MLOAD PUSH2 0x120 DUP2 ADD DUP3 MSTORE PUSH0 DUP1 DUP3 MSTORE PUSH1 0x20 DUP3 ADD DUP2 SWAP1 MSTORE SWAP2 DUP2 ADD DUP3 SWAP1 MSTORE PUSH1 0x60 DUP2 ADD DUP3 SWAP1 MSTORE SWAP1 PUSH1 0x80 DUP3 ADD SWAP1 DUP2 MSTORE PUSH1 0x20 ADD PUSH0 ISZERO ISZERO DUP2 MSTORE PUSH1 0x20 ADD PUSH0 DUP2 MSTORE PUSH1 0x20 ADD PUSH0 DUP2 MSTORE PUSH1 0x20 ADD PUSH1 0x60 DUP2 MSTORE POP SWAP1 JUMP JUMPDEST PUSH0 DUP3 DUP2 MSTORE PUSH1 0x1 PUSH1 0x20 DUP2 DUP2 MSTORE PUSH1 0x40 SWAP3 DUP4 SWAP1 KECCAK256 DUP4 MLOAD PUSH2 0x120 DUP2 ADD DUP6 MSTORE DUP2 SLOAD DUP2 MSTORE SWAP3 DUP2 ADD SLOAD PUSH1 0x1 PUSH1 0x1 PUSH1 0xA0 SHL SUB SWAP1 DUP2 AND SWAP3 DUP5 ADD SWAP3 SWAP1 SWAP3 MSTORE PUSH1 0x2 DUP2 ADD SLOAD SWAP1 SWAP2 AND SWAP3 DUP3 ADD SWAP3 SWAP1 SWAP3 MSTORE PUSH1 0x3 DUP3 ADD SLOAD PUSH1 0x60 DUP3 ADD MSTORE PUSH1 0x4 DUP1 DUP4 ADD SLOAD SWAP2 SWAP3 SWAP2 PUSH1 0x80 DUP5 ADD SWAP2 PUSH1 0xFF SWAP1 SWAP2 AND SWAP1 DUP2 GT ISZERO PUSH2 0xEBD JUMPI PUSH2 0xEBD PUSH2 0x10F6 JUMP JUMPDEST PUSH1 0x4 DUP2 GT ISZERO PUSH2 0xECE JUMPI PUSH2 0xECE PUSH2 0x10F6 JUMP JUMPDEST DUP2 MSTORE PUSH1 0x4 DUP3 ADD SLOAD PUSH2 0x100 SWAP1 DIV PUSH1 0xFF AND ISZERO ISZERO PUSH1 0x20 DUP3 ADD MSTORE PUSH1 0x5 DUP3 ADD SLOAD PUSH1 0x40 DUP3 ADD MSTORE PUSH1 0x6 DUP3 ADD SLOAD PUSH1 0x60 DUP3 ADD MSTORE PUSH1 0x7 DUP3 ADD DUP1 SLOAD PUSH1 0x80 SWAP1 SWAP3 ADD SWAP2 PUSH2 0xF0D SWAP1 PUSH2 0x1358 JUMP JUMPDEST DUP1 PUSH1 0x1F ADD PUSH1 0x20 DUP1 SWAP2 DIV MUL PUSH1 0x20 ADD PUSH1 0x40 MLOAD SWAP1 DUP2 ADD PUSH1 0x40 MSTORE DUP1 SWAP3 SWAP2 SWAP1 DUP2 DUP2 MSTORE PUSH1 0x20 ADD DUP3 DUP1 SLOAD PUSH2 0xF39 SWAP1 PUSH2 0x1358 JUMP JUMPDEST DUP1 ISZERO PUSH2 0xF84 JUMPI DUP1 PUSH1 0x1F LT PUSH2 0xF5B JUMPI PUSH2 0x100 DUP1 DUP4 SLOAD DIV MUL DUP4 MSTORE SWAP2 PUSH1 0x20 ADD SWAP2 PUSH2 0xF84 JUMP JUMPDEST DUP3 ADD SWAP2 SWAP1 PUSH0 MSTORE PUSH1 0x20 PUSH0 KECCAK256 SWAP1 JUMPDEST DUP2 SLOAD DUP2 MSTORE SWAP1 PUSH1 0x1 ADD SWAP1 PUSH1 0x20 ADD DUP1 DUP4 GT PUSH2 0xF67 JUMPI DUP3 SWAP1 SUB PUSH1 0x1F AND DUP3 ADD SWAP2 JUMPDEST POP POP POP POP POP DUP2 MSTORE POP POP SWAP1 POP SWAP2 SWAP1 POP JUMP JUMPDEST PUSH0 SLOAD PUSH1 0x1 PUSH1 0x1 PUSH1 0xA0 SHL SUB AND CALLER EQ PUSH2 0x950 JUMPI PUSH1 0x40 MLOAD PUSH4 0x118CDAA7 PUSH1 0xE0 SHL DUP2 MSTORE CALLER PUSH1 0x4 DUP3 ADD MSTORE PUSH1 0x24 ADD PUSH2 0x353 JUMP JUMPDEST PUSH0 DUP1 SLOAD PUSH1 0x1 PUSH1 0x1 PUSH1 0xA0 SHL SUB DUP4 DUP2 AND PUSH1 0x1 PUSH1 0x1 PUSH1 0xA0 SHL SUB NOT DUP4 AND DUP2 OR DUP5 SSTORE PUSH1 0x40 MLOAD SWAP2 SWAP1 SWAP3 AND SWAP3 DUP4 SWAP2 PUSH32 0x8BE0079C531659141344CD1FD0A4F28419497F9722A3DAAFE3B4186F6B6457E0 SWAP2 SWAP1 LOG3 POP POP JUMP JUMPDEST PUSH0 PUSH1 0x20 DUP3 DUP5 SUB SLT ISZERO PUSH2 0x101F JUMPI PUSH0 DUP1 REVERT JUMPDEST POP CALLDATALOAD SWAP2 SWAP1 POP JUMP JUMPDEST DUP1 CALLDATALOAD PUSH1 0x1 PUSH1 0x1 PUSH1 0xA0 SHL SUB DUP2 AND DUP2 EQ PUSH2 0x103C JUMPI PUSH0 DUP1 REVERT JUMPDEST SWAP2 SWAP1 POP JUMP JUMPDEST PUSH0 DUP1 DUP4 PUSH1 0x1F DUP5 ADD SLT PUSH2 0x1051 JUMPI PUSH0 DUP1 REVERT JUMPDEST POP DUP2 CALLDATALOAD PUSH8 0xFFFFFFFFFFFFFFFF DUP2 GT ISZERO PUSH2 0x1068 JUMPI PUSH0 DUP1 REVERT JUMPDEST PUSH1 0x20 DUP4 ADD SWAP2 POP DUP4 PUSH1 0x20 DUP3 DUP6 ADD ADD GT ISZERO PUSH2 0x107F JUMPI PUSH0 DUP1 REVERT JUMPDEST SWAP3 POP SWAP3 SWAP1 POP JUMP JUMPDEST PUSH0 DUP1 PUSH0 DUP1 PUSH0 PUSH1 0x80 DUP7 DUP9 SUB SLT ISZERO PUSH2 0x109A JUMPI PUSH0 DUP1 REVERT JUMPDEST PUSH2 0x10A3 DUP7 PUSH2 0x1026 JUMP JUMPDEST SWAP5 POP PUSH1 0x20 DUP7 ADD CALLDATALOAD SWAP4 POP PUSH1 0x40 DUP7 ADD CALLDATALOAD DUP1 ISZERO ISZERO DUP2 EQ PUSH2 0x10BE JUMPI PUSH0 DUP1 REVERT JUMPDEST SWAP3 POP PUSH1 0x60 DUP7 ADD CALLDATALOAD PUSH8 0xFFFFFFFFFFFFFFFF DUP2 GT ISZERO PUSH2 0x10D9 JUMPI PUSH0 DUP1 REVERT JUMPDEST PUSH2 0x10E5 DUP9 DUP3 DUP10 ADD PUSH2 0x1041 JUMP JUMPDEST SWAP7 SWAP10 SWAP6 SWAP9 POP SWAP4 SWAP7 POP SWAP3 SWAP5 SWAP4 SWAP3 POP POP POP JUMP JUMPDEST PUSH4 0x4E487B71 PUSH1 0xE0 SHL PUSH0 MSTORE PUSH1 0x21 PUSH1 0x4 MSTORE PUSH1 0x24 PUSH0 REVERT JUMPDEST PUSH1 0x5 DUP2 LT PUSH2 0x1126 JUMPI PUSH4 0x4E487B71 PUSH1 0xE0 SHL PUSH0 MSTORE PUSH1 0x21 PUSH1 0x4 MSTORE PUSH1 0x24 PUSH0 REVERT JUMPDEST SWAP1 MSTORE JUMP JUMPDEST PUSH0 DUP2 MLOAD DUP1 DUP5 MSTORE PUSH0 JUMPDEST DUP2 DUP2 LT ISZERO PUSH2 0x114E JUMPI PUSH1 0x20 DUP2 DUP6 ADD DUP2 ADD MLOAD DUP7 DUP4 ADD DUP3 ADD MSTORE ADD PUSH2 0x1132 JUMP JUMPDEST POP PUSH0 PUSH1 0x20 DUP3 DUP7 ADD ADD MSTORE PUSH1 0x20 PUSH1 0x1F NOT PUSH1 0x1F DUP4 ADD AND DUP6 ADD ADD SWAP2 POP POP SWAP3 SWAP2 POP POP JUMP JUMPDEST DUP10 DUP2 MSTORE PUSH1 0x1 PUSH1 0x1 PUSH1 0xA0 SHL SUB DUP10 DUP2 AND PUSH1 0x20 DUP4 ADD MSTORE DUP9 AND PUSH1 0x40 DUP3 ADD MSTORE PUSH1 0x60 DUP2 ADD DUP8 SWAP1 MSTORE PUSH0 PUSH2 0x120 PUSH2 0x119F PUSH1 0x80 DUP5 ADD DUP10 PUSH2 0x110A JUMP JUMPDEST DUP7 ISZERO ISZERO PUSH1 0xA0 DUP5 ADD MSTORE DUP6 PUSH1 0xC0 DUP5 ADD MSTORE DUP5 PUSH1 0xE0 DUP5 ADD MSTORE DUP1 PUSH2 0x100 DUP5 ADD MSTORE PUSH2 0x11C6 DUP2 DUP5 ADD DUP6 PUSH2 0x112A JUMP JUMPDEST SWAP13 SWAP12 POP POP POP POP POP POP POP POP POP POP POP POP JUMP JUMPDEST PUSH0 DUP1 PUSH0 PUSH1 0x40 DUP5 DUP7 SUB SLT ISZERO PUSH2 0x11E8 JUMPI PUSH0 DUP1 REVERT JUMPDEST DUP4 CALLDATALOAD SWAP3 POP PUSH1 0x20 DUP5 ADD CALLDATALOAD PUSH8 0xFFFFFFFFFFFFFFFF DUP2 GT ISZERO PUSH2 0x1205 JUMPI PUSH0 DUP1 REVERT JUMPDEST PUSH2 0x1211 DUP7 DUP3 DUP8 ADD PUSH2 0x1041 JUMP JUMPDEST SWAP5 SWAP8 SWAP1 SWAP7 POP SWAP4 SWAP5 POP POP POP POP JUMP JUMPDEST PUSH0 PUSH1 0x20 DUP3 DUP5 SUB SLT ISZERO PUSH2 0x122E JUMPI PUSH0 DUP1 REVERT JUMPDEST PUSH2 0x2DA DUP3 PUSH2 0x1026 JUMP JUMPDEST PUSH1 0x20 DUP1 DUP3 MSTORE DUP3 MLOAD DUP3 DUP3 ADD DUP2 SWAP1 MSTORE PUSH0 SWAP2 SWAP1 DUP5 DUP3 ADD SWAP1 PUSH1 0x40 DUP6 ADD SWAP1 DUP5 JUMPDEST DUP2 DUP2 LT ISZERO PUSH2 0x126E JUMPI DUP4 MLOAD DUP4 MSTORE SWAP3 DUP5 ADD SWAP3 SWAP2 DUP5 ADD SWAP2 PUSH1 0x1 ADD PUSH2 0x1252 JUMP JUMPDEST POP SWAP1 SWAP7 SWAP6 POP POP POP POP POP POP JUMP JUMPDEST PUSH0 DUP1 PUSH1 0x40 DUP4 DUP6 SUB SLT ISZERO PUSH2 0x128B JUMPI PUSH0 DUP1 REVERT JUMPDEST PUSH2 0x1294 DUP4 PUSH2 0x1026 JUMP JUMPDEST SWAP5 PUSH1 0x20 SWAP4 SWAP1 SWAP4 ADD CALLDATALOAD SWAP4 POP POP POP JUMP JUMPDEST PUSH1 0x20 DUP2 MSTORE DUP2 MLOAD PUSH1 0x20 DUP3 ADD MSTORE PUSH0 PUSH1 0x20 DUP4 ADD MLOAD PUSH2 0x12C8 PUSH1 0x40 DUP5 ADD DUP3 PUSH1 0x1 PUSH1 0x1 PUSH1 0xA0 SHL SUB AND SWAP1 MSTORE JUMP JUMPDEST POP PUSH1 0x40 DUP4 ADD MLOAD PUSH1 0x1 PUSH1 0x1 PUSH1 0xA0 SHL SUB DUP2 AND PUSH1 0x60 DUP5 ADD MSTORE POP PUSH1 0x60 DUP4 ADD MLOAD PUSH1 0x80 DUP4 ADD MSTORE PUSH1 0x80 DUP4 ADD MLOAD PUSH2 0x12FA PUSH1 0xA0 DUP5 ADD DUP3 PUSH2 0x110A JUMP JUMPDEST POP PUSH1 0xA0 DUP4 ADD MLOAD DUP1 ISZERO ISZERO PUSH1 0xC0 DUP5 ADD MSTORE POP PUSH1 0xC0 DUP4 ADD MLOAD PUSH1 0xE0 DUP4 DUP2 ADD SWAP2 SWAP1 SWAP2 MSTORE DUP4 ADD MLOAD PUSH2 0x100 DUP1 DUP5 ADD SWAP2 SWAP1 SWAP2 MSTORE DUP4 ADD MLOAD PUSH2 0x120 DUP1 DUP5 ADD MSTORE PUSH2 0x133C PUSH2 0x140 DUP5 ADD DUP3 PUSH2 0x112A JUMP JUMPDEST SWAP5 SWAP4 POP POP POP POP JUMP JUMPDEST PUSH4 0x4E487B71 PUSH1 0xE0 SHL PUSH0 MSTORE PUSH1 0x41 PUSH1 0x4 MSTORE PUSH1 0x24 PUSH0 REVERT JUMPDEST PUSH1 0x1 DUP2 DUP2 SHR SWAP1 DUP3 AND DUP1 PUSH2 0x136C JUMPI PUSH1 0x7F DUP3 AND SWAP2 POP JUMPDEST PUSH1 0x20 DUP3 LT DUP2 SUB PUSH2 0x138A JUMPI PUSH4 0x4E487B71 PUSH1 0xE0 SHL PUSH0 MSTORE PUSH1 0x22 PUSH1 0x4 MSTORE PUSH1 0x24 PUSH0 REVERT JUMPDEST POP SWAP2 SWAP1 POP JUMP JUMPDEST PUSH1 0x1F DUP3 GT ISZERO PUSH2 0x13D7 JUMPI DUP1 PUSH0 MSTORE PUSH1 0x20 PUSH0 KECCAK256 PUSH1 0x1F DUP5 ADD PUSH1 0x5 SHR DUP2 ADD PUSH1 0x20 DUP6 LT ISZERO PUSH2 0x13B5 JUMPI POP DUP1 JUMPDEST PUSH1 0x1F DUP5 ADD PUSH1 0x5 SHR DUP3 ADD SWAP2 POP JUMPDEST DUP2 DUP2 LT ISZERO PUSH2 0x13D4 JUMPI PUSH0 DUP2 SSTORE PUSH1 0x1 ADD PUSH2 0x13C1 JUMP JUMPDEST POP POP JUMPDEST POP POP POP JUMP JUMPDEST DUP2 MLOAD PUSH8 0xFFFFFFFFFFFFFFFF DUP2 GT ISZERO PUSH2 0x13F6 JUMPI PUSH2 0x13F6 PUSH2 0x1344 JUMP JUMPDEST PUSH2 0x140A DUP2 PUSH2 0x1404 DUP5 SLOAD PUSH2 0x1358 JUMP JUMPDEST DUP5 PUSH2 0x1390 JUMP JUMPDEST PUSH1 0x20 DUP1 PUSH1 0x1F DUP4 GT PUSH1 0x1 DUP2 EQ PUSH2 0x143D JUMPI PUSH0 DUP5 ISZERO PUSH2 0x1426 JUMPI POP DUP6 DUP4 ADD MLOAD JUMPDEST PUSH0 NOT PUSH1 0x3 DUP7 SWAP1 SHL SHR NOT AND PUSH1 0x1 DUP6 SWAP1 SHL OR DUP6 SSTORE PUSH2 0x1494 JUMP JUMPDEST PUSH0 DUP6 DUP2 MSTORE PUSH1 0x20 DUP2 KECCAK256 PUSH1 0x1F NOT DUP7 AND SWAP2 JUMPDEST DUP3 DUP2 LT ISZERO PUSH2 0x146B JUMPI DUP9 DUP7 ADD MLOAD DUP3 SSTORE SWAP5 DUP5 ADD SWAP5 PUSH1 0x1 SWAP1 SWAP2 ADD SWAP1 DUP5 ADD PUSH2 0x144C JUMP JUMPDEST POP DUP6 DUP3 LT ISZERO PUSH2 0x1488 JUMPI DUP8 DUP6 ADD MLOAD PUSH0 NOT PUSH1 0x3 DUP9 SWAP1 SHL PUSH1 0xF8 AND SHR NOT AND DUP2 SSTORE JUMPDEST POP POP PUSH1 0x1 DUP5 PUSH1 0x1 SHL ADD DUP6 SSTORE JUMPDEST POP POP POP POP POP POP JUMP JUMPDEST PUSH1 0x20 DUP1 DUP3 MSTORE PUSH1 0x12 SWAP1 DUP3 ADD MSTORE PUSH18 0x129BD888191BD95CC81B9BDD08195E1A5CDD PUSH1 0x72 SHL PUSH1 0x40 DUP3 ADD MSTORE PUSH1 0x60 ADD SWAP1 JUMP JUMPDEST PUSH1 0x20 DUP2 MSTORE DUP2 PUSH1 0x20 DUP3 ADD MSTORE DUP2 DUP4 PUSH1 0x40 DUP4 ADD CALLDATACOPY PUSH0 DUP2 DUP4 ADD PUSH1 0x40 SWAP1 DUP2 ADD SWAP2 SWAP1 SWAP2 MSTORE PUSH1 0x1F SWAP1 SWAP3 ADD PUSH1 0x1F NOT AND ADD ADD SWAP2 SWAP1 POP JUMP JUMPDEST DUP2 DUP2 SUB DUP2 DUP2 GT ISZERO PUSH2 0x1515 JUMPI PUSH4 0x4E487B71 PUSH1 0xE0 SHL PUSH0 MSTORE PUSH1 0x11 PUSH1 0x4 MSTORE PUSH1 0x24 PUSH0 REVERT JUMPDEST SWAP3 SWAP2 POP POP JUMP INVALID LOG2 PUSH5 0x6970667358 0x22 SLT KECCAK256 PUSH30 0xD3CAEF9393945DBC7CF4D96EBF90032CEB1B442584EE539340992E1B473F SWAP15 PUSH5 0x736F6C6343 STOP ADDMOD XOR STOP CALLER "},"methodIdentifiers":{"MAX_JOB_DURATION()":"7b27b2f5","acceptJob(bytes32)":"b8948790","buyerJobs(address,uint256)":"ce02dd7d","completeJob(bytes32)":"991e0139","createJob(address,uint256,bool,string)":"2661f6cc","failJob(bytes32,string)":"3a917feb","getBuyerJobs(address)":"437505bf","getJob(bytes32)":"f729cf0d","getProviderJobs(address)":"f2640b5e","isJobFinalized(bytes32)":"0b470fa9","jobList(uint256)":"0c33c522","jobs(bytes32)":"38ed7cfc","owner()":"8da5cb5b","providerJobs(address,uint256)":"927a831b","renounceOwnership()":"715018a6","settleJob(bytes32)":"eafa57e9","transferOwnership(address)":"f2fde38b"}}}}}