{
  "_format": "hh-sol-artifact-1",
  "contractName": "ProviderRegistry",
  "sourceName": "contracts/ProviderRegistry.sol",
  "abi": [
    {
      "inputs": [],
      "stateMutability": "nonpayable",
      "type": "constructor"
    },
    {
      "inputs": [
        {
          "internalType": "address",
          "name": "owner",
          "type": "address"
        }
      ],
      "name": "OwnableInvalidOwner",
      "type": "error"
    },
    {
      "inputs": [
        {
          "internalType": "address",
          "name": "account",
          "type": "address"
        }
      ],
      "name": "OwnableUnauthorizedAccount",
      "type": "error"
    },
    {
      "anonymous": false,
      "inputs": [
        {
          "indexed": true,
          "internalType": "address",
          "name": "previousOwner",
          "type": "address"
        },
        {
          "indexed": true,
          "internalType": "address",
          "name": "newOwner",
          "type": "address"
        }
      ],
      "name": "OwnershipTransferred",
      "type": "event"
    },
    {
      "anonymous": false,
      "inputs": [
        {
          "indexed": true,
          "internalType": "address",
          "name": "owner",
          "type": "address"
        },
        {
          "indexed": false,
          "internalType": "string",
          "name": "metadataURI",
          "type": "string"
        },
        {
          "indexed": false,
          "internalType": "uint256",
          "name": "hourlyRate",
          "type": "uint256"
        },
        {
          "indexed": false,
          "internalType": "uint256",
          "name": "registeredAt",
          "type": "uint256"
        }
      ],
      "name": "ProviderRegistered",
      "type": "event"
    },
    {
      "anonymous": false,
      "inputs": [
        {
          "indexed": true,
          "internalType": "address",
          "name": "owner",
          "type": "address"
        },
        {
          "indexed": false,
          "internalType": "bool",
          "name": "isActive",
          "type": "bool"
        }
      ],
      "name": "ProviderStatusChanged",
      "type": "event"
    },
    {
      "anonymous": false,
      "inputs": [
        {
          "indexed": true,
          "internalType": "address",
          "name": "owner",
          "type": "address"
        },
        {
          "indexed": false,
          "internalType": "string",
          "name": "metadataURI",
          "type": "string"
        },
        {
          "indexed": false,
          "internalType": "bool",
          "name": "isActive",
          "type": "bool"
        },
        {
          "indexed": false,
          "internalType": "uint256",
          "name": "hourlyRate",
          "type": "uint256"
        }
      ],
      "name": "ProviderUpdated",
      "type": "event"
    },
    {
      "inputs": [
        {
          "internalType": "address",
          "name": "owner",
          "type": "address"
        }
      ],
      "name": "getProvider",
      "outputs": [
        {
          "components": [
            {
              "internalType": "address",
              "name": "owner",
              "type": "address"
            },
            {
              "internalType": "string",
              "name": "metadataURI",
              "type": "string"
            },
            {
              "internalType": "bool",
              "name": "isActive",
              "type": "bool"
            },
            {
              "internalType": "uint256",
              "name": "registeredAt",
              "type": "uint256"
            },
            {
              "internalType": "uint256",
              "name": "hourlyRate",
              "type": "uint256"
            }
          ],
          "internalType": "struct ProviderRegistry.Provider",
          "name": "",
          "type": "tuple"
        }
      ],
      "stateMutability": "view",
      "type": "function"
    },
    {
      "inputs": [],
      "name": "getProviderCount",
      "outputs": [
        {
          "internalType": "uint256",
          "name": "",
          "type": "uint256"
        }
      ],
      "stateMutability": "view",
      "type": "function"
    },
    {
      "inputs": [
        {
          "internalType": "uint256",
          "name": "offset",
          "type": "uint256"
        },
        {
          "internalType": "uint256",
          "name": "limit",
          "type": "uint256"
        }
      ],
      "name": "getProviders",
      "outputs": [
        {
          "internalType": "address[]",
          "name": "",
          "type": "address[]"
        }
      ],
      "stateMutability": "view",
      "type": "function"
    },
    {
      "inputs": [
        {
          "internalType": "address",
          "name": "owner",
          "type": "address"
        }
      ],
      "name": "isActiveProvider",
      "outputs": [
        {
          "internalType": "bool",
          "name": "",
          "type": "bool"
        }
      ],
      "stateMutability": "view",
      "type": "function"
    },
    {
      "inputs": [],
      "name": "owner",
      "outputs": [
        {
          "internalType": "address",
          "name": "",
          "type": "address"
        }
      ],
      "stateMutability": "view",
      "type": "function"
    },
    {
      "inputs": [
        {
          "internalType": "uint256",
          "name": "",
          "type": "uint256"
        }
      ],
      "name": "providerList",
      "outputs": [
        {
          "internalType": "address",
          "name": "",
          "type": "address"
        }
      ],
      "stateMutability": "view",
      "type": "function"
    },
    {
      "inputs": [
        {
          "internalType": "address",
          "name": "",
          "type": "address"
        }
      ],
      "name": "providers",
      "outputs": [
        {
          "internalType": "address",
          "name": "owner",
          "type": "address"
        },
        {
          "internalType": "string",
          "name": "metadataURI",
          "type": "string"
        },
        {
          "internalType": "bool",
          "name": "isActive",
          "type": "bool"
        },
        {
          "internalType": "uint256",
          "name": "registeredAt",
          "type": "uint256"
        },
        {
          "internalType": "uint256",
          "name": "hourlyRate",
          "type": "uint256"
        }
      ],
      "stateMutability": "view",
      "type": "function"
    },
    {
      "inputs": [
        {
          "internalType": "string",
          "name": "metadataURI",
          "type": "string"
        },
        {
          "internalType": "uint256",
          "name": "hourlyRate",
          "type": "uint256"
        }
      ],
      "name": "registerProvider",
      "outputs": [],
      "stateMutability": "nonpayable",
      "type": "function"
    },
    {
      "inputs": [],
      "name": "renounceOwnership",
      "outputs": [],
      "stateMutability": "nonpayable",
      "type": "function"
    },
    {
      "inputs": [
        {
          "internalType": "address",
          "name": "newOwner",
          "type": "address"
        }
      ],
      "name": "transferOwnership",
      "outputs": [],
      "stateMutability": "nonpayable",
      "type": "function"
    },
    {
      "inputs": [
        {
          "internalType": "string",
          "name": "metadataURI",
          "type": "string"
        },
        {
          "internalType": "uint256",
          "name": "hourlyRate",
          "type": "uint256"
        }
      ],
      "name": "updateProvider",
      "outputs": [],
      "stateMutability": "nonpayable",
      "type": "function"
    },
    {
      "inputs": [
        {
          "internalType": "bool",
          "name": "isActive",
          "type": "bool"
        }
      ],
      "name": "updateProviderStatus",
      "outputs": [],
      "stateMutability": "nonpayable",
      "type": "function"
    }
  ],
  "bytecode": "0x608060405234801561000f575f80fd5b50338061003557604051631e4fbdf760e01b81525f600482015260240160405180910390fd5b61003e81610044565b50610093565b5f80546001600160a01b038381166001600160a01b0319831681178455604051919092169283917f8be0079c531659141344cd1fd0a4f28419497f9722a3daafe3b4186f6b6457e09190a35050565b610f93806100a05f395ff3fe608060405234801561000f575f80fd5b50600436106100b1575f3560e01c80638da5cb5b1161006e5780638da5cb5b146101685780638f75e6f1146101785780639b5e1a3b1461018b578063bb66e09d146101ae578063c83aca41146101c1578063f2fde38b146101d4575f80fd5b80630787bc27146100b5578063390bfd3c146100e257806346ce41751461010d57806355f21eb71461011e578063715018a61461013e5780637c27690114610148575b5f80fd5b6100c86100c3366004610a6d565b6101e7565b6040516100d9959493929190610add565b60405180910390f35b6100f56100f0366004610b1d565b6102ac565b6040516001600160a01b0390911681526020016100d9565b6002546040519081526020016100d9565b61013161012c366004610a6d565b6102d4565b6040516100d99190610b34565b6101466103f8565b005b61015b610156366004610b8d565b61040b565b6040516100d99190610bad565b5f546001600160a01b03166100f5565b610146610186366004610bf9565b6104f0565b61019e610199366004610a6d565b6105ad565b60405190151581526020016100d9565b6101466101bc366004610c18565b6105f2565b6101466101cf366004610c18565b61084c565b6101466101e2366004610a6d565b6109b5565b600160208190525f9182526040909120805491810180546001600160a01b039093169261021390610c89565b80601f016020809104026020016040519081016040528092919081815260200182805461023f90610c89565b801561028a5780601f106102615761010080835404028352916020019161028a565b820191905f5260205f20905b81548152906001019060200180831161026d57829003601f168201915b5050505060028301546003840154600490940154929360ff9091169290915085565b600281815481106102bb575f80fd5b5f918252602090912001546001600160a01b0316905081565b61030d6040518060a001604052805f6001600160a01b03168152602001606081526020015f151581526020015f81526020015f81525090565b6001600160a01b038083165f90815260016020818152604092839020835160a081019094528054909416835290830180549293929184019161034e90610c89565b80601f016020809104026020016040519081016040528092919081815260200182805461037a90610c89565b80156103c55780601f1061039c576101008083540402835291602001916103c5565b820191905f5260205f20905b8154815290600101906020018083116103a857829003601f168201915b5050509183525050600282015460ff16151560208201526003820154604082015260049091015460609091015292915050565b6104006109f2565b6104095f610a1e565b565b60605f6104188385610cd5565b60025490915081111561042a57506002545b5f6104358583610ce8565b67ffffffffffffffff81111561044d5761044d610cfb565b604051908082528060200260200182016040528015610476578160200160208202803683370190505b509050845b828110156104e5576002818154811061049657610496610d0f565b5f918252602090912001546001600160a01b0316826104b58884610ce8565b815181106104c5576104c5610d0f565b6001600160a01b039092166020928302919091019091015260010161047b565b509150505b92915050565b335f818152600160205260409020546001600160a01b0316146105565760405162461bcd60e51b81526020600482015260196024820152782737ba1030903932b3b4b9ba32b932b210383937bb34b232b960391b60448201526064015b60405180910390fd5b335f81815260016020908152604091829020600201805460ff191685151590811790915591519182527fba12349dad88aafa71cd9c0327899dbede49c7e7bd250d37de3099a8053d91ec910160405180910390a250565b6001600160a01b0381165f9081526001602052604081206002015460ff1680156104ea5750506001600160a01b039081165f9081526001602052604090205416151590565b816106375760405162461bcd60e51b815260206004820152601560248201527413595d1859185d1848155492481c995c5d5a5c9959605a1b604482015260640161054d565b5f81116106865760405162461bcd60e51b815260206004820152601b60248201527f52617465206d7573742062652067726561746572207468616e20300000000000604482015260640161054d565b335f908152600160205260409020546001600160a01b0316156106eb5760405162461bcd60e51b815260206004820152601b60248201527f50726f766964657220616c726561647920726567697374657265640000000000604482015260640161054d565b6040518060a00160405280336001600160a01b0316815260200184848080601f0160208091040260200160405190810160405280939291908181526020018383808284375f92018290525093855250506001602080850182905242604080870191909152606090950187905233845281815293909220845181546001600160a01b0319166001600160a01b039091161781559284015191830191610790915082610d6f565b506040828101516002838101805460ff1916921515929092179091556060840151600384015560809093015160049092019190915581546001810183555f929092527f405787fa12a823e0f2b7631cc41b3ba8828b3321ca811111fa75cd3aa3bb5ace9091018054336001600160a01b0319909116811790915590517f8f4e408b761b09adb21138e3ea4177944738112b3b1182e631e75084faf4c03b9061083f908690869086904290610e57565b60405180910390a2505050565b335f818152600160205260409020546001600160a01b0316146108ad5760405162461bcd60e51b81526020600482015260196024820152782737ba1030903932b3b4b9ba32b932b210383937bb34b232b960391b604482015260640161054d565b816108f25760405162461bcd60e51b815260206004820152601560248201527413595d1859185d1848155492481c995c5d5a5c9959605a1b604482015260640161054d565b5f81116109415760405162461bcd60e51b815260206004820152601b60248201527f52617465206d7573742062652067726561746572207468616e20300000000000604482015260640161054d565b335f908152600160208190526040909120908101610960848683610e7d565b5060048101829055600281015460405133917fc4f11c3e0bc091afe111960dbf68b893e6f90f20fe16455272a7131f8211dc34916109a7918891889160ff16908890610f37565b60405180910390a250505050565b6109bd6109f2565b6001600160a01b0381166109e657604051631e4fbdf760e01b81525f600482015260240161054d565b6109ef81610a1e565b50565b5f546001600160a01b031633146104095760405163118cdaa760e01b815233600482015260240161054d565b5f80546001600160a01b038381166001600160a01b0319831681178455604051919092169283917f8be0079c531659141344cd1fd0a4f28419497f9722a3daafe3b4186f6b6457e09190a35050565b5f60208284031215610a7d575f80fd5b81356001600160a01b0381168114610a93575f80fd5b9392505050565b5f81518084525f5b81811015610abe57602081850181015186830182015201610aa2565b505f602082860101526020601f19601f83011685010191505092915050565b6001600160a01b038616815260a0602082018190525f90610b0090830187610a9a565b941515604083015250606081019290925260809091015292915050565b5f60208284031215610b2d575f80fd5b5035919050565b602080825282516001600160a01b03168282015282015160a060408301525f90610b6160c0840182610a9a565b905060408401511515606084015260608401516080840152608084015160a08401528091505092915050565b5f8060408385031215610b9e575f80fd5b50508035926020909101359150565b602080825282518282018190525f9190848201906040850190845b81811015610bed5783516001600160a01b031683529284019291840191600101610bc8565b50909695505050505050565b5f60208284031215610c09575f80fd5b81358015158114610a93575f80fd5b5f805f60408486031215610c2a575f80fd5b833567ffffffffffffffff80821115610c41575f80fd5b818601915086601f830112610c54575f80fd5b813581811115610c62575f80fd5b876020828501011115610c73575f80fd5b6020928301989097509590910135949350505050565b600181811c90821680610c9d57607f821691505b602082108103610cbb57634e487b7160e01b5f52602260045260245ffd5b50919050565b634e487b7160e01b5f52601160045260245ffd5b808201808211156104ea576104ea610cc1565b818103818111156104ea576104ea610cc1565b634e487b7160e01b5f52604160045260245ffd5b634e487b7160e01b5f52603260045260245ffd5b601f821115610d6a57805f5260205f20601f840160051c81016020851015610d485750805b601f840160051c820191505b81811015610d67575f8155600101610d54565b50505b505050565b815167ffffffffffffffff811115610d8957610d89610cfb565b610d9d81610d978454610c89565b84610d23565b602080601f831160018114610dd0575f8415610db95750858301515b5f19600386901b1c1916600185901b178555610e27565b5f85815260208120601f198616915b82811015610dfe57888601518255948401946001909101908401610ddf565b5085821015610e1b57878501515f19600388901b60f8161c191681555b505060018460011b0185555b505050505050565b81835281816020850137505f828201602090810191909152601f909101601f19169091010190565b606081525f610e6a606083018688610e2f565b6020830194909452506040015292915050565b67ffffffffffffffff831115610e9557610e95610cfb565b610ea983610ea38354610c89565b83610d23565b5f601f841160018114610eda575f8515610ec35750838201355b5f19600387901b1c1916600186901b178355610d67565b5f83815260208120601f198716915b82811015610f095786850135825560209485019460019092019101610ee9565b5086821015610f25575f1960f88860031b161c19848701351681555b505060018560011b0183555050505050565b606081525f610f4a606083018688610e2f565b931515602083015250604001529291505056fea26469706673582212202367348ba072636adec5187e156c0c585d003e7340797bfddaa74eb83a20b89164736f6c63430008180033",
  "linkReferences": {},
  "deployedLinkReferences": {}
}