{
  "_format": "hh-sol-artifact-1",
  "contractName": "ComputeRouter",
  "sourceName": "contracts/ComputeRouter.sol",
  "abi": [
    {
      "inputs": [
        {
          "internalType": "address",
          "name": "_usdcToken",
          "type": "address"
        },
        {
          "internalType": "address",
          "name": "_admin",
          "type": "address"
        }
      ],
      "stateMutability": "nonpayable",
      "type": "constructor"
    },
    {
      "inputs": [],
      "name": "AccessControlBadConfirmation",
      "type": "error"
    },
    {
      "inputs": [
        {
          "internalType": "address",
          "name": "account",
          "type": "address"
        },
        {
          "internalType": "bytes32",
          "name": "neededRole",
          "type": "bytes32"
        }
      ],
      "name": "AccessControlUnauthorizedAccount",
      "type": "error"
    },
    {
      "inputs": [],
      "name": "ReentrancyGuardReentrantCall",
      "type": "error"
    },
    {
      "anonymous": false,
      "inputs": [
        {
          "indexed": true,
          "internalType": "bytes32",
          "name": "jobId",
          "type": "bytes32"
        },
        {
          "indexed": false,
          "internalType": "uint256",
          "name": "completedAt",
          "type": "uint256"
        }
      ],
      "name": "ComputeJobCompleted",
      "type": "event"
    },
    {
      "anonymous": false,
      "inputs": [
        {
          "indexed": true,
          "internalType": "bytes32",
          "name": "jobId",
          "type": "bytes32"
        },
        {
          "indexed": true,
          "internalType": "address",
          "name": "buyer",
          "type": "address"
        },
        {
          "indexed": true,
          "internalType": "address",
          "name": "provider",
          "type": "address"
        },
        {
          "indexed": false,
          "internalType": "uint256",
          "name": "amount",
          "type": "uint256"
        },
        {
          "indexed": false,
          "internalType": "bool",
          "name": "tracked",
          "type": "bool"
        }
      ],
      "name": "ComputeJobCreated",
      "type": "event"
    },
    {
      "anonymous": false,
      "inputs": [
        {
          "indexed": true,
          "internalType": "address",
          "name": "provider",
          "type": "address"
        },
        {
          "indexed": false,
          "internalType": "string",
          "name": "metadataURI",
          "type": "string"
        },
        {
          "indexed": false,
          "internalType": "uint256",
          "name": "hourlyRate",
          "type": "uint256"
        }
      ],
      "name": "ProviderRegisteredViaRouter",
      "type": "event"
    },
    {
      "anonymous": false,
      "inputs": [
        {
          "indexed": true,
          "internalType": "address",
          "name": "provider",
          "type": "address"
        },
        {
          "indexed": false,
          "internalType": "bool",
          "name": "isActive",
          "type": "bool"
        }
      ],
      "name": "ProviderStatusUpdated",
      "type": "event"
    },
    {
      "anonymous": false,
      "inputs": [
        {
          "indexed": true,
          "internalType": "bytes32",
          "name": "role",
          "type": "bytes32"
        },
        {
          "indexed": true,
          "internalType": "bytes32",
          "name": "previousAdminRole",
          "type": "bytes32"
        },
        {
          "indexed": true,
          "internalType": "bytes32",
          "name": "newAdminRole",
          "type": "bytes32"
        }
      ],
      "name": "RoleAdminChanged",
      "type": "event"
    },
    {
      "anonymous": false,
      "inputs": [
        {
          "indexed": true,
          "internalType": "bytes32",
          "name": "role",
          "type": "bytes32"
        },
        {
          "indexed": true,
          "internalType": "address",
          "name": "account",
          "type": "address"
        },
        {
          "indexed": true,
          "internalType": "address",
          "name": "sender",
          "type": "address"
        }
      ],
      "name": "RoleGranted",
      "type": "event"
    },
    {
      "anonymous": false,
      "inputs": [
        {
          "indexed": true,
          "internalType": "bytes32",
          "name": "role",
          "type": "bytes32"
        },
        {
          "indexed": true,
          "internalType": "address",
          "name": "account",
          "type": "address"
        },
        {
          "indexed": true,
          "internalType": "address",
          "name": "sender",
          "type": "address"
        }
      ],
      "name": "RoleRevoked",
      "type": "event"
    },
    {
      "inputs": [],
      "name": "ADMIN_ROLE",
      "outputs": [
        {
          "internalType": "bytes32",
          "name": "",
          "type": "bytes32"
        }
      ],
      "stateMutability": "view",
      "type": "function"
    },
    {
      "inputs": [],
      "name": "DEFAULT_ADMIN_ROLE",
      "outputs": [
        {
          "internalType": "bytes32",
          "name": "",
          "type": "bytes32"
        }
      ],
      "stateMutability": "view",
      "type": "function"
    },
    {
      "inputs": [],
      "name": "USER_ROLE",
      "outputs": [
        {
          "internalType": "bytes32",
          "name": "",
          "type": "bytes32"
        }
      ],
      "stateMutability": "view",
      "type": "function"
    },
    {
      "inputs": [],
      "name": "VIEWER_ROLE",
      "outputs": [
        {
          "internalType": "bytes32",
          "name": "",
          "type": "bytes32"
        }
      ],
      "stateMutability": "view",
      "type": "function"
    },
    {
      "inputs": [
        {
          "internalType": "bytes32",
          "name": "jobId",
          "type": "bytes32"
        }
      ],
      "name": "acceptJob",
      "outputs": [],
      "stateMutability": "nonpayable",
      "type": "function"
    },
    {
      "inputs": [
        {
          "internalType": "address",
          "name": "account",
          "type": "address"
        }
      ],
      "name": "addViewer",
      "outputs": [],
      "stateMutability": "nonpayable",
      "type": "function"
    },
    {
      "inputs": [
        {
          "internalType": "bytes32",
          "name": "jobId",
          "type": "bytes32"
        }
      ],
      "name": "adminRefund",
      "outputs": [],
      "stateMutability": "nonpayable",
      "type": "function"
    },
    {
      "inputs": [
        {
          "internalType": "bytes32",
          "name": "jobId",
          "type": "bytes32"
        }
      ],
      "name": "completeJob",
      "outputs": [],
      "stateMutability": "nonpayable",
      "type": "function"
    },
    {
      "inputs": [
        {
          "internalType": "address",
          "name": "provider",
          "type": "address"
        },
        {
          "internalType": "uint256",
          "name": "amount",
          "type": "uint256"
        },
        {
          "internalType": "bool",
          "name": "tracked",
          "type": "bool"
        },
        {
          "internalType": "string",
          "name": "reasoningHash",
          "type": "string"
        }
      ],
      "name": "createJob",
      "outputs": [
        {
          "internalType": "bytes32",
          "name": "jobId",
          "type": "bytes32"
        }
      ],
      "stateMutability": "nonpayable",
      "type": "function"
    },
    {
      "inputs": [],
      "name": "escrow",
      "outputs": [
        {
          "internalType": "contract Escrow",
          "name": "",
          "type": "address"
        }
      ],
      "stateMutability": "view",
      "type": "function"
    },
    {
      "inputs": [
        {
          "internalType": "bytes32",
          "name": "jobId",
          "type": "bytes32"
        },
        {
          "internalType": "string",
          "name": "reason",
          "type": "string"
        }
      ],
      "name": "failJob",
      "outputs": [],
      "stateMutability": "nonpayable",
      "type": "function"
    },
    {
      "inputs": [
        {
          "internalType": "address",
          "name": "buyer",
          "type": "address"
        }
      ],
      "name": "getBuyerJobs",
      "outputs": [
        {
          "internalType": "bytes32[]",
          "name": "",
          "type": "bytes32[]"
        }
      ],
      "stateMutability": "view",
      "type": "function"
    },
    {
      "inputs": [
        {
          "internalType": "bytes32",
          "name": "jobId",
          "type": "bytes32"
        }
      ],
      "name": "getEscrow",
      "outputs": [
        {
          "components": [
            {
              "internalType": "bytes32",
              "name": "jobId",
              "type": "bytes32"
            },
            {
              "internalType": "address",
              "name": "buyer",
              "type": "address"
            },
            {
              "internalType": "address",
              "name": "provider",
              "type": "address"
            },
            {
              "internalType": "uint256",
              "name": "amount",
              "type": "uint256"
            },
            {
              "internalType": "enum Escrow.EscrowStatus",
              "name": "status",
              "type": "uint8"
            },
            {
              "internalType": "uint256",
              "name": "createdAt",
              "type": "uint256"
            },
            {
              "internalType": "uint256",
              "name": "timeoutAt",
              "type": "uint256"
            }
          ],
          "internalType": "struct Escrow.EscrowData",
          "name": "",
          "type": "tuple"
        }
      ],
      "stateMutability": "view",
      "type": "function"
    },
    {
      "inputs": [
        {
          "internalType": "bytes32",
          "name": "jobId",
          "type": "bytes32"
        }
      ],
      "name": "getJob",
      "outputs": [
        {
          "components": [
            {
              "internalType": "bytes32",
              "name": "id",
              "type": "bytes32"
            },
            {
              "internalType": "address",
              "name": "buyer",
              "type": "address"
            },
            {
              "internalType": "address",
              "name": "provider",
              "type": "address"
            },
            {
              "internalType": "uint256",
              "name": "amount",
              "type": "uint256"
            },
            {
              "internalType": "enum JobRegistry.JobStatus",
              "name": "status",
              "type": "uint8"
            },
            {
              "internalType": "bool",
              "name": "tracked",
              "type": "bool"
            },
            {
              "internalType": "uint256",
              "name": "createdAt",
              "type": "uint256"
            },
            {
              "internalType": "uint256",
              "name": "completedAt",
              "type": "uint256"
            },
            {
              "internalType": "string",
              "name": "reasoningHash",
              "type": "string"
            }
          ],
          "internalType": "struct JobRegistry.Job",
          "name": "",
          "type": "tuple"
        }
      ],
      "stateMutability": "view",
      "type": "function"
    },
    {
      "inputs": [
        {
          "internalType": "address",
          "name": "owner",
          "type": "address"
        }
      ],
      "name": "getProvider",
      "outputs": [
        {
          "components": [
            {
              "internalType": "address",
              "name": "owner",
              "type": "address"
            },
            {
              "internalType": "string",
              "name": "metadataURI",
              "type": "string"
            },
            {
              "internalType": "bool",
              "name": "isActive",
              "type": "bool"
            },
            {
              "internalType": "uint256",
              "name": "registeredAt",
              "type": "uint256"
            },
            {
              "internalType": "uint256",
              "name": "hourlyRate",
              "type": "uint256"
            }
          ],
          "internalType": "struct ProviderRegistry.Provider",
          "name": "",
          "type": "tuple"
        }
      ],
      "stateMutability": "view",
      "type": "function"
    },
    {
      "inputs": [
        {
          "internalType": "address",
          "name": "provider",
          "type": "address"
        }
      ],
      "name": "getProviderJobs",
      "outputs": [
        {
          "internalType": "bytes32[]",
          "name": "",
          "type": "bytes32[]"
        }
      ],
      "stateMutability": "view",
      "type": "function"
    },
    {
      "inputs": [
        {
          "internalType": "bytes32",
          "name": "role",
          "type": "bytes32"
        }
      ],
      "name": "getRoleAdmin",
      "outputs": [
        {
          "internalType": "bytes32",
          "name": "",
          "type": "bytes32"
        }
      ],
      "stateMutability": "view",
      "type": "function"
    },
    {
      "inputs": [
        {
          "internalType": "bytes32",
          "name": "role",
          "type": "bytes32"
        },
        {
          "internalType": "address",
          "name": "account",
          "type": "address"
        }
      ],
      "name": "grantRole",
      "outputs": [],
      "stateMutability": "nonpayable",
      "type": "function"
    },
    {
      "inputs": [
        {
          "internalType": "bytes32",
          "name": "role",
          "type": "bytes32"
        },
        {
          "internalType": "address",
          "name": "account",
          "type": "address"
        }
      ],
      "name": "hasRole",
      "outputs": [
        {
          "internalType": "bool",
          "name": "",
          "type": "bool"
        }
      ],
      "stateMutability": "view",
      "type": "function"
    },
    {
      "inputs": [
        {
          "internalType": "address",
          "name": "provider",
          "type": "address"
        }
      ],
      "name": "isActiveProvider",
      "outputs": [
        {
          "internalType": "bool",
          "name": "",
          "type": "bool"
        }
      ],
      "stateMutability": "view",
      "type": "function"
    },
    {
      "inputs": [
        {
          "internalType": "address",
          "name": "",
          "type": "address"
        }
      ],
      "name": "isRegisteredProvider",
      "outputs": [
        {
          "internalType": "bool",
          "name": "",
          "type": "bool"
        }
      ],
      "stateMutability": "view",
      "type": "function"
    },
    {
      "inputs": [],
      "name": "jobRegistry",
      "outputs": [
        {
          "internalType": "contract JobRegistry",
          "name": "",
          "type": "address"
        }
      ],
      "stateMutability": "view",
      "type": "function"
    },
    {
      "inputs": [],
      "name": "providerRegistry",
      "outputs": [
        {
          "internalType": "contract ProviderRegistry",
          "name": "",
          "type": "address"
        }
      ],
      "stateMutability": "view",
      "type": "function"
    },
    {
      "inputs": [
        {
          "internalType": "string",
          "name": "metadataURI",
          "type": "string"
        },
        {
          "internalType": "uint256",
          "name": "hourlyRate",
          "type": "uint256"
        }
      ],
      "name": "registerProvider",
      "outputs": [],
      "stateMutability": "nonpayable",
      "type": "function"
    },
    {
      "inputs": [
        {
          "internalType": "address",
          "name": "account",
          "type": "address"
        }
      ],
      "name": "removeViewer",
      "outputs": [],
      "stateMutability": "nonpayable",
      "type": "function"
    },
    {
      "inputs": [
        {
          "internalType": "bytes32",
          "name": "role",
          "type": "bytes32"
        },
        {
          "internalType": "address",
          "name": "callerConfirmation",
          "type": "address"
        }
      ],
      "name": "renounceRole",
      "outputs": [],
      "stateMutability": "nonpayable",
      "type": "function"
    },
    {
      "inputs": [
        {
          "internalType": "bytes32",
          "name": "jobId",
          "type": "bytes32"
        }
      ],
      "name": "requestRefund",
      "outputs": [],
      "stateMutability": "nonpayable",
      "type": "function"
    },
    {
      "inputs": [
        {
          "internalType": "bytes32",
          "name": "role",
          "type": "bytes32"
        },
        {
          "internalType": "address",
          "name": "account",
          "type": "address"
        }
      ],
      "name": "revokeRole",
      "outputs": [],
      "stateMutability": "nonpayable",
      "type": "function"
    },
    {
      "inputs": [
        {
          "internalType": "bytes4",
          "name": "interfaceId",
          "type": "bytes4"
        }
      ],
      "name": "supportsInterface",
      "outputs": [
        {
          "internalType": "bool",
          "name": "",
          "type": "bool"
        }
      ],
      "stateMutability": "view",
      "type": "function"
    },
    {
      "inputs": [
        {
          "internalType": "string",
          "name": "metadataURI",
          "type": "string"
        },
        {
          "internalType": "uint256",
          "name": "hourlyRate",
          "type": "uint256"
        }
      ],
      "name": "updateProvider",
      "outputs": [],
      "stateMutability": "nonpayable",
      "type": "function"
    },
    {
      "inputs": [
        {
          "internalType": "bool",
          "name": "isActive",
          "type": "bool"
        }
      ],
      "name": "updateProviderStatus",
      "outputs": [],
      "stateMutability": "nonpayable",
      "type": "function"
    },
    {
      "inputs": [],
      "name": "usdcToken",
      "outputs": [
        {
          "internalType": "contract IERC20",
          "name": "",
          "type": "address"
        }
      ],
      "stateMutability": "view",
      "type": "function"
    }
  ],
  "bytecode": "0x608060405234801562000010575f80fd5b50604051620060db380380620060db833981016040819052620000339162000494565b600180556001600160a01b038216620000935760405162461bcd60e51b815260206004820152601a60248201527f496e76616c6964205553444320746f6b656e206164647265737300000000000060448201526064015b60405180910390fd5b6001600160a01b038116620000eb5760405162461bcd60e51b815260206004820152601560248201527f496e76616c69642061646d696e2061646472657373000000000000000000000060448201526064016200008a565b600580546001600160a01b0319166001600160a01b03841617905560405162000114906200044e565b604051809103905ff0801580156200012e573d5f803e3d5ffd5b50600280546001600160a01b0319166001600160a01b03929092169190911790556040516200015d906200045c565b604051809103905ff08015801562000177573d5f803e3d5ffd5b50600380546001600160a01b0319166001600160a01b03929092169190911790556040518290620001a8906200046a565b6001600160a01b039091168152602001604051809103905ff080158015620001d2573d5f803e3d5ffd5b50600480546001600160a01b0319166001600160a01b0392909216919091179055620001ff5f82620003a2565b506200022c7fa49807205ce4d355092ef5a8a18f56e8913cf4a201fbe287825b095693c2177582620003a2565b506004805460035460405162dc34c160e01b81526001600160a01b0391821693810193909352169062dc34c1906024015f604051808303815f87803b15801562000274575f80fd5b505af115801562000287573d5f803e3d5ffd5b505060025460405163f2fde38b60e01b81523060048201526001600160a01b03909116925063f2fde38b91506024015f604051808303815f87803b158015620002ce575f80fd5b505af1158015620002e1573d5f803e3d5ffd5b505060035460405163f2fde38b60e01b81523060048201526001600160a01b03909116925063f2fde38b91506024015f604051808303815f87803b15801562000328575f80fd5b505af11580156200033b573d5f803e3d5ffd5b50506004805460405163f2fde38b60e01b815230928101929092526001600160a01b0316925063f2fde38b91506024015f604051808303815f87803b15801562000383575f80fd5b505af115801562000396573d5f803e3d5ffd5b505050505050620004ca565b5f828152602081815260408083206001600160a01b038516845290915281205460ff1662000445575f838152602081815260408083206001600160a01b03861684529091529020805460ff19166001179055620003fc3390565b6001600160a01b0316826001600160a01b0316847f2f8788117e7eff1d82e926ec794901d17c78024a50270940304540a733656f0d60405160405180910390a450600162000448565b505f5b92915050565b611033806200284783390190565b6115f1806200387a83390190565b6112708062004e6b83390190565b80516001600160a01b03811681146200048f575f80fd5b919050565b5f8060408385031215620004a6575f80fd5b620004b18362000478565b9150620004c16020840162000478565b90509250929050565b61236f80620004d85f395ff3fe608060405234801561000f575f80fd5b50600436106101e7575f3560e01c806375b238fc11610109578063bb66e09d1161009e578063e2fdcc171161006e578063e2fdcc171461047e578063f023b81114610491578063f2640b5e146104b1578063f729cf0d146104c4575f80fd5b8063bb66e09d14610432578063c83aca4114610445578063d1d9891414610458578063d547741f1461046b575f80fd5b8063991e0139116100d9578063991e0139146103f25780639b5e1a3b14610405578063a217fddf14610418578063b89487901461041f575f80fd5b806375b238fc146103a5578063775274a1146103b95780638f75e6f1146103cc57806391d14854146103df575f80fd5b806336568abe1161017f57806351ca236f1161014f57806351ca236f1461033d578063545921d91461035f57806355f21eb714610372578063601f8cf514610392575f80fd5b806336568abe146102d05780633a917feb146102e3578063437505bf146102f657806350219eaf14610316575f80fd5b8063248a9ca3116101ba578063248a9ca3146102735780632661f6cc146102955780632f2ff15d146102a8578063316bb8b7146102bd575f80fd5b806301ffc9a7146101eb57806311eac85514610213578063131191611461023e57806323682c4714610260575b5f80fd5b6101fe6101f93660046119f2565b6104e4565b60405190151581526020015b60405180910390f35b600554610226906001600160a01b031681565b6040516001600160a01b03909116815260200161020a565b6102525f805160206122fa83398151915281565b60405190815260200161020a565b600354610226906001600160a01b031681565b610252610281366004611a19565b5f9081526020819052604090206001015490565b6102526102a3366004611a96565b61051a565b6102bb6102b6366004611b04565b6109eb565b005b6102bb6102cb366004611a19565b610a2d565b6102bb6102de366004611b04565b610acb565b6102bb6102f1366004611b32565b610afe565b610309610304366004611b7a565b610c41565b60405161020a9190611b95565b6102527f4e8c8e9ca39468bb90c81b80f979119441019fdac7cbbbd930e0a604f8777d1d81565b6101fe61034b366004611b7a565b60066020525f908152604090205460ff1681565b600254610226906001600160a01b031681565b610385610380366004611b7a565b610cb1565b60405161020a9190611c25565b6102bb6103a0366004611b7a565b610d58565b6102525f8051602061231a83398151915281565b6102bb6103c7366004611a19565b610db9565b6102bb6103da366004611c7e565b610eee565b6101fe6103ed366004611b04565b610fdc565b6102bb610400366004611a19565b611007565b6101fe610413366004611b7a565b61127e565b6102525f81565b6102bb61042d366004611a19565b6112ea565b6102bb610440366004611c99565b61141d565b6102bb610453366004611c99565b6115ed565b6102bb610466366004611b7a565b6116ad565b6102bb610479366004611b04565b61170a565b600454610226906001600160a01b031681565b6104a461049f366004611a19565b61173d565b60405161020a9190611cf5565b6103096104bf366004611b7a565b6117e3565b6104d76104d2366004611a19565b611816565b60405161020a9190611d77565b5f6001600160e01b03198216637965db0b60e01b148061051457506301ffc9a760e01b6001600160e01b03198316145b92915050565b5f6105236118d0565b6001600160a01b03861661057e5760405162461bcd60e51b815260206004820152601860248201527f496e76616c69642070726f76696465722061646472657373000000000000000060448201526064015b60405180910390fd5b5f85116105cd5760405162461bcd60e51b815260206004820152601d60248201527f416d6f756e74206d7573742062652067726561746572207468616e20300000006044820152606401610575565b600254604051639b5e1a3b60e01b81526001600160a01b03888116600483015290911690639b5e1a3b90602401602060405180830381865afa158015610615573d5f803e3d5ffd5b505050506040513d601f19601f820116820180604052508101906106399190611e29565b61067b5760405162461bcd60e51b815260206004820152601360248201527250726f7669646572206e6f742061637469766560681b6044820152606401610575565b600554604051636eb1769f60e11b81523360048201523060248201525f916001600160a01b03169063dd62ed3e90604401602060405180830381865afa1580156106c7573d5f803e3d5ffd5b505050506040513d601f19601f820116820180604052508101906106eb9190611e44565b90508581101561073d5760405162461bcd60e51b815260206004820152601b60248201527f496e73756666696369656e74205553444320616c6c6f77616e636500000000006044820152606401610575565b6005546040516323b872dd60e01b8152336004820152306024820152604481018890525f916001600160a01b0316906323b872dd906064016020604051808303815f875af1158015610791573d5f803e3d5ffd5b505050506040513d601f19601f820116820180604052508101906107b59190611e29565b9050806107fb5760405162461bcd60e51b81526020600482015260146024820152731554d110c81d1c985b9cd9995c8819985a5b195960621b6044820152606401610575565b6005546004805460405163095ea7b360e01b81526001600160a01b0391821692810192909252602482018a90529091169063095ea7b3906044016020604051808303815f875af1158015610851573d5f803e3d5ffd5b505050506040513d601f19601f820116820180604052508101906108759190611e29565b506003546040516309987db360e21b81526001600160a01b0390911690632661f6cc906108ae908b908b908b908b908b90600401611e83565b6020604051808303815f875af11580156108ca573d5f803e3d5ffd5b505050506040513d601f19601f820116820180604052508101906108ee9190611e44565b60048054604051630114466d60e11b81529182018390526001600160a01b038b81166024840152604483018b905292955091909116906302288cda906064015f604051808303815f87803b158015610944575f80fd5b505af1158015610956573d5f803e3d5ffd5b505050506109715f805160206122fa83398151915233610fdc565b61098e5761098c5f805160206122fa833981519152336118fa565b505b6040805188815287151560208201526001600160a01b038a1691339186917fb930f83f259bc09664b28f8b820645dbf40558d12985b46d949b179d9e52d2b6910160405180910390a450506109e260018055565b95945050505050565b610a025f8051602061231a83398151915233610fdc565b610a1e5760405162461bcd60e51b815260040161057590611ebd565b610a2882826118fa565b505050565b610a445f8051602061231a83398151915233610fdc565b610a605760405162461bcd60e51b815260040161057590611ebd565b610a686118d0565b60048054604051633924fddb60e11b81529182018390526001600160a01b031690637249fbb6906024015f604051808303815f87803b158015610aa9575f80fd5b505af1158015610abb573d5f803e3d5ffd5b50505050610ac860018055565b50565b6001600160a01b0381163314610af45760405163334bd91960e11b815260040160405180910390fd5b610a288282611989565b60035460405163f729cf0d60e01b8152600481018590525f916001600160a01b03169063f729cf0d906024015f60405180830381865afa158015610b44573d5f803e3d5ffd5b505050506040513d5f823e601f3d908101601f19168201604052610b6b919081019061201c565b60208101519091506001600160a01b0316331480610b95575060408101516001600160a01b031633145b610bda5760405162461bcd60e51b815260206004820152601660248201527527b7363c90313abcb2b91037b910383937bb34b232b960511b6044820152606401610575565b600354604051633a917feb60e01b81526001600160a01b0390911690633a917feb90610c0e908790879087906004016120f5565b5f604051808303815f87803b158015610c25575f80fd5b505af1158015610c37573d5f803e3d5ffd5b5050505050505050565b60035460405163437505bf60e01b81526001600160a01b038381166004830152606092169063437505bf906024015b5f60405180830381865afa158015610c8a573d5f803e3d5ffd5b505050506040513d5f823e601f3d908101601f19168201604052610514919081019061210e565b610cea6040518060a001604052805f6001600160a01b03168152602001606081526020015f151581526020015f81526020015f81525090565b6002546040516355f21eb760e01b81526001600160a01b038481166004830152909116906355f21eb7906024015f60405180830381865afa158015610d31573d5f803e3d5ffd5b505050506040513d5f823e601f3d908101601f1916820160405261051491908101906121af565b610d6f5f8051602061231a83398151915233610fdc565b610d8b5760405162461bcd60e51b815260040161057590611ebd565b610db57f4e8c8e9ca39468bb90c81b80f979119441019fdac7cbbbd930e0a604f8777d1d826118fa565b5050565b610dc16118d0565b60035460405163f729cf0d60e01b8152600481018390525f916001600160a01b03169063f729cf0d906024015f60405180830381865afa158015610e07573d5f803e3d5ffd5b505050506040513d5f823e601f3d908101601f19168201604052610e2e919081019061201c565b60208101519091506001600160a01b03163314610e8d5760405162461bcd60e51b815260206004820152601d60248201527f4f6e6c792062757965722063616e207265717565737420726566756e640000006044820152606401610575565b60048054604051633924fddb60e11b81529182018490526001600160a01b031690637249fbb6906024015f604051808303815f87803b158015610ece575f80fd5b505af1158015610ee0573d5f803e3d5ffd5b5050505050610ac860018055565b335f9081526006602052604090205460ff16610f485760405162461bcd60e51b81526020600482015260196024820152782737ba1030903932b3b4b9ba32b932b210383937bb34b232b960391b6044820152606401610575565b600254604051638f75e6f160e01b815282151560048201526001600160a01b0390911690638f75e6f1906024015f604051808303815f87803b158015610f8c575f80fd5b505af1158015610f9e573d5f803e3d5ffd5b505060405183151581523392507f1de2c54152cbdee6ccf8029f3fafbe617a301e17e689c4e095a0e280b63e3dae915060200160405180910390a250565b5f828152602081815260408083206001600160a01b038516845290915281205460ff165b9392505050565b61100f6118d0565b60035460405163f729cf0d60e01b8152600481018390525f916001600160a01b03169063f729cf0d906024015f60405180830381865afa158015611055573d5f803e3d5ffd5b505050506040513d5f823e601f3d908101601f1916820160405261107c919081019061201c565b60408101519091506001600160a01b031633146110db5760405162461bcd60e51b815260206004820152601a60248201527f4f6e6c792070726f76696465722063616e20636f6d706c6574650000000000006044820152606401610575565b6001816080015160048111156110f3576110f3611ce1565b146111315760405162461bcd60e51b815260206004820152600e60248201526d4a6f62206e6f742061637469766560901b6044820152606401610575565b60035460405163991e013960e01b8152600481018490526001600160a01b039091169063991e0139906024015f604051808303815f87803b158015611174575f80fd5b505af1158015611186573d5f803e3d5ffd5b50506004805460405163c92ee04360e01b81529182018690526001600160a01b0316925063c92ee04391506024015f604051808303815f87803b1580156111cb575f80fd5b505af11580156111dd573d5f803e3d5ffd5b505060035460405163eafa57e960e01b8152600481018690526001600160a01b03909116925063eafa57e991506024015f604051808303815f87803b158015611224575f80fd5b505af1158015611236573d5f803e3d5ffd5b50505050817fa23ecfc494fc3eb254de1afa874e343728c676bbb6c7d72efdd1d36972b533c94260405161126c91815260200190565b60405180910390a250610ac860018055565b600254604051639b5e1a3b60e01b81526001600160a01b0383811660048301525f921690639b5e1a3b90602401602060405180830381865afa1580156112c6573d5f803e3d5ffd5b505050506040513d601f19601f820116820180604052508101906105149190611e29565b60035460405163f729cf0d60e01b8152600481018390525f916001600160a01b03169063f729cf0d906024015f60405180830381865afa158015611330573d5f803e3d5ffd5b505050506040513d5f823e601f3d908101601f19168201604052611357919081019061201c565b60408101519091506001600160a01b031633146113c05760405162461bcd60e51b815260206004820152602160248201527f4f6e6c792061737369676e65642070726f76696465722063616e2061636365706044820152601d60fa1b6064820152608401610575565b600354604051630b89487960e41b8152600481018490526001600160a01b039091169063b8948790906024015f604051808303815f87803b158015611403575f80fd5b505af1158015611415573d5f803e3d5ffd5b505050505050565b816114625760405162461bcd60e51b815260206004820152601560248201527413595d1859185d1848155492481c995c5d5a5c9959605a1b6044820152606401610575565b5f81116114b15760405162461bcd60e51b815260206004820152601b60248201527f52617465206d7573742062652067726561746572207468616e203000000000006044820152606401610575565b335f9081526006602052604090205460ff16156115105760405162461bcd60e51b815260206004820152601e60248201527f416c726561647920726567697374657265642061732070726f766964657200006044820152606401610575565b60025460405163bb66e09d60e01b81526001600160a01b039091169063bb66e09d9061154490869086908690600401612257565b5f604051808303815f87803b15801561155b575f80fd5b505af115801561156d573d5f803e3d5ffd5b5050335f818152600660205260409020805460ff191660011790556115a292505f805160206122fa83398151915291506118fa565b50336001600160a01b03167f5918d0abb982d1b42aa831525d5ea17cbc80afe26a3bccb117bfd05d06fb7b608484846040516115e093929190612257565b60405180910390a2505050565b335f9081526006602052604090205460ff166116475760405162461bcd60e51b81526020600482015260196024820152782737ba1030903932b3b4b9ba32b932b210383937bb34b232b960391b6044820152606401610575565b60025460405163c83aca4160e01b81526001600160a01b039091169063c83aca419061167b90869086908690600401612257565b5f604051808303815f87803b158015611692575f80fd5b505af11580156116a4573d5f803e3d5ffd5b50505050505050565b6116c45f8051602061231a83398151915233610fdc565b6116e05760405162461bcd60e51b815260040161057590611ebd565b610db57f4e8c8e9ca39468bb90c81b80f979119441019fdac7cbbbd930e0a604f8777d1d82611989565b6117215f8051602061231a83398151915233610fdc565b610af45760405162461bcd60e51b815260040161057590611ebd565b61177a6040805160e0810182525f808252602082018190529181018290526060810182905290608082019081526020015f81526020015f81525090565b6004805460405163f023b81160e01b81529182018490526001600160a01b03169063f023b8119060240160e060405180830381865afa1580156117bf573d5f803e3d5ffd5b505050506040513d601f19601f82011682018060405250810190610514919061227a565b60035460405163793205af60e11b81526001600160a01b038381166004830152606092169063f2640b5e90602401610c70565b61186360408051610120810182525f808252602082018190529181018290526060810182905290608082019081526020015f151581526020015f81526020015f8152602001606081525090565b60035460405163f729cf0d60e01b8152600481018490526001600160a01b039091169063f729cf0d906024015f60405180830381865afa1580156118a9573d5f803e3d5ffd5b505050506040513d5f823e601f3d908101601f19168201604052610514919081019061201c565b6002600154036118f357604051633ee5aeb560e01b815260040160405180910390fd5b6002600155565b5f6119058383610fdc565b611982575f838152602081815260408083206001600160a01b03861684529091529020805460ff1916600117905561193a3390565b6001600160a01b0316826001600160a01b0316847f2f8788117e7eff1d82e926ec794901d17c78024a50270940304540a733656f0d60405160405180910390a4506001610514565b505f610514565b5f6119948383610fdc565b15611982575f838152602081815260408083206001600160a01b0386168085529252808320805460ff1916905551339286917ff6391f5c32d9c69d2a47ea670b442974b53935d1edc7fd64eb21e047a839171b9190a4506001610514565b5f60208284031215611a02575f80fd5b81356001600160e01b031981168114611000575f80fd5b5f60208284031215611a29575f80fd5b5035919050565b6001600160a01b0381168114610ac8575f80fd5b8015158114610ac8575f80fd5b5f8083601f840112611a61575f80fd5b50813567ffffffffffffffff811115611a78575f80fd5b602083019150836020828501011115611a8f575f80fd5b9250929050565b5f805f805f60808688031215611aaa575f80fd5b8535611ab581611a30565b9450602086013593506040860135611acc81611a44565b9250606086013567ffffffffffffffff811115611ae7575f80fd5b611af388828901611a51565b969995985093965092949392505050565b5f8060408385031215611b15575f80fd5b823591506020830135611b2781611a30565b809150509250929050565b5f805f60408486031215611b44575f80fd5b83359250602084013567ffffffffffffffff811115611b61575f80fd5b611b6d86828701611a51565b9497909650939450505050565b5f60208284031215611b8a575f80fd5b813561100081611a30565b602080825282518282018190525f9190848201906040850190845b81811015611bcc57835183529284019291840191600101611bb0565b50909695505050505050565b5f5b83811015611bf2578181015183820152602001611bda565b50505f910152565b5f8151808452611c11816020860160208601611bd8565b601f01601f19169290920160200192915050565b602080825282516001600160a01b03168282015282015160a060408301525f90611c5260c0840182611bfa565b905060408401511515606084015260608401516080840152608084015160a08401528091505092915050565b5f60208284031215611c8e575f80fd5b813561100081611a44565b5f805f60408486031215611cab575f80fd5b833567ffffffffffffffff811115611cc1575f80fd5b611ccd86828701611a51565b909790965060209590950135949350505050565b634e487b7160e01b5f52602160045260245ffd5b815181526020808301516001600160a01b03908116918301919091526040808401519091169082015260608083015190820152608082015160e082019060038110611d4257611d42611ce1565b8060808401525060a083015160a083015260c083015160c083015292915050565b60058110611d7357611d73611ce1565b9052565b60208152815160208201525f6020830151611d9d60408401826001600160a01b03169052565b5060408301516001600160a01b038116606084015250606083015160808301526080830151611dcf60a0840182611d63565b5060a083015180151560c08401525060c083015160e0838101919091528301516101008084019190915283015161012080840152611e11610140840182611bfa565b949350505050565b8051611e2481611a44565b919050565b5f60208284031215611e39575f80fd5b815161100081611a44565b5f60208284031215611e54575f80fd5b5051919050565b81835281816020850137505f828201602090810191909152601f909101601f19169091010190565b60018060a01b03861681528460208201528315156040820152608060608201525f611eb2608083018486611e5b565b979650505050505050565b60208082526016908201527521b0b63632b91034b9903737ba1030b71030b236b4b760511b604082015260600190565b634e487b7160e01b5f52604160045260245ffd5b604051610120810167ffffffffffffffff81118282101715611f2557611f25611eed565b60405290565b60405160a0810167ffffffffffffffff81118282101715611f2557611f25611eed565b60405160e0810167ffffffffffffffff81118282101715611f2557611f25611eed565b604051601f8201601f1916810167ffffffffffffffff81118282101715611f9a57611f9a611eed565b604052919050565b8051611e2481611a30565b805160058110611e24575f80fd5b5f82601f830112611fca575f80fd5b815167ffffffffffffffff811115611fe457611fe4611eed565b611ff7601f8201601f1916602001611f71565b81815284602083860101111561200b575f80fd5b611e11826020830160208701611bd8565b5f6020828403121561202c575f80fd5b815167ffffffffffffffff80821115612043575f80fd5b908301906101208286031215612057575f80fd5b61205f611f01565b8251815261206f60208401611fa2565b602082015261208060408401611fa2565b60408201526060830151606082015261209b60808401611fad565b60808201526120ac60a08401611e19565b60a082015260c083015160c082015260e083015160e082015261010080840151838111156120d8575f80fd5b6120e488828701611fbb565b918301919091525095945050505050565b838152604060208201525f6109e2604083018486611e5b565b5f602080838503121561211f575f80fd5b825167ffffffffffffffff80821115612136575f80fd5b818501915085601f830112612149575f80fd5b81518181111561215b5761215b611eed565b8060051b915061216c848301611f71565b8181529183018401918481019088841115612185575f80fd5b938501935b838510156121a35784518252938501939085019061218a565b98975050505050505050565b5f602082840312156121bf575f80fd5b815167ffffffffffffffff808211156121d6575f80fd5b9083019060a082860312156121e9575f80fd5b6121f1611f2b565b82516121fc81611a30565b815260208301518281111561220f575f80fd5b61221b87828601611fbb565b6020830152506040830151915061223182611a44565b816040820152606083015160608201526080830151608082015280935050505092915050565b604081525f61226a604083018587611e5b565b9050826020830152949350505050565b5f60e0828403121561228a575f80fd5b612292611f4e565b8251815260208301516122a481611a30565b602082015260408301516122b781611a30565b6040820152606083810151908201526080830151600381106122d7575f80fd5b608082015260a0838101519082015260c092830151928101929092525091905056fe14823911f2da1b49f045a0929a60b8c1f2a7fc8c06c7284ca3e8ab4e193a08c8a49807205ce4d355092ef5a8a18f56e8913cf4a201fbe287825b095693c21775a2646970667358221220820f2ad8d2f3091173fc67cc3c706d74c4d3d35e665a1cb402c8e41ca62cfc4164736f6c63430008180033608060405234801561000f575f80fd5b50338061003557604051631e4fbdf760e01b81525f600482015260240160405180910390fd5b61003e81610044565b50610093565b5f80546001600160a01b038381166001600160a01b0319831681178455604051919092169283917f8be0079c531659141344cd1fd0a4f28419497f9722a3daafe3b4186f6b6457e09190a35050565b610f93806100a05f395ff3fe608060405234801561000f575f80fd5b50600436106100b1575f3560e01c80638da5cb5b1161006e5780638da5cb5b146101685780638f75e6f1146101785780639b5e1a3b1461018b578063bb66e09d146101ae578063c83aca41146101c1578063f2fde38b146101d4575f80fd5b80630787bc27146100b5578063390bfd3c146100e257806346ce41751461010d57806355f21eb71461011e578063715018a61461013e5780637c27690114610148575b5f80fd5b6100c86100c3366004610a6d565b6101e7565b6040516100d9959493929190610add565b60405180910390f35b6100f56100f0366004610b1d565b6102ac565b6040516001600160a01b0390911681526020016100d9565b6002546040519081526020016100d9565b61013161012c366004610a6d565b6102d4565b6040516100d99190610b34565b6101466103f8565b005b61015b610156366004610b8d565b61040b565b6040516100d99190610bad565b5f546001600160a01b03166100f5565b610146610186366004610bf9565b6104f0565b61019e610199366004610a6d565b6105ad565b60405190151581526020016100d9565b6101466101bc366004610c18565b6105f2565b6101466101cf366004610c18565b61084c565b6101466101e2366004610a6d565b6109b5565b600160208190525f9182526040909120805491810180546001600160a01b039093169261021390610c89565b80601f016020809104026020016040519081016040528092919081815260200182805461023f90610c89565b801561028a5780601f106102615761010080835404028352916020019161028a565b820191905f5260205f20905b81548152906001019060200180831161026d57829003601f168201915b5050505060028301546003840154600490940154929360ff9091169290915085565b600281815481106102bb575f80fd5b5f918252602090912001546001600160a01b0316905081565b61030d6040518060a001604052805f6001600160a01b03168152602001606081526020015f151581526020015f81526020015f81525090565b6001600160a01b038083165f90815260016020818152604092839020835160a081019094528054909416835290830180549293929184019161034e90610c89565b80601f016020809104026020016040519081016040528092919081815260200182805461037a90610c89565b80156103c55780601f1061039c576101008083540402835291602001916103c5565b820191905f5260205f20905b8154815290600101906020018083116103a857829003601f168201915b5050509183525050600282015460ff16151560208201526003820154604082015260049091015460609091015292915050565b6104006109f2565b6104095f610a1e565b565b60605f6104188385610cd5565b60025490915081111561042a57506002545b5f6104358583610ce8565b67ffffffffffffffff81111561044d5761044d610cfb565b604051908082528060200260200182016040528015610476578160200160208202803683370190505b509050845b828110156104e5576002818154811061049657610496610d0f565b5f918252602090912001546001600160a01b0316826104b58884610ce8565b815181106104c5576104c5610d0f565b6001600160a01b039092166020928302919091019091015260010161047b565b509150505b92915050565b335f818152600160205260409020546001600160a01b0316146105565760405162461bcd60e51b81526020600482015260196024820152782737ba1030903932b3b4b9ba32b932b210383937bb34b232b960391b60448201526064015b60405180910390fd5b335f81815260016020908152604091829020600201805460ff191685151590811790915591519182527fba12349dad88aafa71cd9c0327899dbede49c7e7bd250d37de3099a8053d91ec910160405180910390a250565b6001600160a01b0381165f9081526001602052604081206002015460ff1680156104ea5750506001600160a01b039081165f9081526001602052604090205416151590565b816106375760405162461bcd60e51b815260206004820152601560248201527413595d1859185d1848155492481c995c5d5a5c9959605a1b604482015260640161054d565b5f81116106865760405162461bcd60e51b815260206004820152601b60248201527f52617465206d7573742062652067726561746572207468616e20300000000000604482015260640161054d565b335f908152600160205260409020546001600160a01b0316156106eb5760405162461bcd60e51b815260206004820152601b60248201527f50726f766964657220616c726561647920726567697374657265640000000000604482015260640161054d565b6040518060a00160405280336001600160a01b0316815260200184848080601f0160208091040260200160405190810160405280939291908181526020018383808284375f92018290525093855250506001602080850182905242604080870191909152606090950187905233845281815293909220845181546001600160a01b0319166001600160a01b039091161781559284015191830191610790915082610d6f565b506040828101516002838101805460ff1916921515929092179091556060840151600384015560809093015160049092019190915581546001810183555f929092527f405787fa12a823e0f2b7631cc41b3ba8828b3321ca811111fa75cd3aa3bb5ace9091018054336001600160a01b0319909116811790915590517f8f4e408b761b09adb21138e3ea4177944738112b3b1182e631e75084faf4c03b9061083f908690869086904290610e57565b60405180910390a2505050565b335f818152600160205260409020546001600160a01b0316146108ad5760405162461bcd60e51b81526020600482015260196024820152782737ba1030903932b3b4b9ba32b932b210383937bb34b232b960391b604482015260640161054d565b816108f25760405162461bcd60e51b815260206004820152601560248201527413595d1859185d1848155492481c995c5d5a5c9959605a1b604482015260640161054d565b5f81116109415760405162461bcd60e51b815260206004820152601b60248201527f52617465206d7573742062652067726561746572207468616e20300000000000604482015260640161054d565b335f908152600160208190526040909120908101610960848683610e7d565b5060048101829055600281015460405133917fc4f11c3e0bc091afe111960dbf68b893e6f90f20fe16455272a7131f8211dc34916109a7918891889160ff16908890610f37565b60405180910390a250505050565b6109bd6109f2565b6001600160a01b0381166109e657604051631e4fbdf760e01b81525f600482015260240161054d565b6109ef81610a1e565b50565b5f546001600160a01b031633146104095760405163118cdaa760e01b815233600482015260240161054d565b5f80546001600160a01b038381166001600160a01b0319831681178455604051919092169283917f8be0079c531659141344cd1fd0a4f28419497f9722a3daafe3b4186f6b6457e09190a35050565b5f60208284031215610a7d575f80fd5b81356001600160a01b0381168114610a93575f80fd5b9392505050565b5f81518084525f5b81811015610abe57602081850181015186830182015201610aa2565b505f602082860101526020601f19601f83011685010191505092915050565b6001600160a01b038616815260a0602082018190525f90610b0090830187610a9a565b941515604083015250606081019290925260809091015292915050565b5f60208284031215610b2d575f80fd5b5035919050565b602080825282516001600160a01b03168282015282015160a060408301525f90610b6160c0840182610a9a565b905060408401511515606084015260608401516080840152608084015160a08401528091505092915050565b5f8060408385031215610b9e575f80fd5b50508035926020909101359150565b602080825282518282018190525f9190848201906040850190845b81811015610bed5783516001600160a01b031683529284019291840191600101610bc8565b50909695505050505050565b5f60208284031215610c09575f80fd5b81358015158114610a93575f80fd5b5f805f60408486031215610c2a575f80fd5b833567ffffffffffffffff80821115610c41575f80fd5b818601915086601f830112610c54575f80fd5b813581811115610c62575f80fd5b876020828501011115610c73575f80fd5b6020928301989097509590910135949350505050565b600181811c90821680610c9d57607f821691505b602082108103610cbb57634e487b7160e01b5f52602260045260245ffd5b50919050565b634e487b7160e01b5f52601160045260245ffd5b808201808211156104ea576104ea610cc1565b818103818111156104ea576104ea610cc1565b634e487b7160e01b5f52604160045260245ffd5b634e487b7160e01b5f52603260045260245ffd5b601f821115610d6a57805f5260205f20601f840160051c81016020851015610d485750805b601f840160051c820191505b81811015610d67575f8155600101610d54565b50505b505050565b815167ffffffffffffffff811115610d8957610d89610cfb565b610d9d81610d978454610c89565b84610d23565b602080601f831160018114610dd0575f8415610db95750858301515b5f19600386901b1c1916600185901b178555610e27565b5f85815260208120601f198616915b82811015610dfe57888601518255948401946001909101908401610ddf565b5085821015610e1b57878501515f19600388901b60f8161c191681555b505060018460011b0185555b505050505050565b81835281816020850137505f828201602090810191909152601f909101601f19169091010190565b606081525f610e6a606083018688610e2f565b6020830194909452506040015292915050565b67ffffffffffffffff831115610e9557610e95610cfb565b610ea983610ea38354610c89565b83610d23565b5f601f841160018114610eda575f8515610ec35750838201355b5f19600387901b1c1916600186901b178355610d67565b5f83815260208120601f198716915b82811015610f095786850135825560209485019460019092019101610ee9565b5086821015610f25575f1960f88860031b161c19848701351681555b505060018560011b0183555050505050565b606081525f610f4a606083018688610e2f565b931515602083015250604001529291505056fea26469706673582212202367348ba072636adec5187e156c0c585d003e7340797bfddaa74eb83a20b89164736f6c63430008180033608060405234801561000f575f80fd5b50338061003557604051631e4fbdf760e01b81525f600482015260240160405180910390fd5b61003e81610044565b50610093565b5f80546001600160a01b038381166001600160a01b0319831681178455604051919092169283917f8be0079c531659141344cd1fd0a4f28419497f9722a3daafe3b4186f6b6457e09190a35050565b611551806100a05f395ff3fe608060405234801561000f575f80fd5b5060043610610106575f3560e01c80638da5cb5b1161009e578063ce02dd7d1161006e578063ce02dd7d14610228578063eafa57e91461023b578063f2640b5e1461024e578063f2fde38b14610261578063f729cf0d14610274575f80fd5b80638da5cb5b146101d5578063927a831b146101ef578063991e013914610202578063b894879014610215575f80fd5b80633a917feb116100d95780633a917feb1461018e578063437505bf146101a3578063715018a6146101c35780637b27b2f5146101cb575f80fd5b80630b470fa91461010a5780630c33c522146101325780632661f6cc1461015357806338ed7cfc14610166575b5f80fd5b61011d61011836600461100f565b610294565b60405190151581526020015b60405180910390f35b61014561014036600461100f565b6102e1565b604051908152602001610129565b610145610161366004611086565b610300565b61017961017436600461100f565b61066b565b6040516101299998979695949392919061116d565b6101a161019c3660046111d6565b61074d565b005b6101b66101b136600461121e565b6108d6565b6040516101299190611237565b6101a161093f565b61014562278d0081565b5f546040516001600160a01b039091168152602001610129565b6101456101fd36600461127a565b610952565b6101a161021036600461100f565b61097d565b6101a161022336600461100f565b610b0f565b61014561023636600461127a565b610c62565b6101a161024936600461100f565b610c7b565b6101b661025c36600461121e565b610d5c565b6101a161026f36600461121e565b610dc3565b61028761028236600461100f565b610e00565b60405161012991906112a2565b5f81815260016020526040812060049081015460ff16908160048111156102bd576102bd6110f6565b14806102da575060038160048111156102d8576102d86110f6565b145b9392505050565b600281815481106102f0575f80fd5b5f91825260209091200154905081565b5f6001600160a01b03861661035c5760405162461bcd60e51b815260206004820152601860248201527f496e76616c69642070726f76696465722061646472657373000000000000000060448201526064015b60405180910390fd5b5f85116103ab5760405162461bcd60e51b815260206004820152601d60248201527f416d6f756e74206d7573742062652067726561746572207468616e20300000006044820152606401610353565b6104023387426040516bffffffffffffffffffffffff19606085811b8216602084015284901b166034820152604881018290525f906068016040516020818303038152906040528051906020012090509392505050565b5f818152600160205260409020549091508190036104575760405162461bcd60e51b81526020600482015260126024820152714a6f6220616c72656164792065786973747360701b6044820152606401610353565b60408051610120810182528281523360208201526001600160a01b0388169181019190915260608101869052608081015f815260200185151581526020014281526020015f815260200184848080601f0160208091040260200160405190810160405280939291908181526020018383808284375f92018290525093909452505083815260016020818152604092839020855181559085015181830180546001600160a01b03199081166001600160a01b039384161790915593860151600283018054909516911617909255606084015160038301556080840151600480840180549495509193919260ff1990921691908490811115610559576105596110f6565b021790555060a082015160048201805461ff001916610100921515830217905560c0830151600583015560e08301516006830155820151600782019061059f90826113dc565b50506002805460018082019092557f405787fa12a823e0f2b7631cc41b3ba8828b3321ca811111fa75cd3aa3bb5ace01839055335f81815260036020908152604080832080548087018255908452828420018790556001600160a01b038c16808452600483528184208054968701815584529282902090940186905583518a81528915159181019190915242818501529251909350909184917f98a9d358bab20f69b57207311a76c56ec063cadbc4f049c441dfcba5f9535af19181900360600190a495945050505050565b600160208190525f9182526040909120805491810154600282015460038301546004840154600585015460068601546007870180546001600160a01b03978816989790961696949560ff80861696610100909604169491906106cc90611358565b80601f01602080910402602001604051908101604052809291908181526020018280546106f890611358565b80156107435780601f1061071a57610100808354040283529160200191610743565b820191905f5260205f20905b81548152906001019060200180831161072657829003601f168201915b5050505050905089565b5f838152600160205260409020548390811461077b5760405162461bcd60e51b81526004016103539061149c565b5f848152600160208190526040909120908101546001600160a01b03163314806107b1575060028101546001600160a01b031633145b6108095760405162461bcd60e51b815260206004820152602360248201527f4f6e6c79206275796572206f722070726f76696465722063616e206661696c206044820152623537b160e91b6064820152608401610353565b5f60048083015460ff1690811115610823576108236110f6565b14806108475750600160048083015460ff1690811115610845576108456110f6565b145b6108845760405162461bcd60e51b815260206004820152600e60248201526d496e76616c69642073746174757360901b6044820152606401610353565b60048101805460ff1916600317905560405185907f0d64e3040027d75c3682a1783051bdcac4bda50d37973a650a2117a153b9f1e6906108c790879087906114c8565b60405180910390a25050505050565b6001600160a01b0381165f9081526003602090815260409182902080548351818402810184019094528084526060939283018282801561093357602002820191905f5260205f20905b81548152602001906001019080831161091f575b50505050509050919050565b610947610f94565b6109505f610fc0565b565b6004602052815f5260405f20818154811061096b575f80fd5b905f5260205f20015f91509150505481565b5f81815260016020526040902054819081146109ab5760405162461bcd60e51b81526004016103539061149c565b5f82815260016020526040902060028101546001600160a01b03163314610a145760405162461bcd60e51b815260206004820152601a60248201527f4f6e6c792070726f76696465722063616e20636f6d706c6574650000000000006044820152606401610353565b600160048083015460ff1690811115610a2f57610a2f6110f6565b14610a6d5760405162461bcd60e51b815260206004820152600e60248201526d4a6f62206e6f742061637469766560901b6044820152606401610353565b62278d00816005015442610a8191906114f6565b1115610abd5760405162461bcd60e51b815260206004820152600b60248201526a129bd888195e1c1a5c995960aa1b6044820152606401610353565b60048101805460ff19166002179055426006820181905560405190815283907f9b5ed714c31dfcb1a9397710b6fc1842f37d94ab5dc0ccb528d9a2c97ea76f2a906020015b60405180910390a2505050565b5f8181526001602052604090205481908114610b3d5760405162461bcd60e51b81526004016103539061149c565b5f82815260016020526040902060028101546001600160a01b03163314610bb05760405162461bcd60e51b815260206004820152602160248201527f4f6e6c792061737369676e65642070726f76696465722063616e2061636365706044820152601d60fa1b6064820152608401610353565b5f60048083015460ff1690811115610bca57610bca6110f6565b14610c175760405162461bcd60e51b815260206004820152601860248201527f4a6f62206e6f7420696e2070656e64696e6720737461746500000000000000006044820152606401610353565b60048101805460ff19166001179055604051428152339084907fd2db40975c939910f59ac7aa8c8f2cd5a28a7cda5aea9fe19dcfe3259db2bdc49060200160405180910390a3505050565b6003602052815f5260405f20818154811061096b575f80fd5b610c83610f94565b5f8181526001602052604090205481908114610cb15760405162461bcd60e51b81526004016103539061149c565b5f828152600160205260409020600260048083015460ff1690811115610cd957610cd96110f6565b14610d1a5760405162461bcd60e51b8152602060048201526011602482015270129bd8881b9bdd0818dbdb5c1b195d1959607a1b6044820152606401610353565b6004818101805460ff1916909117905560405142815283907f274f4d415f3351e4e45f4a0b7f4f3dff2cd72eaa33fdc2b0cdf63ab8a2915cda90602001610b02565b6001600160a01b0381165f9081526004602090815260409182902080548351818402810184019094528084526060939283018282801561093357602002820191905f5260205f209081548152602001906001019080831161091f5750505050509050919050565b610dcb610f94565b6001600160a01b038116610df457604051631e4fbdf760e01b81525f6004820152602401610353565b610dfd81610fc0565b50565b610e4d60408051610120810182525f808252602082018190529181018290526060810182905290608082019081526020015f151581526020015f81526020015f8152602001606081525090565b5f8281526001602081815260409283902083516101208101855281548152928101546001600160a01b039081169284019290925260028101549091169282019290925260038201546060820152600480830154919291608084019160ff90911690811115610ebd57610ebd6110f6565b6004811115610ece57610ece6110f6565b81526004820154610100900460ff16151560208201526005820154604082015260068201546060820152600782018054608090920191610f0d90611358565b80601f0160208091040260200160405190810160405280929190818152602001828054610f3990611358565b8015610f845780601f10610f5b57610100808354040283529160200191610f84565b820191905f5260205f20905b815481529060010190602001808311610f6757829003601f168201915b5050505050815250509050919050565b5f546001600160a01b031633146109505760405163118cdaa760e01b8152336004820152602401610353565b5f80546001600160a01b038381166001600160a01b0319831681178455604051919092169283917f8be0079c531659141344cd1fd0a4f28419497f9722a3daafe3b4186f6b6457e09190a35050565b5f6020828403121561101f575f80fd5b5035919050565b80356001600160a01b038116811461103c575f80fd5b919050565b5f8083601f840112611051575f80fd5b50813567ffffffffffffffff811115611068575f80fd5b60208301915083602082850101111561107f575f80fd5b9250929050565b5f805f805f6080868803121561109a575f80fd5b6110a386611026565b945060208601359350604086013580151581146110be575f80fd5b9250606086013567ffffffffffffffff8111156110d9575f80fd5b6110e588828901611041565b969995985093965092949392505050565b634e487b7160e01b5f52602160045260245ffd5b6005811061112657634e487b7160e01b5f52602160045260245ffd5b9052565b5f81518084525f5b8181101561114e57602081850181015186830182015201611132565b505f602082860101526020601f19601f83011685010191505092915050565b8981526001600160a01b03898116602083015288166040820152606081018790525f61012061119f608084018961110a565b86151560a08401528560c08401528460e0840152806101008401526111c68184018561112a565b9c9b505050505050505050505050565b5f805f604084860312156111e8575f80fd5b83359250602084013567ffffffffffffffff811115611205575f80fd5b61121186828701611041565b9497909650939450505050565b5f6020828403121561122e575f80fd5b6102da82611026565b602080825282518282018190525f9190848201906040850190845b8181101561126e57835183529284019291840191600101611252565b50909695505050505050565b5f806040838503121561128b575f80fd5b61129483611026565b946020939093013593505050565b60208152815160208201525f60208301516112c860408401826001600160a01b03169052565b5060408301516001600160a01b0381166060840152506060830151608083015260808301516112fa60a084018261110a565b5060a083015180151560c08401525060c083015160e083810191909152830151610100808401919091528301516101208084015261133c61014084018261112a565b949350505050565b634e487b7160e01b5f52604160045260245ffd5b600181811c9082168061136c57607f821691505b60208210810361138a57634e487b7160e01b5f52602260045260245ffd5b50919050565b601f8211156113d757805f5260205f20601f840160051c810160208510156113b55750805b601f840160051c820191505b818110156113d4575f81556001016113c1565b50505b505050565b815167ffffffffffffffff8111156113f6576113f6611344565b61140a816114048454611358565b84611390565b602080601f83116001811461143d575f84156114265750858301515b5f19600386901b1c1916600185901b178555611494565b5f85815260208120601f198616915b8281101561146b5788860151825594840194600190910190840161144c565b508582101561148857878501515f19600388901b60f8161c191681555b505060018460011b0185555b505050505050565b602080825260129082015271129bd888191bd95cc81b9bdd08195e1a5cdd60721b604082015260600190565b60208152816020820152818360408301375f818301604090810191909152601f909201601f19160101919050565b8181038181111561151557634e487b7160e01b5f52601160045260245ffd5b9291505056fea26469706673582212207dd3caef9393945dbc7cf4d96ebf90032ceb1b442584ee539340992e1b473f9e64736f6c63430008180033608060405234801561000f575f80fd5b5060405161127038038061127083398101604081905261002e9161012e565b60015f55338061005857604051631e4fbdf760e01b81525f60048201526024015b60405180910390fd5b610061816100dd565b506001600160a01b0381166100b85760405162461bcd60e51b815260206004820152601a60248201527f496e76616c6964205553444320746f6b656e2061646472657373000000000000604482015260640161004f565b600380546001600160a01b0319166001600160a01b039290921691909117905561015b565b600180546001600160a01b038381166001600160a01b0319831681179093556040519116919082907f8be0079c531659141344cd1fd0a4f28419497f9722a3daafe3b4186f6b6457e0905f90a35050565b5f6020828403121561013e575f80fd5b81516001600160a01b0381168114610154575f80fd5b9392505050565b611108806101685f395ff3fe608060405234801561000f575f80fd5b50600436106100ef575f3560e01c8063715018a61161009357806395ccea671161006357806395ccea671461023a578063c92ee0431461024d578063f023b81114610260578063f2fde38b14610280575f80fd5b8063715018a6146102045780637249fbb61461020c5780637d57900a1461021f5780638da5cb5b14610229575f80fd5b806323682c47116100ce57806323682c471461014b5780632d83549c1461015e57806339ebb8b0146101cb5780636f9fb98a146101ee575f80fd5b8062dc34c1146100f357806302288cda1461010857806311eac8551461011b575b5f80fd5b610106610101366004610ed8565b610293565b005b610106610116366004610ef8565b610371565b60035461012e906001600160a01b031681565b6040516001600160a01b0390911681526020015b60405180910390f35b60045461012e906001600160a01b031681565b6101b861016c366004610f2a565b600260208190525f9182526040909120805460018201549282015460038301546004840154600585015460069095015493956001600160a01b0390811695931693919260ff9091169187565b6040516101429796959493929190610f75565b6101de6101d9366004610f2a565b61067c565b6040519015158152602001610142565b6101f66106c3565b604051908152602001610142565b610106610732565b61010661021a366004610f2a565b610745565b6101f662093a8081565b6001546001600160a01b031661012e565b610106610248366004610fbc565b6109ee565b61010661025b366004610f2a565b610ae3565b61027361026e366004610f2a565b610d05565b6040516101429190610fe4565b61010661028e366004610ed8565b610ddd565b61029b610e17565b6001600160a01b0381166102f65760405162461bcd60e51b815260206004820152601b60248201527f496e76616c6964204a6f6252656769737472792061646472657373000000000060448201526064015b60405180910390fd5b6004546001600160a01b03161561034f5760405162461bcd60e51b815260206004820152601760248201527f4a6f62526567697374727920616c72656164792073657400000000000000000060448201526064016102ed565b600480546001600160a01b0319166001600160a01b0392909216919091179055565b610379610e44565b6001600160a01b0382166103cf5760405162461bcd60e51b815260206004820152601860248201527f496e76616c69642070726f76696465722061646472657373000000000000000060448201526064016102ed565b5f811161041e5760405162461bcd60e51b815260206004820152601d60248201527f416d6f756e74206d7573742062652067726561746572207468616e203000000060448201526064016102ed565b5f838152600260205260409020548390036104735760405162461bcd60e51b8152602060048201526015602482015274457363726f7720616c72656164792065786973747360581b60448201526064016102ed565b6003546040516323b872dd60e01b8152336004820152306024820152604481018390525f916001600160a01b0316906323b872dd906064016020604051808303815f875af11580156104c7573d5f803e3d5ffd5b505050506040513d601f19601f820116820180604052508101906104eb9190611048565b9050806105315760405162461bcd60e51b81526020600482015260146024820152731554d110c81d1c985b9cd9995c8819985a5b195960621b60448201526064016102ed565b6040805160e0810182528581523360208201526001600160a01b0385169181019190915260608101839052608081015f815260200142815260200162093a804261057b9190611067565b90525f858152600260208181526040928390208451815590840151600180830180546001600160a01b039384166001600160a01b03199182161790915594860151838501805491909316951694909417905560608401516003820155608084015160048201805492949193909260ff1916919084908111156105ff576105ff610f41565b021790555060a0820151600582015560c0909101516006909101556001600160a01b03831633857fc7c17d24e92a04692e0e18ca8dc562d2455b7c6710ba21eeb09fc9817cea79138561065562093a8042611067565b6040805192835260208301919091520160405180910390a45061067760015f55565b505050565b5f81815260026020526040812054829081146106aa5760405162461bcd60e51b81526004016102ed9061108c565b50505f9081526002602052604090206006015442101590565b6003546040516370a0823160e01b81523060048201525f916001600160a01b0316906370a0823190602401602060405180830381865afa158015610709573d5f803e3d5ffd5b505050506040513d601f19601f8201168201806040525081019061072d91906110bb565b905090565b61073a610e17565b6107435f610e6c565b565b61074d610e44565b5f818152600260205260409020548190811461077b5760405162461bcd60e51b81526004016102ed9061108c565b5f82815260026020526040812090600482015460ff1660028111156107a2576107a2610f41565b146107e25760405162461bcd60e51b815260206004820152601060248201526f119d5b991cc81b9bdd081b1bd8dad95960821b60448201526064016102ed565b60018101546001600160a01b031633148061080757506001546001600160a01b031633145b6108535760405162461bcd60e51b815260206004820152601e60248201527f4f6e6c79206275796572206f72206f776e65722063616e20726566756e64000060448201526064016102ed565b60018101546001600160a01b031633036108bb5780600601544210156108bb5760405162461bcd60e51b815260206004820152601a60248201527f526566756e642074696d656f7574206e6f74207265616368656400000000000060448201526064016102ed565b6004818101805460ff191660021790556003805460018401549184015460405163a9059cbb60e01b81526001600160a01b039384169481019490945260248401525f9291169063a9059cbb906044016020604051808303815f875af1158015610926573d5f803e3d5ffd5b505050506040513d601f19601f8201168201806040525081019061094a9190611048565b90508061098e5760405162461bcd60e51b81526020600482015260126024820152711554d110c81c99599d5b990819985a5b195960721b60448201526064016102ed565b60018201546003830154604080519182524260208301526001600160a01b039092169186917f9c27c67f05d2d2161414e61f59fe8b535d0edcaeffa1fb9ebc653f02cf6e9f6291015b60405180910390a35050506109eb60015f55565b50565b6109f6610e17565b6003546001600160a01b0390811690831603610a545760405162461bcd60e51b815260206004820152601b60248201527f43616e6e6f74207769746864726177206c6f636b65642055534443000000000060448201526064016102ed565b816001600160a01b031663a9059cbb610a756001546001600160a01b031690565b6040516001600160e01b031960e084901b1681526001600160a01b039091166004820152602481018490526044016020604051808303815f875af1158015610abf573d5f803e3d5ffd5b505050506040513d601f19601f820116820180604052508101906106779190611048565b6004546001600160a01b03163314610b3d5760405162461bcd60e51b815260206004820152601960248201527f4f6e6c79204a6f6252656769737472792063616e2063616c6c0000000000000060448201526064016102ed565b610b45610e44565b5f8181526002602052604090205481908114610b735760405162461bcd60e51b81526004016102ed9061108c565b5f82815260026020526040812090600482015460ff166002811115610b9a57610b9a610f41565b14610bda5760405162461bcd60e51b815260206004820152601060248201526f119d5b991cc81b9bdd081b1bd8dad95960821b60448201526064016102ed565b6004818101805460ff191660011790556003805460028401549184015460405163a9059cbb60e01b81526001600160a01b039384169481019490945260248401525f9291169063a9059cbb906044016020604051808303815f875af1158015610c45573d5f803e3d5ffd5b505050506040513d601f19601f82011682018060405250810190610c699190611048565b905080610cb85760405162461bcd60e51b815260206004820181905260248201527f55534443207472616e7366657220746f2070726f7669646572206661696c656460448201526064016102ed565b60028201546003830154604080519182524260208301526001600160a01b039092169186917f06823cbbe3d86b8d3bc32f4679210e4ff0a8b1bf495ca5889fffc53b19c6add491016109d7565b610d426040805160e0810182525f808252602082018190529181018290526060810182905290608082019081526020015f81526020015f81525090565b5f82815260026020818152604092839020835160e0810185528154815260018201546001600160a01b03908116938201939093528184015490921693820193909352600383015460608201526004830154909291608084019160ff1690811115610dae57610dae610f41565b6002811115610dbf57610dbf610f41565b81526005820154602082015260069091015460409091015292915050565b610de5610e17565b6001600160a01b038116610e0e57604051631e4fbdf760e01b81525f60048201526024016102ed565b6109eb81610e6c565b6001546001600160a01b031633146107435760405163118cdaa760e01b81523360048201526024016102ed565b60025f5403610e6657604051633ee5aeb560e01b815260040160405180910390fd5b60025f55565b600180546001600160a01b038381166001600160a01b0319831681179093556040519116919082907f8be0079c531659141344cd1fd0a4f28419497f9722a3daafe3b4186f6b6457e0905f90a35050565b80356001600160a01b0381168114610ed3575f80fd5b919050565b5f60208284031215610ee8575f80fd5b610ef182610ebd565b9392505050565b5f805f60608486031215610f0a575f80fd5b83359250610f1a60208501610ebd565b9150604084013590509250925092565b5f60208284031215610f3a575f80fd5b5035919050565b634e487b7160e01b5f52602160045260245ffd5b60038110610f7157634e487b7160e01b5f52602160045260245ffd5b9052565b8781526001600160a01b038781166020830152861660408201526060810185905260e08101610fa76080830186610f55565b60a082019390935260c0015295945050505050565b5f8060408385031215610fcd575f80fd5b610fd683610ebd565b946020939093013593505050565b5f60e08201905082518252602083015160018060a01b038082166020850152806040860151166040850152505060608301516060830152608083015161102d6080840182610f55565b5060a083015160a083015260c083015160c083015292915050565b5f60208284031215611058575f80fd5b81518015158114610ef1575f80fd5b8082018082111561108657634e487b7160e01b5f52601160045260245ffd5b92915050565b602080825260159082015274115cd8dc9bddc8191bd95cc81b9bdd08195e1a5cdd605a1b604082015260600190565b5f602082840312156110cb575f80fd5b505191905056fea26469706673582212205d76b4ab7d4c72a16b43e58c1c30248bd6d262ea80e5c2544a1216ed5c0d328264736f6c63430008180033",
  "linkReferences": {},
  "deployedLinkReferences": {}
}