{
  "_format": "hh-sol-artifact-1",
  "contractName": "JobRegistry",
  "sourceName": "contracts/JobRegistry.sol",
  "abi": [
    {
      "inputs": [],
      "stateMutability": "nonpayable",
      "type": "constructor"
    },
    {
      "inputs": [
        {
          "internalType": "address",
          "name": "owner",
          "type": "address"
        }
      ],
      "name": "OwnableInvalidOwner",
      "type": "error"
    },
    {
      "inputs": [
        {
          "internalType": "address",
          "name": "account",
          "type": "address"
        }
      ],
      "name": "OwnableUnauthorizedAccount",
      "type": "error"
    },
    {
      "anonymous": false,
      "inputs": [
        {
          "indexed": true,
          "internalType": "bytes32",
          "name": "jobId",
          "type": "bytes32"
        },
        {
          "indexed": true,
          "internalType": "address",
          "name": "provider",
          "type": "address"
        },
        {
          "indexed": false,
          "internalType": "uint256",
          "name": "acceptedAt",
          "type": "uint256"
        }
      ],
      "name": "JobAccepted",
      "type": "event"
    },
    {
      "anonymous": false,
      "inputs": [
        {
          "indexed": true,
          "internalType": "bytes32",
          "name": "jobId",
          "type": "bytes32"
        },
        {
          "indexed": false,
          "internalType": "uint256",
          "name": "completedAt",
          "type": "uint256"
        }
      ],
      "name": "JobCompleted",
      "type": "event"
    },
    {
      "anonymous": false,
      "inputs": [
        {
          "indexed": true,
          "internalType": "bytes32",
          "name": "jobId",
          "type": "bytes32"
        },
        {
          "indexed": true,
          "internalType": "address",
          "name": "buyer",
          "type": "address"
        },
        {
          "indexed": true,
          "internalType": "address",
          "name": "provider",
          "type": "address"
        },
        {
          "indexed": false,
          "internalType": "uint256",
          "name": "amount",
          "type": "uint256"
        },
        {
          "indexed": false,
          "internalType": "bool",
          "name": "tracked",
          "type": "bool"
        },
        {
          "indexed": false,
          "internalType": "uint256",
          "name": "createdAt",
          "type": "uint256"
        }
      ],
      "name": "JobCreated",
      "type": "event"
    },
    {
      "anonymous": false,
      "inputs": [
        {
          "indexed": true,
          "internalType": "bytes32",
          "name": "jobId",
          "type": "bytes32"
        },
        {
          "indexed": false,
          "internalType": "string",
          "name": "reason",
          "type": "string"
        }
      ],
      "name": "JobFailed",
      "type": "event"
    },
    {
      "anonymous": false,
      "inputs": [
        {
          "indexed": true,
          "internalType": "bytes32",
          "name": "jobId",
          "type": "bytes32"
        },
        {
          "indexed": false,
          "internalType": "uint256",
          "name": "settledAt",
          "type": "uint256"
        }
      ],
      "name": "JobSettled",
      "type": "event"
    },
    {
      "anonymous": false,
      "inputs": [
        {
          "indexed": true,
          "internalType": "address",
          "name": "previousOwner",
          "type": "address"
        },
        {
          "indexed": true,
          "internalType": "address",
          "name": "newOwner",
          "type": "address"
        }
      ],
      "name": "OwnershipTransferred",
      "type": "event"
    },
    {
      "inputs": [],
      "name": "MAX_JOB_DURATION",
      "outputs": [
        {
          "internalType": "uint256",
          "name": "",
          "type": "uint256"
        }
      ],
      "stateMutability": "view",
      "type": "function"
    },
    {
      "inputs": [
        {
          "internalType": "bytes32",
          "name": "jobId",
          "type": "bytes32"
        }
      ],
      "name": "acceptJob",
      "outputs": [],
      "stateMutability": "nonpayable",
      "type": "function"
    },
    {
      "inputs": [
        {
          "internalType": "address",
          "name": "",
          "type": "address"
        },
        {
          "internalType": "uint256",
          "name": "",
          "type": "uint256"
        }
      ],
      "name": "buyerJobs",
      "outputs": [
        {
          "internalType": "bytes32",
          "name": "",
          "type": "bytes32"
        }
      ],
      "stateMutability": "view",
      "type": "function"
    },
    {
      "inputs": [
        {
          "internalType": "bytes32",
          "name": "jobId",
          "type": "bytes32"
        }
      ],
      "name": "completeJob",
      "outputs": [],
      "stateMutability": "nonpayable",
      "type": "function"
    },
    {
      "inputs": [
        {
          "internalType": "address",
          "name": "provider",
          "type": "address"
        },
        {
          "internalType": "uint256",
          "name": "amount",
          "type": "uint256"
        },
        {
          "internalType": "bool",
          "name": "tracked",
          "type": "bool"
        },
        {
          "internalType": "string",
          "name": "reasoningHash",
          "type": "string"
        }
      ],
      "name": "createJob",
      "outputs": [
        {
          "internalType": "bytes32",
          "name": "jobId",
          "type": "bytes32"
        }
      ],
      "stateMutability": "nonpayable",
      "type": "function"
    },
    {
      "inputs": [
        {
          "internalType": "bytes32",
          "name": "jobId",
          "type": "bytes32"
        },
        {
          "internalType": "string",
          "name": "reason",
          "type": "string"
        }
      ],
      "name": "failJob",
      "outputs": [],
      "stateMutability": "nonpayable",
      "type": "function"
    },
    {
      "inputs": [
        {
          "internalType": "address",
          "name": "buyer",
          "type": "address"
        }
      ],
      "name": "getBuyerJobs",
      "outputs": [
        {
          "internalType": "bytes32[]",
          "name": "",
          "type": "bytes32[]"
        }
      ],
      "stateMutability": "view",
      "type": "function"
    },
    {
      "inputs": [
        {
          "internalType": "bytes32",
          "name": "jobId",
          "type": "bytes32"
        }
      ],
      "name": "getJob",
      "outputs": [
        {
          "components": [
            {
              "internalType": "bytes32",
              "name": "id",
              "type": "bytes32"
            },
            {
              "internalType": "address",
              "name": "buyer",
              "type": "address"
            },
            {
              "internalType": "address",
              "name": "provider",
              "type": "address"
            },
            {
              "internalType": "uint256",
              "name": "amount",
              "type": "uint256"
            },
            {
              "internalType": "enum JobRegistry.JobStatus",
              "name": "status",
              "type": "uint8"
            },
            {
              "internalType": "bool",
              "name": "tracked",
              "type": "bool"
            },
            {
              "internalType": "uint256",
              "name": "createdAt",
              "type": "uint256"
            },
            {
              "internalType": "uint256",
              "name": "completedAt",
              "type": "uint256"
            },
            {
              "internalType": "string",
              "name": "reasoningHash",
              "type": "string"
            }
          ],
          "internalType": "struct JobRegistry.Job",
          "name": "",
          "type": "tuple"
        }
      ],
      "stateMutability": "view",
      "type": "function"
    },
    {
      "inputs": [
        {
          "internalType": "address",
          "name": "provider",
          "type": "address"
        }
      ],
      "name": "getProviderJobs",
      "outputs": [
        {
          "internalType": "bytes32[]",
          "name": "",
          "type": "bytes32[]"
        }
      ],
      "stateMutability": "view",
      "type": "function"
    },
    {
      "inputs": [
        {
          "internalType": "bytes32",
          "name": "jobId",
          "type": "bytes32"
        }
      ],
      "name": "isJobFinalized",
      "outputs": [
        {
          "internalType": "bool",
          "name": "",
          "type": "bool"
        }
      ],
      "stateMutability": "view",
      "type": "function"
    },
    {
      "inputs": [
        {
          "internalType": "uint256",
          "name": "",
          "type": "uint256"
        }
      ],
      "name": "jobList",
      "outputs": [
        {
          "internalType": "bytes32",
          "name": "",
          "type": "bytes32"
        }
      ],
      "stateMutability": "view",
      "type": "function"
    },
    {
      "inputs": [
        {
          "internalType": "bytes32",
          "name": "",
          "type": "bytes32"
        }
      ],
      "name": "jobs",
      "outputs": [
        {
          "internalType": "bytes32",
          "name": "id",
          "type": "bytes32"
        },
        {
          "internalType": "address",
          "name": "buyer",
          "type": "address"
        },
        {
          "internalType": "address",
          "name": "provider",
          "type": "address"
        },
        {
          "internalType": "uint256",
          "name": "amount",
          "type": "uint256"
        },
        {
          "internalType": "enum JobRegistry.JobStatus",
          "name": "status",
          "type": "uint8"
        },
        {
          "internalType": "bool",
          "name": "tracked",
          "type": "bool"
        },
        {
          "internalType": "uint256",
          "name": "createdAt",
          "type": "uint256"
        },
        {
          "internalType": "uint256",
          "name": "completedAt",
          "type": "uint256"
        },
        {
          "internalType": "string",
          "name": "reasoningHash",
          "type": "string"
        }
      ],
      "stateMutability": "view",
      "type": "function"
    },
    {
      "inputs": [],
      "name": "owner",
      "outputs": [
        {
          "internalType": "address",
          "name": "",
          "type": "address"
        }
      ],
      "stateMutability": "view",
      "type": "function"
    },
    {
      "inputs": [
        {
          "internalType": "address",
          "name": "",
          "type": "address"
        },
        {
          "internalType": "uint256",
          "name": "",
          "type": "uint256"
        }
      ],
      "name": "providerJobs",
      "outputs": [
        {
          "internalType": "bytes32",
          "name": "",
          "type": "bytes32"
        }
      ],
      "stateMutability": "view",
      "type": "function"
    },
    {
      "inputs": [],
      "name": "renounceOwnership",
      "outputs": [],
      "stateMutability": "nonpayable",
      "type": "function"
    },
    {
      "inputs": [
        {
          "internalType": "bytes32",
          "name": "jobId",
          "type": "bytes32"
        }
      ],
      "name": "settleJob",
      "outputs": [],
      "stateMutability": "nonpayable",
      "type": "function"
    },
    {
      "inputs": [
        {
          "internalType": "address",
          "name": "newOwner",
          "type": "address"
        }
      ],
      "name": "transferOwnership",
      "outputs": [],
      "stateMutability": "nonpayable",
      "type": "function"
    }
  ],
  "bytecode": "0x608060405234801561000f575f80fd5b50338061003557604051631e4fbdf760e01b81525f600482015260240160405180910390fd5b61003e81610044565b50610093565b5f80546001600160a01b038381166001600160a01b0319831681178455604051919092169283917f8be0079c531659141344cd1fd0a4f28419497f9722a3daafe3b4186f6b6457e09190a35050565b611551806100a05f395ff3fe608060405234801561000f575f80fd5b5060043610610106575f3560e01c80638da5cb5b1161009e578063ce02dd7d1161006e578063ce02dd7d14610228578063eafa57e91461023b578063f2640b5e1461024e578063f2fde38b14610261578063f729cf0d14610274575f80fd5b80638da5cb5b146101d5578063927a831b146101ef578063991e013914610202578063b894879014610215575f80fd5b80633a917feb116100d95780633a917feb1461018e578063437505bf146101a3578063715018a6146101c35780637b27b2f5146101cb575f80fd5b80630b470fa91461010a5780630c33c522146101325780632661f6cc1461015357806338ed7cfc14610166575b5f80fd5b61011d61011836600461100f565b610294565b60405190151581526020015b60405180910390f35b61014561014036600461100f565b6102e1565b604051908152602001610129565b610145610161366004611086565b610300565b61017961017436600461100f565b61066b565b6040516101299998979695949392919061116d565b6101a161019c3660046111d6565b61074d565b005b6101b66101b136600461121e565b6108d6565b6040516101299190611237565b6101a161093f565b61014562278d0081565b5f546040516001600160a01b039091168152602001610129565b6101456101fd36600461127a565b610952565b6101a161021036600461100f565b61097d565b6101a161022336600461100f565b610b0f565b61014561023636600461127a565b610c62565b6101a161024936600461100f565b610c7b565b6101b661025c36600461121e565b610d5c565b6101a161026f36600461121e565b610dc3565b61028761028236600461100f565b610e00565b60405161012991906112a2565b5f81815260016020526040812060049081015460ff16908160048111156102bd576102bd6110f6565b14806102da575060038160048111156102d8576102d86110f6565b145b9392505050565b600281815481106102f0575f80fd5b5f91825260209091200154905081565b5f6001600160a01b03861661035c5760405162461bcd60e51b815260206004820152601860248201527f496e76616c69642070726f76696465722061646472657373000000000000000060448201526064015b60405180910390fd5b5f85116103ab5760405162461bcd60e51b815260206004820152601d60248201527f416d6f756e74206d7573742062652067726561746572207468616e20300000006044820152606401610353565b6104023387426040516bffffffffffffffffffffffff19606085811b8216602084015284901b166034820152604881018290525f906068016040516020818303038152906040528051906020012090509392505050565b5f818152600160205260409020549091508190036104575760405162461bcd60e51b81526020600482015260126024820152714a6f6220616c72656164792065786973747360701b6044820152606401610353565b60408051610120810182528281523360208201526001600160a01b0388169181019190915260608101869052608081015f815260200185151581526020014281526020015f815260200184848080601f0160208091040260200160405190810160405280939291908181526020018383808284375f92018290525093909452505083815260016020818152604092839020855181559085015181830180546001600160a01b03199081166001600160a01b039384161790915593860151600283018054909516911617909255606084015160038301556080840151600480840180549495509193919260ff1990921691908490811115610559576105596110f6565b021790555060a082015160048201805461ff001916610100921515830217905560c0830151600583015560e08301516006830155820151600782019061059f90826113dc565b50506002805460018082019092557f405787fa12a823e0f2b7631cc41b3ba8828b3321ca811111fa75cd3aa3bb5ace01839055335f81815260036020908152604080832080548087018255908452828420018790556001600160a01b038c16808452600483528184208054968701815584529282902090940186905583518a81528915159181019190915242818501529251909350909184917f98a9d358bab20f69b57207311a76c56ec063cadbc4f049c441dfcba5f9535af19181900360600190a495945050505050565b600160208190525f9182526040909120805491810154600282015460038301546004840154600585015460068601546007870180546001600160a01b03978816989790961696949560ff80861696610100909604169491906106cc90611358565b80601f01602080910402602001604051908101604052809291908181526020018280546106f890611358565b80156107435780601f1061071a57610100808354040283529160200191610743565b820191905f5260205f20905b81548152906001019060200180831161072657829003601f168201915b5050505050905089565b5f838152600160205260409020548390811461077b5760405162461bcd60e51b81526004016103539061149c565b5f848152600160208190526040909120908101546001600160a01b03163314806107b1575060028101546001600160a01b031633145b6108095760405162461bcd60e51b815260206004820152602360248201527f4f6e6c79206275796572206f722070726f76696465722063616e206661696c206044820152623537b160e91b6064820152608401610353565b5f60048083015460ff1690811115610823576108236110f6565b14806108475750600160048083015460ff1690811115610845576108456110f6565b145b6108845760405162461bcd60e51b815260206004820152600e60248201526d496e76616c69642073746174757360901b6044820152606401610353565b60048101805460ff1916600317905560405185907f0d64e3040027d75c3682a1783051bdcac4bda50d37973a650a2117a153b9f1e6906108c790879087906114c8565b60405180910390a25050505050565b6001600160a01b0381165f9081526003602090815260409182902080548351818402810184019094528084526060939283018282801561093357602002820191905f5260205f20905b81548152602001906001019080831161091f575b50505050509050919050565b610947610f94565b6109505f610fc0565b565b6004602052815f5260405f20818154811061096b575f80fd5b905f5260205f20015f91509150505481565b5f81815260016020526040902054819081146109ab5760405162461bcd60e51b81526004016103539061149c565b5f82815260016020526040902060028101546001600160a01b03163314610a145760405162461bcd60e51b815260206004820152601a60248201527f4f6e6c792070726f76696465722063616e20636f6d706c6574650000000000006044820152606401610353565b600160048083015460ff1690811115610a2f57610a2f6110f6565b14610a6d5760405162461bcd60e51b815260206004820152600e60248201526d4a6f62206e6f742061637469766560901b6044820152606401610353565b62278d00816005015442610a8191906114f6565b1115610abd5760405162461bcd60e51b815260206004820152600b60248201526a129bd888195e1c1a5c995960aa1b6044820152606401610353565b60048101805460ff19166002179055426006820181905560405190815283907f9b5ed714c31dfcb1a9397710b6fc1842f37d94ab5dc0ccb528d9a2c97ea76f2a906020015b60405180910390a2505050565b5f8181526001602052604090205481908114610b3d5760405162461bcd60e51b81526004016103539061149c565b5f82815260016020526040902060028101546001600160a01b03163314610bb05760405162461bcd60e51b815260206004820152602160248201527f4f6e6c792061737369676e65642070726f76696465722063616e2061636365706044820152601d60fa1b6064820152608401610353565b5f60048083015460ff1690811115610bca57610bca6110f6565b14610c175760405162461bcd60e51b815260206004820152601860248201527f4a6f62206e6f7420696e2070656e64696e6720737461746500000000000000006044820152606401610353565b60048101805460ff19166001179055604051428152339084907fd2db40975c939910f59ac7aa8c8f2cd5a28a7cda5aea9fe19dcfe3259db2bdc49060200160405180910390a3505050565b6003602052815f5260405f20818154811061096b575f80fd5b610c83610f94565b5f8181526001602052604090205481908114610cb15760405162461bcd60e51b81526004016103539061149c565b5f828152600160205260409020600260048083015460ff1690811115610cd957610cd96110f6565b14610d1a5760405162461bcd60e51b8152602060048201526011602482015270129bd8881b9bdd0818dbdb5c1b195d1959607a1b6044820152606401610353565b6004818101805460ff1916909117905560405142815283907f274f4d415f3351e4e45f4a0b7f4f3dff2cd72eaa33fdc2b0cdf63ab8a2915cda90602001610b02565b6001600160a01b0381165f9081526004602090815260409182902080548351818402810184019094528084526060939283018282801561093357602002820191905f5260205f209081548152602001906001019080831161091f5750505050509050919050565b610dcb610f94565b6001600160a01b038116610df457604051631e4fbdf760e01b81525f6004820152602401610353565b610dfd81610fc0565b50565b610e4d60408051610120810182525f808252602082018190529181018290526060810182905290608082019081526020015f151581526020015f81526020015f8152602001606081525090565b5f8281526001602081815260409283902083516101208101855281548152928101546001600160a01b039081169284019290925260028101549091169282019290925260038201546060820152600480830154919291608084019160ff90911690811115610ebd57610ebd6110f6565b6004811115610ece57610ece6110f6565b81526004820154610100900460ff16151560208201526005820154604082015260068201546060820152600782018054608090920191610f0d90611358565b80601f0160208091040260200160405190810160405280929190818152602001828054610f3990611358565b8015610f845780601f10610f5b57610100808354040283529160200191610f84565b820191905f5260205f20905b815481529060010190602001808311610f6757829003601f168201915b5050505050815250509050919050565b5f546001600160a01b031633146109505760405163118cdaa760e01b8152336004820152602401610353565b5f80546001600160a01b038381166001600160a01b0319831681178455604051919092169283917f8be0079c531659141344cd1fd0a4f28419497f9722a3daafe3b4186f6b6457e09190a35050565b5f6020828403121561101f575f80fd5b5035919050565b80356001600160a01b038116811461103c575f80fd5b919050565b5f8083601f840112611051575f80fd5b50813567ffffffffffffffff811115611068575f80fd5b60208301915083602082850101111561107f575f80fd5b9250929050565b5f805f805f6080868803121561109a575f80fd5b6110a386611026565b945060208601359350604086013580151581146110be575f80fd5b9250606086013567ffffffffffffffff8111156110d9575f80fd5b6110e588828901611041565b969995985093965092949392505050565b634e487b7160e01b5f52602160045260245ffd5b6005811061112657634e487b7160e01b5f52602160045260245ffd5b9052565b5f81518084525f5b8181101561114e57602081850181015186830182015201611132565b505f602082860101526020601f19601f83011685010191505092915050565b8981526001600160a01b03898116602083015288166040820152606081018790525f61012061119f608084018961110a565b86151560a08401528560c08401528460e0840152806101008401526111c68184018561112a565b9c9b505050505050505050505050565b5f805f604084860312156111e8575f80fd5b83359250602084013567ffffffffffffffff811115611205575f80fd5b61121186828701611041565b9497909650939450505050565b5f6020828403121561122e575f80fd5b6102da82611026565b602080825282518282018190525f9190848201906040850190845b8181101561126e57835183529284019291840191600101611252565b50909695505050505050565b5f806040838503121561128b575f80fd5b61129483611026565b946020939093013593505050565b60208152815160208201525f60208301516112c860408401826001600160a01b03169052565b5060408301516001600160a01b0381166060840152506060830151608083015260808301516112fa60a084018261110a565b5060a083015180151560c08401525060c083015160e083810191909152830151610100808401919091528301516101208084015261133c61014084018261112a565b949350505050565b634e487b7160e01b5f52604160045260245ffd5b600181811c9082168061136c57607f821691505b60208210810361138a57634e487b7160e01b5f52602260045260245ffd5b50919050565b601f8211156113d757805f5260205f20601f840160051c810160208510156113b55750805b601f840160051c820191505b818110156113d4575f81556001016113c1565b50505b505050565b815167ffffffffffffffff8111156113f6576113f6611344565b61140a816114048454611358565b84611390565b602080601f83116001811461143d575f84156114265750858301515b5f19600386901b1c1916600185901b178555611494565b5f85815260208120601f198616915b8281101561146b5788860151825594840194600190910190840161144c565b508582101561148857878501515f19600388901b60f8161c191681555b505060018460011b0185555b505050505050565b602080825260129082015271129bd888191bd95cc81b9bdd08195e1a5cdd60721b604082015260600190565b60208152816020820152818360408301375f818301604090810191909152601f909201601f19160101919050565b8181038181111561151557634e487b7160e01b5f52601160045260245ffd5b9291505056fea26469706673582212207dd3caef9393945dbc7cf4d96ebf90032ceb1b442584ee539340992e1b473f9e64736f6c63430008180033",
  "linkReferences": {},
  "deployedLinkReferences": {}
}