{
  "_format": "hh-sol-artifact-1",
  "contractName": "Escrow",
  "sourceName": "contracts/Escrow.sol",
  "abi": [
    {
      "inputs": [
        {
          "internalType": "address",
          "name": "_usdcToken",
          "type": "address"
        }
      ],
      "stateMutability": "nonpayable",
      "type": "constructor"
    },
    {
      "inputs": [
        {
          "internalType": "address",
          "name": "owner",
          "type": "address"
        }
      ],
      "name": "OwnableInvalidOwner",
      "type": "error"
    },
    {
      "inputs": [
        {
          "internalType": "address",
          "name": "account",
          "type": "address"
        }
      ],
      "name": "OwnableUnauthorizedAccount",
      "type": "error"
    },
    {
      "inputs": [],
      "name": "ReentrancyGuardReentrantCall",
      "type": "error"
    },
    {
      "anonymous": false,
      "inputs": [
        {
          "indexed": true,
          "internalType": "bytes32",
          "name": "jobId",
          "type": "bytes32"
        },
        {
          "indexed": true,
          "internalType": "address",
          "name": "buyer",
          "type": "address"
        },
        {
          "indexed": true,
          "internalType": "address",
          "name": "provider",
          "type": "address"
        },
        {
          "indexed": false,
          "internalType": "uint256",
          "name": "amount",
          "type": "uint256"
        },
        {
          "indexed": false,
          "internalType": "uint256",
          "name": "timeoutAt",
          "type": "uint256"
        }
      ],
      "name": "FundsLocked",
      "type": "event"
    },
    {
      "anonymous": false,
      "inputs": [
        {
          "indexed": true,
          "internalType": "bytes32",
          "name": "jobId",
          "type": "bytes32"
        },
        {
          "indexed": true,
          "internalType": "address",
          "name": "buyer",
          "type": "address"
        },
        {
          "indexed": false,
          "internalType": "uint256",
          "name": "amount",
          "type": "uint256"
        },
        {
          "indexed": false,
          "internalType": "uint256",
          "name": "refundedAt",
          "type": "uint256"
        }
      ],
      "name": "FundsRefunded",
      "type": "event"
    },
    {
      "anonymous": false,
      "inputs": [
        {
          "indexed": true,
          "internalType": "bytes32",
          "name": "jobId",
          "type": "bytes32"
        },
        {
          "indexed": true,
          "internalType": "address",
          "name": "provider",
          "type": "address"
        },
        {
          "indexed": false,
          "internalType": "uint256",
          "name": "amount",
          "type": "uint256"
        },
        {
          "indexed": false,
          "internalType": "uint256",
          "name": "releasedAt",
          "type": "uint256"
        }
      ],
      "name": "FundsReleased",
      "type": "event"
    },
    {
      "anonymous": false,
      "inputs": [
        {
          "indexed": true,
          "internalType": "address",
          "name": "previousOwner",
          "type": "address"
        },
        {
          "indexed": true,
          "internalType": "address",
          "name": "newOwner",
          "type": "address"
        }
      ],
      "name": "OwnershipTransferred",
      "type": "event"
    },
    {
      "inputs": [],
      "name": "REFUND_TIMEOUT",
      "outputs": [
        {
          "internalType": "uint256",
          "name": "",
          "type": "uint256"
        }
      ],
      "stateMutability": "view",
      "type": "function"
    },
    {
      "inputs": [
        {
          "internalType": "address",
          "name": "token",
          "type": "address"
        },
        {
          "internalType": "uint256",
          "name": "amount",
          "type": "uint256"
        }
      ],
      "name": "emergencyWithdraw",
      "outputs": [],
      "stateMutability": "nonpayable",
      "type": "function"
    },
    {
      "inputs": [
        {
          "internalType": "bytes32",
          "name": "",
          "type": "bytes32"
        }
      ],
      "name": "escrows",
      "outputs": [
        {
          "internalType": "bytes32",
          "name": "jobId",
          "type": "bytes32"
        },
        {
          "internalType": "address",
          "name": "buyer",
          "type": "address"
        },
        {
          "internalType": "address",
          "name": "provider",
          "type": "address"
        },
        {
          "internalType": "uint256",
          "name": "amount",
          "type": "uint256"
        },
        {
          "internalType": "enum Escrow.EscrowStatus",
          "name": "status",
          "type": "uint8"
        },
        {
          "internalType": "uint256",
          "name": "createdAt",
          "type": "uint256"
        },
        {
          "internalType": "uint256",
          "name": "timeoutAt",
          "type": "uint256"
        }
      ],
      "stateMutability": "view",
      "type": "function"
    },
    {
      "inputs": [],
      "name": "getContractBalance",
      "outputs": [
        {
          "internalType": "uint256",
          "name": "",
          "type": "uint256"
        }
      ],
      "stateMutability": "view",
      "type": "function"
    },
    {
      "inputs": [
        {
          "internalType": "bytes32",
          "name": "jobId",
          "type": "bytes32"
        }
      ],
      "name": "getEscrow",
      "outputs": [
        {
          "components": [
            {
              "internalType": "bytes32",
              "name": "jobId",
              "type": "bytes32"
            },
            {
              "internalType": "address",
              "name": "buyer",
              "type": "address"
            },
            {
              "internalType": "address",
              "name": "provider",
              "type": "address"
            },
            {
              "internalType": "uint256",
              "name": "amount",
              "type": "uint256"
            },
            {
              "internalType": "enum Escrow.EscrowStatus",
              "name": "status",
              "type": "uint8"
            },
            {
              "internalType": "uint256",
              "name": "createdAt",
              "type": "uint256"
            },
            {
              "internalType": "uint256",
              "name": "timeoutAt",
              "type": "uint256"
            }
          ],
          "internalType": "struct Escrow.EscrowData",
          "name": "",
          "type": "tuple"
        }
      ],
      "stateMutability": "view",
      "type": "function"
    },
    {
      "inputs": [
        {
          "internalType": "bytes32",
          "name": "jobId",
          "type": "bytes32"
        }
      ],
      "name": "isRefundAvailable",
      "outputs": [
        {
          "internalType": "bool",
          "name": "",
          "type": "bool"
        }
      ],
      "stateMutability": "view",
      "type": "function"
    },
    {
      "inputs": [],
      "name": "jobRegistry",
      "outputs": [
        {
          "internalType": "address",
          "name": "",
          "type": "address"
        }
      ],
      "stateMutability": "view",
      "type": "function"
    },
    {
      "inputs": [
        {
          "internalType": "bytes32",
          "name": "jobId",
          "type": "bytes32"
        },
        {
          "internalType": "address",
          "name": "provider",
          "type": "address"
        },
        {
          "internalType": "uint256",
          "name": "amount",
          "type": "uint256"
        }
      ],
      "name": "lockFunds",
      "outputs": [],
      "stateMutability": "nonpayable",
      "type": "function"
    },
    {
      "inputs": [],
      "name": "owner",
      "outputs": [
        {
          "internalType": "address",
          "name": "",
          "type": "address"
        }
      ],
      "stateMutability": "view",
      "type": "function"
    },
    {
      "inputs": [
        {
          "internalType": "bytes32",
          "name": "jobId",
          "type": "bytes32"
        }
      ],
      "name": "refund",
      "outputs": [],
      "stateMutability": "nonpayable",
      "type": "function"
    },
    {
      "inputs": [
        {
          "internalType": "bytes32",
          "name": "jobId",
          "type": "bytes32"
        }
      ],
      "name": "releaseFunds",
      "outputs": [],
      "stateMutability": "nonpayable",
      "type": "function"
    },
    {
      "inputs": [],
      "name": "renounceOwnership",
      "outputs": [],
      "stateMutability": "nonpayable",
      "type": "function"
    },
    {
      "inputs": [
        {
          "internalType": "address",
          "name": "_jobRegistry",
          "type": "address"
        }
      ],
      "name": "setJobRegistry",
      "outputs": [],
      "stateMutability": "nonpayable",
      "type": "function"
    },
    {
      "inputs": [
        {
          "internalType": "address",
          "name": "newOwner",
          "type": "address"
        }
      ],
      "name": "transferOwnership",
      "outputs": [],
      "stateMutability": "nonpayable",
      "type": "function"
    },
    {
      "inputs": [],
      "name": "usdcToken",
      "outputs": [
        {
          "internalType": "contract IERC20",
          "name": "",
          "type": "address"
        }
      ],
      "stateMutability": "view",
      "type": "function"
    }
  ],
  "bytecode": "0x608060405234801561000f575f80fd5b5060405161127038038061127083398101604081905261002e9161012e565b60015f55338061005857604051631e4fbdf760e01b81525f60048201526024015b60405180910390fd5b610061816100dd565b506001600160a01b0381166100b85760405162461bcd60e51b815260206004820152601a60248201527f496e76616c6964205553444320746f6b656e2061646472657373000000000000604482015260640161004f565b600380546001600160a01b0319166001600160a01b039290921691909117905561015b565b600180546001600160a01b038381166001600160a01b0319831681179093556040519116919082907f8be0079c531659141344cd1fd0a4f28419497f9722a3daafe3b4186f6b6457e0905f90a35050565b5f6020828403121561013e575f80fd5b81516001600160a01b0381168114610154575f80fd5b9392505050565b611108806101685f395ff3fe608060405234801561000f575f80fd5b50600436106100ef575f3560e01c8063715018a61161009357806395ccea671161006357806395ccea671461023a578063c92ee0431461024d578063f023b81114610260578063f2fde38b14610280575f80fd5b8063715018a6146102045780637249fbb61461020c5780637d57900a1461021f5780638da5cb5b14610229575f80fd5b806323682c47116100ce57806323682c471461014b5780632d83549c1461015e57806339ebb8b0146101cb5780636f9fb98a146101ee575f80fd5b8062dc34c1146100f357806302288cda1461010857806311eac8551461011b575b5f80fd5b610106610101366004610ed8565b610293565b005b610106610116366004610ef8565b610371565b60035461012e906001600160a01b031681565b6040516001600160a01b0390911681526020015b60405180910390f35b60045461012e906001600160a01b031681565b6101b861016c366004610f2a565b600260208190525f9182526040909120805460018201549282015460038301546004840154600585015460069095015493956001600160a01b0390811695931693919260ff9091169187565b6040516101429796959493929190610f75565b6101de6101d9366004610f2a565b61067c565b6040519015158152602001610142565b6101f66106c3565b604051908152602001610142565b610106610732565b61010661021a366004610f2a565b610745565b6101f662093a8081565b6001546001600160a01b031661012e565b610106610248366004610fbc565b6109ee565b61010661025b366004610f2a565b610ae3565b61027361026e366004610f2a565b610d05565b6040516101429190610fe4565b61010661028e366004610ed8565b610ddd565b61029b610e17565b6001600160a01b0381166102f65760405162461bcd60e51b815260206004820152601b60248201527f496e76616c6964204a6f6252656769737472792061646472657373000000000060448201526064015b60405180910390fd5b6004546001600160a01b03161561034f5760405162461bcd60e51b815260206004820152601760248201527f4a6f62526567697374727920616c72656164792073657400000000000000000060448201526064016102ed565b600480546001600160a01b0319166001600160a01b0392909216919091179055565b610379610e44565b6001600160a01b0382166103cf5760405162461bcd60e51b815260206004820152601860248201527f496e76616c69642070726f76696465722061646472657373000000000000000060448201526064016102ed565b5f811161041e5760405162461bcd60e51b815260206004820152601d60248201527f416d6f756e74206d7573742062652067726561746572207468616e203000000060448201526064016102ed565b5f838152600260205260409020548390036104735760405162461bcd60e51b8152602060048201526015602482015274457363726f7720616c72656164792065786973747360581b60448201526064016102ed565b6003546040516323b872dd60e01b8152336004820152306024820152604481018390525f916001600160a01b0316906323b872dd906064016020604051808303815f875af11580156104c7573d5f803e3d5ffd5b505050506040513d601f19601f820116820180604052508101906104eb9190611048565b9050806105315760405162461bcd60e51b81526020600482015260146024820152731554d110c81d1c985b9cd9995c8819985a5b195960621b60448201526064016102ed565b6040805160e0810182528581523360208201526001600160a01b0385169181019190915260608101839052608081015f815260200142815260200162093a804261057b9190611067565b90525f858152600260208181526040928390208451815590840151600180830180546001600160a01b039384166001600160a01b03199182161790915594860151838501805491909316951694909417905560608401516003820155608084015160048201805492949193909260ff1916919084908111156105ff576105ff610f41565b021790555060a0820151600582015560c0909101516006909101556001600160a01b03831633857fc7c17d24e92a04692e0e18ca8dc562d2455b7c6710ba21eeb09fc9817cea79138561065562093a8042611067565b6040805192835260208301919091520160405180910390a45061067760015f55565b505050565b5f81815260026020526040812054829081146106aa5760405162461bcd60e51b81526004016102ed9061108c565b50505f9081526002602052604090206006015442101590565b6003546040516370a0823160e01b81523060048201525f916001600160a01b0316906370a0823190602401602060405180830381865afa158015610709573d5f803e3d5ffd5b505050506040513d601f19601f8201168201806040525081019061072d91906110bb565b905090565b61073a610e17565b6107435f610e6c565b565b61074d610e44565b5f818152600260205260409020548190811461077b5760405162461bcd60e51b81526004016102ed9061108c565b5f82815260026020526040812090600482015460ff1660028111156107a2576107a2610f41565b146107e25760405162461bcd60e51b815260206004820152601060248201526f119d5b991cc81b9bdd081b1bd8dad95960821b60448201526064016102ed565b60018101546001600160a01b031633148061080757506001546001600160a01b031633145b6108535760405162461bcd60e51b815260206004820152601e60248201527f4f6e6c79206275796572206f72206f776e65722063616e20726566756e64000060448201526064016102ed565b60018101546001600160a01b031633036108bb5780600601544210156108bb5760405162461bcd60e51b815260206004820152601a60248201527f526566756e642074696d656f7574206e6f74207265616368656400000000000060448201526064016102ed565b6004818101805460ff191660021790556003805460018401549184015460405163a9059cbb60e01b81526001600160a01b039384169481019490945260248401525f9291169063a9059cbb906044016020604051808303815f875af1158015610926573d5f803e3d5ffd5b505050506040513d601f19601f8201168201806040525081019061094a9190611048565b90508061098e5760405162461bcd60e51b81526020600482015260126024820152711554d110c81c99599d5b990819985a5b195960721b60448201526064016102ed565b60018201546003830154604080519182524260208301526001600160a01b039092169186917f9c27c67f05d2d2161414e61f59fe8b535d0edcaeffa1fb9ebc653f02cf6e9f6291015b60405180910390a35050506109eb60015f55565b50565b6109f6610e17565b6003546001600160a01b0390811690831603610a545760405162461bcd60e51b815260206004820152601b60248201527f43616e6e6f74207769746864726177206c6f636b65642055534443000000000060448201526064016102ed565b816001600160a01b031663a9059cbb610a756001546001600160a01b031690565b6040516001600160e01b031960e084901b1681526001600160a01b039091166004820152602481018490526044016020604051808303815f875af1158015610abf573d5f803e3d5ffd5b505050506040513d601f19601f820116820180604052508101906106779190611048565b6004546001600160a01b03163314610b3d5760405162461bcd60e51b815260206004820152601960248201527f4f6e6c79204a6f6252656769737472792063616e2063616c6c0000000000000060448201526064016102ed565b610b45610e44565b5f8181526002602052604090205481908114610b735760405162461bcd60e51b81526004016102ed9061108c565b5f82815260026020526040812090600482015460ff166002811115610b9a57610b9a610f41565b14610bda5760405162461bcd60e51b815260206004820152601060248201526f119d5b991cc81b9bdd081b1bd8dad95960821b60448201526064016102ed565b6004818101805460ff191660011790556003805460028401549184015460405163a9059cbb60e01b81526001600160a01b039384169481019490945260248401525f9291169063a9059cbb906044016020604051808303815f875af1158015610c45573d5f803e3d5ffd5b505050506040513d601f19601f82011682018060405250810190610c699190611048565b905080610cb85760405162461bcd60e51b815260206004820181905260248201527f55534443207472616e7366657220746f2070726f7669646572206661696c656460448201526064016102ed565b60028201546003830154604080519182524260208301526001600160a01b039092169186917f06823cbbe3d86b8d3bc32f4679210e4ff0a8b1bf495ca5889fffc53b19c6add491016109d7565b610d426040805160e0810182525f808252602082018190529181018290526060810182905290608082019081526020015f81526020015f81525090565b5f82815260026020818152604092839020835160e0810185528154815260018201546001600160a01b03908116938201939093528184015490921693820193909352600383015460608201526004830154909291608084019160ff1690811115610dae57610dae610f41565b6002811115610dbf57610dbf610f41565b81526005820154602082015260069091015460409091015292915050565b610de5610e17565b6001600160a01b038116610e0e57604051631e4fbdf760e01b81525f60048201526024016102ed565b6109eb81610e6c565b6001546001600160a01b031633146107435760405163118cdaa760e01b81523360048201526024016102ed565b60025f5403610e6657604051633ee5aeb560e01b815260040160405180910390fd5b60025f55565b600180546001600160a01b038381166001600160a01b0319831681179093556040519116919082907f8be0079c531659141344cd1fd0a4f28419497f9722a3daafe3b4186f6b6457e0905f90a35050565b80356001600160a01b0381168114610ed3575f80fd5b919050565b5f60208284031215610ee8575f80fd5b610ef182610ebd565b9392505050565b5f805f60608486031215610f0a575f80fd5b83359250610f1a60208501610ebd565b9150604084013590509250925092565b5f60208284031215610f3a575f80fd5b5035919050565b634e487b7160e01b5f52602160045260245ffd5b60038110610f7157634e487b7160e01b5f52602160045260245ffd5b9052565b8781526001600160a01b038781166020830152861660408201526060810185905260e08101610fa76080830186610f55565b60a082019390935260c0015295945050505050565b5f8060408385031215610fcd575f80fd5b610fd683610ebd565b946020939093013593505050565b5f60e08201905082518252602083015160018060a01b038082166020850152806040860151166040850152505060608301516060830152608083015161102d6080840182610f55565b5060a083015160a083015260c083015160c083015292915050565b5f60208284031215611058575f80fd5b81518015158114610ef1575f80fd5b8082018082111561108657634e487b7160e01b5f52601160045260245ffd5b92915050565b602080825260159082015274115cd8dc9bddc8191bd95cc81b9bdd08195e1a5cdd605a1b604082015260600190565b5f602082840312156110cb575f80fd5b505191905056fea26469706673582212205d76b4ab7d4c72a16b43e58c1c30248bd6d262ea80e5c2544a1216ed5c0d328264736f6c63430008180033",
  "linkReferences": {},
  "deployedLinkReferences": {}
}