{
  "_format": "hh3-artifact-1",
  "contractName": "ComputeRouter",
  "sourceName": "contracts/ComputeRouter.sol",
  "abi": [
    {
      "inputs": [
        {
          "internalType": "address",
          "name": "_agent",
          "type": "address"
        }
      ],
      "stateMutability": "nonpayable",
      "type": "constructor"
    },
    {
      "anonymous": false,
      "inputs": [
        {
          "indexed": true,
          "internalType": "address",
          "name": "oldAgent",
          "type": "address"
        },
        {
          "indexed": true,
          "internalType": "address",
          "name": "newAgent",
          "type": "address"
        }
      ],
      "name": "AgentUpdated",
      "type": "event"
    },
    {
      "anonymous": false,
      "inputs": [
        {
          "indexed": true,
          "internalType": "uint256",
          "name": "jobId",
          "type": "uint256"
        },
        {
          "indexed": true,
          "internalType": "address",
          "name": "user",
          "type": "address"
        },
        {
          "indexed": false,
          "internalType": "bytes32",
          "name": "detailsHash",
          "type": "bytes32"
        },
        {
          "indexed": false,
          "internalType": "bool",
          "name": "isTracked",
          "type": "bool"
        }
      ],
      "name": "JobSubmitted",
      "type": "event"
    },
    {
      "anonymous": false,
      "inputs": [
        {
          "indexed": true,
          "internalType": "uint256",
          "name": "jobId",
          "type": "uint256"
        },
        {
          "indexed": true,
          "internalType": "address",
          "name": "provider",
          "type": "address"
        },
        {
          "indexed": false,
          "internalType": "uint256",
          "name": "amount",
          "type": "uint256"
        },
        {
          "indexed": false,
          "internalType": "bytes32",
          "name": "routingHash",
          "type": "bytes32"
        }
      ],
      "name": "RoutingDecision",
      "type": "event"
    },
    {
      "inputs": [],
      "name": "agent",
      "outputs": [
        {
          "internalType": "address",
          "name": "",
          "type": "address"
        }
      ],
      "stateMutability": "view",
      "type": "function"
    },
    {
      "inputs": [
        {
          "internalType": "uint256",
          "name": "_jobId",
          "type": "uint256"
        }
      ],
      "name": "getJob",
      "outputs": [
        {
          "components": [
            {
              "internalType": "uint256",
              "name": "id",
              "type": "uint256"
            },
            {
              "internalType": "address",
              "name": "user",
              "type": "address"
            },
            {
              "internalType": "bytes32",
              "name": "detailsHash",
              "type": "bytes32"
            },
            {
              "internalType": "bytes32",
              "name": "routingHash",
              "type": "bytes32"
            },
            {
              "internalType": "address",
              "name": "provider",
              "type": "address"
            },
            {
              "internalType": "uint256",
              "name": "amount",
              "type": "uint256"
            },
            {
              "internalType": "bool",
              "name": "isTracked",
              "type": "bool"
            },
            {
              "internalType": "uint256",
              "name": "createdAt",
              "type": "uint256"
            },
            {
              "internalType": "uint256",
              "name": "routedAt",
              "type": "uint256"
            }
          ],
          "internalType": "struct ComputeRouter.Job",
          "name": "",
          "type": "tuple"
        }
      ],
      "stateMutability": "view",
      "type": "function"
    },
    {
      "inputs": [],
      "name": "jobCount",
      "outputs": [
        {
          "internalType": "uint256",
          "name": "",
          "type": "uint256"
        }
      ],
      "stateMutability": "view",
      "type": "function"
    },
    {
      "inputs": [
        {
          "internalType": "uint256",
          "name": "_jobId",
          "type": "uint256"
        },
        {
          "internalType": "address",
          "name": "_provider",
          "type": "address"
        },
        {
          "internalType": "uint256",
          "name": "_amount",
          "type": "uint256"
        },
        {
          "internalType": "bytes32",
          "name": "_routingHash",
          "type": "bytes32"
        }
      ],
      "name": "recordRoutingDecision",
      "outputs": [],
      "stateMutability": "nonpayable",
      "type": "function"
    },
    {
      "inputs": [
        {
          "internalType": "address",
          "name": "_user",
          "type": "address"
        },
        {
          "internalType": "bytes32",
          "name": "_detailsHash",
          "type": "bytes32"
        },
        {
          "internalType": "bool",
          "name": "_isTracked",
          "type": "bool"
        }
      ],
      "name": "submitJob",
      "outputs": [
        {
          "internalType": "uint256",
          "name": "",
          "type": "uint256"
        }
      ],
      "stateMutability": "nonpayable",
      "type": "function"
    },
    {
      "inputs": [
        {
          "internalType": "address",
          "name": "_newAgent",
          "type": "address"
        }
      ],
      "name": "updateAgent",
      "outputs": [],
      "stateMutability": "nonpayable",
      "type": "function"
    }
  ],
  "bytecode": "0x608060405234801561000f575f5ffd5b50604051610a03380380610a0383398101604081905261002e916100c1565b6001600160a01b03811661009c5760405162461bcd60e51b815260206004820152602b60248201527f436f6d70757465526f757465723a206167656e742063616e6e6f74206265207a60448201526a65726f206164647265737360a81b606482015260840160405180910390fd5b600280546001600160a01b0319166001600160a01b03929092169190911790556100ee565b5f602082840312156100d1575f5ffd5b81516001600160a01b03811681146100e7575f5ffd5b9392505050565b610908806100fb5f395ff3fe608060405234801561000f575f5ffd5b5060043610610060575f3560e01c806349f41a42146100645780634c5d8a0f14610079578063611a968a146100955780637c200423146100a8578063bf22c457146100bb578063f5ff5c76146100db575b5f5ffd5b6100776100723660046106f9565b610106565b005b61008260015481565b6040519081526020015b60405180910390f35b6100776100a3366004610719565b6101f8565b6100826100b6366004610751565b61040a565b6100ce6100c9366004610792565b6105d0565b60405161008c91906107a9565b6002546100ee906001600160a01b031681565b6040516001600160a01b03909116815260200161008c565b6002546001600160a01b031633146101395760405162461bcd60e51b815260040161013090610827565b60405180910390fd5b6001600160a01b0381166101a75760405162461bcd60e51b815260206004820152602f60248201527f436f6d70757465526f757465723a206e6577206167656e742063616e6e6f742060448201526e6265207a65726f206164647265737360881b6064820152608401610130565b600280546001600160a01b038381166001600160a01b0319831681179093556040519116919082907fee7760cb405d3beb1072ae2e716857daa45a5dd52bc1383a21173199d32c7dee905f90a35050565b6002546001600160a01b031633146102225760405162461bcd60e51b815260040161013090610827565b5f8411801561023357506001548411155b61024f5760405162461bcd60e51b81526004016101309061086d565b5f84815260208190526040902060080154156102b75760405162461bcd60e51b815260206004820152602160248201527f436f6d70757465526f757465723a206a6f6220616c726561647920726f7574656044820152601960fa1b6064820152608401610130565b6001600160a01b0383166103245760405162461bcd60e51b815260206004820152602e60248201527f436f6d70757465526f757465723a2070726f76696465722063616e6e6f74206260448201526d65207a65726f206164647265737360901b6064820152608401610130565b806103845760405162461bcd60e51b815260206004820152602a60248201527f436f6d70757465526f757465723a20726f7574696e6720686173682063616e6e6044820152696f74206265207a65726f60b01b6064820152608401610130565b5f84815260208181526040918290206004810180546001600160a01b0319166001600160a01b038816908117909155600582018690556003820185905542600883015583518681529283018590529092909187917f89e002df87e9cdcaf1d95e1c45e412a96d7f64ce933258218556b9d34f9b339b910160405180910390a35050505050565b6002545f906001600160a01b031633146104365760405162461bcd60e51b815260040161013090610827565b60018054905f610445836108ae565b90915550506001545f83610459575f61045b565b855b9050604051806101200160405280838152602001826001600160a01b031681526020018681526020015f5f1b81526020015f6001600160a01b031681526020015f815260200185151581526020014281526020015f8152505f5f8481526020019081526020015f205f820151815f01556020820151816001015f6101000a8154816001600160a01b0302191690836001600160a01b0316021790555060408201518160020155606082015181600301556080820151816004015f6101000a8154816001600160a01b0302191690836001600160a01b0316021790555060a0820151816005015560c0820151816006015f6101000a81548160ff02191690831515021790555060e082015181600701556101008201518160080155905050806001600160a01b0316827f83eef7b6415e69213835fca089d18c72173b9ed3f5251404bfac70e0dd49dfb787876040516105bf9291909182521515602082015260400190565b60405180910390a350949350505050565b61062a6040518061012001604052805f81526020015f6001600160a01b031681526020015f81526020015f81526020015f6001600160a01b031681526020015f81526020015f151581526020015f81526020015f81525090565b5f8211801561063b57506001548211155b6106575760405162461bcd60e51b81526004016101309061086d565b505f90815260208181526040918290208251610120810184528154815260018201546001600160a01b03908116938201939093526002820154938101939093526003810154606084015260048101549091166080830152600581015460a0830152600681015460ff16151560c0830152600781015460e08301526008015461010082015290565b80356001600160a01b03811681146106f4575f5ffd5b919050565b5f60208284031215610709575f5ffd5b610712826106de565b9392505050565b5f5f5f5f6080858703121561072c575f5ffd5b8435935061073c602086016106de565b93969395505050506040820135916060013590565b5f5f5f60608486031215610763575f5ffd5b61076c846106de565b92506020840135915060408401358015158114610787575f5ffd5b809150509250925092565b5f602082840312156107a2575f5ffd5b5035919050565b5f610120820190508251825260018060a01b036020840151166020830152604083015160408301526060830151606083015260018060a01b03608084015116608083015260a083015160a083015260c083015161080a60c084018215159052565b5060e083015160e083015261010083015161010083015292915050565b60208082526026908201527f436f6d70757465526f757465723a2063616c6c6572206973206e6f7420746865604082015265081859d95b9d60d21b606082015260800190565b60208082526021908201527f436f6d70757465526f757465723a206a6f6220646f6573206e6f7420657869736040820152601d60fa1b606082015260800190565b5f600182016108cb57634e487b7160e01b5f52601160045260245ffd5b506001019056fea26469706673582212209921b21cd893bacb03bfa5f23508859cee344f210ce5500d43be137df039e77e64736f6c634300081c0033",
  "linkReferences": {},
  "deployedLinkReferences": {},
  "immutableReferences": {},
  "inputSourceName": "project/contracts/ComputeRouter.sol",
  "buildInfoId": "solc-0_8_28-bb830ccb246e9eec60b9bd4ea93760c9945ff33d"
}