{
  "_format": "hh3-artifact-1",
  "contractName": "ComputeRouter",
  "sourceName": "contracts/ComputeRouter.sol",
  "abi": [
    {
      "inputs": [],
      "stateMutability": "nonpayable",
      "type": "constructor"
    },
    {
      "anonymous": false,
      "inputs": [
        {
          "indexed": true,
          "internalType": "address",
          "name": "oldAgent",
          "type": "address"
        },
        {
          "indexed": true,
          "internalType": "address",
          "name": "newAgent",
          "type": "address"
        }
      ],
      "name": "AgentUpdated",
      "type": "event"
    },
    {
      "anonymous": false,
      "inputs": [
        {
          "indexed": true,
          "internalType": "uint256",
          "name": "jobId",
          "type": "uint256"
        },
        {
          "indexed": true,
          "internalType": "address",
          "name": "user",
          "type": "address"
        },
        {
          "indexed": false,
          "internalType": "bytes32",
          "name": "detailsHash",
          "type": "bytes32"
        },
        {
          "indexed": false,
          "internalType": "bool",
          "name": "isTracked",
          "type": "bool"
        }
      ],
      "name": "JobSubmitted",
      "type": "event"
    },
    {
      "anonymous": false,
      "inputs": [
        {
          "indexed": true,
          "internalType": "uint256",
          "name": "jobId",
          "type": "uint256"
        },
        {
          "indexed": true,
          "internalType": "address",
          "name": "provider",
          "type": "address"
        },
        {
          "indexed": false,
          "internalType": "uint256",
          "name": "amount",
          "type": "uint256"
        },
        {
          "indexed": false,
          "internalType": "bytes32",
          "name": "routingHash",
          "type": "bytes32"
        }
      ],
      "name": "RoutingDecision",
      "type": "event"
    },
    {
      "inputs": [],
      "name": "agent",
      "outputs": [
        {
          "internalType": "address",
          "name": "",
          "type": "address"
        }
      ],
      "stateMutability": "view",
      "type": "function"
    },
    {
      "inputs": [
        {
          "internalType": "uint256",
          "name": "_jobId",
          "type": "uint256"
        }
      ],
      "name": "getJob",
      "outputs": [
        {
          "components": [
            {
              "internalType": "uint256",
              "name": "id",
              "type": "uint256"
            },
            {
              "internalType": "address",
              "name": "user",
              "type": "address"
            },
            {
              "internalType": "bytes32",
              "name": "detailsHash",
              "type": "bytes32"
            },
            {
              "internalType": "bytes32",
              "name": "routingHash",
              "type": "bytes32"
            },
            {
              "internalType": "address",
              "name": "provider",
              "type": "address"
            },
            {
              "internalType": "uint256",
              "name": "amount",
              "type": "uint256"
            },
            {
              "internalType": "bool",
              "name": "isTracked",
              "type": "bool"
            },
            {
              "internalType": "uint256",
              "name": "createdAt",
              "type": "uint256"
            },
            {
              "internalType": "uint256",
              "name": "routedAt",
              "type": "uint256"
            }
          ],
          "internalType": "struct ComputeRouter.Job",
          "name": "",
          "type": "tuple"
        }
      ],
      "stateMutability": "view",
      "type": "function"
    },
    {
      "inputs": [],
      "name": "jobCount",
      "outputs": [
        {
          "internalType": "uint256",
          "name": "",
          "type": "uint256"
        }
      ],
      "stateMutability": "view",
      "type": "function"
    },
    {
      "inputs": [
        {
          "internalType": "uint256",
          "name": "_jobId",
          "type": "uint256"
        },
        {
          "internalType": "address",
          "name": "_provider",
          "type": "address"
        },
        {
          "internalType": "uint256",
          "name": "_amount",
          "type": "uint256"
        },
        {
          "internalType": "bytes32",
          "name": "_routingHash",
          "type": "bytes32"
        }
      ],
      "name": "recordRoutingDecision",
      "outputs": [],
      "stateMutability": "nonpayable",
      "type": "function"
    },
    {
      "inputs": [
        {
          "internalType": "address",
          "name": "_agent",
          "type": "address"
        }
      ],
      "name": "setInitialAgent",
      "outputs": [],
      "stateMutability": "nonpayable",
      "type": "function"
    },
    {
      "inputs": [
        {
          "internalType": "address",
          "name": "_user",
          "type": "address"
        },
        {
          "internalType": "bytes32",
          "name": "_detailsHash",
          "type": "bytes32"
        },
        {
          "internalType": "bool",
          "name": "_isTracked",
          "type": "bool"
        }
      ],
      "name": "submitJob",
      "outputs": [
        {
          "internalType": "uint256",
          "name": "",
          "type": "uint256"
        }
      ],
      "stateMutability": "nonpayable",
      "type": "function"
    },
    {
      "inputs": [
        {
          "internalType": "address",
          "name": "_newAgent",
          "type": "address"
        }
      ],
      "name": "updateAgent",
      "outputs": [],
      "stateMutability": "nonpayable",
      "type": "function"
    }
  ],
  "bytecode": "0x6080604052348015600e575f5ffd5b50610a188061001c5f395ff3fe608060405234801561000f575f5ffd5b506004361061007a575f3560e01c80637c200423116100585780637c200423146100c2578063917eb36c146100d5578063bf22c457146100e8578063f5ff5c7614610108575f5ffd5b806349f41a421461007e5780634c5d8a0f14610093578063611a968a146100af575b5f5ffd5b61009161008c366004610809565b610133565b005b61009c60015481565b6040519081526020015b60405180910390f35b6100916100bd366004610829565b610225565b61009c6100d0366004610861565b610437565b6100916100e3366004610809565b6105d2565b6100fb6100f63660046108a2565b6106e0565b6040516100a691906108b9565b60025461011b906001600160a01b031681565b6040516001600160a01b0390911681526020016100a6565b6002546001600160a01b031633146101665760405162461bcd60e51b815260040161015d90610937565b60405180910390fd5b6001600160a01b0381166101d45760405162461bcd60e51b815260206004820152602f60248201527f436f6d70757465526f757465723a206e6577206167656e742063616e6e6f742060448201526e6265207a65726f206164647265737360881b606482015260840161015d565b600280546001600160a01b038381166001600160a01b0319831681179093556040519116919082907fee7760cb405d3beb1072ae2e716857daa45a5dd52bc1383a21173199d32c7dee905f90a35050565b6002546001600160a01b0316331461024f5760405162461bcd60e51b815260040161015d90610937565b5f8411801561026057506001548411155b61027c5760405162461bcd60e51b815260040161015d9061097d565b5f84815260208190526040902060080154156102e45760405162461bcd60e51b815260206004820152602160248201527f436f6d70757465526f757465723a206a6f6220616c726561647920726f7574656044820152601960fa1b606482015260840161015d565b6001600160a01b0383166103515760405162461bcd60e51b815260206004820152602e60248201527f436f6d70757465526f757465723a2070726f76696465722063616e6e6f74206260448201526d65207a65726f206164647265737360901b606482015260840161015d565b806103b15760405162461bcd60e51b815260206004820152602a60248201527f436f6d70757465526f757465723a20726f7574696e6720686173682063616e6e6044820152696f74206265207a65726f60b01b606482015260840161015d565b5f84815260208181526040918290206004810180546001600160a01b0319166001600160a01b038816908117909155600582018690556003820185905542600883015583518681529283018590529092909187917f89e002df87e9cdcaf1d95e1c45e412a96d7f64ce933258218556b9d34f9b339b910160405180910390a35050505050565b600180545f9182610447836109be565b90915550506001545f8361045b575f61045d565b855b9050604051806101200160405280838152602001826001600160a01b031681526020018681526020015f5f1b81526020015f6001600160a01b031681526020015f815260200185151581526020014281526020015f8152505f5f8481526020019081526020015f205f820151815f01556020820151816001015f6101000a8154816001600160a01b0302191690836001600160a01b0316021790555060408201518160020155606082015181600301556080820151816004015f6101000a8154816001600160a01b0302191690836001600160a01b0316021790555060a0820151816005015560c0820151816006015f6101000a81548160ff02191690831515021790555060e082015181600701556101008201518160080155905050806001600160a01b0316827f83eef7b6415e69213835fca089d18c72173b9ed3f5251404bfac70e0dd49dfb787876040516105c19291909182521515602082015260400190565b60405180910390a350949350505050565b6002546001600160a01b03161561062b5760405162461bcd60e51b815260206004820181905260248201527f436f6d70757465526f757465723a206167656e7420616c726561647920736574604482015260640161015d565b6001600160a01b0381166106955760405162461bcd60e51b815260206004820152602b60248201527f436f6d70757465526f757465723a206167656e742063616e6e6f74206265207a60448201526a65726f206164647265737360a81b606482015260840161015d565b600280546001600160a01b0319166001600160a01b0383169081179091556040515f907fee7760cb405d3beb1072ae2e716857daa45a5dd52bc1383a21173199d32c7dee908290a350565b61073a6040518061012001604052805f81526020015f6001600160a01b031681526020015f81526020015f81526020015f6001600160a01b031681526020015f81526020015f151581526020015f81526020015f81525090565b5f8211801561074b57506001548211155b6107675760405162461bcd60e51b815260040161015d9061097d565b505f90815260208181526040918290208251610120810184528154815260018201546001600160a01b03908116938201939093526002820154938101939093526003810154606084015260048101549091166080830152600581015460a0830152600681015460ff16151560c0830152600781015460e08301526008015461010082015290565b80356001600160a01b0381168114610804575f5ffd5b919050565b5f60208284031215610819575f5ffd5b610822826107ee565b9392505050565b5f5f5f5f6080858703121561083c575f5ffd5b8435935061084c602086016107ee565b93969395505050506040820135916060013590565b5f5f5f60608486031215610873575f5ffd5b61087c846107ee565b92506020840135915060408401358015158114610897575f5ffd5b809150509250925092565b5f602082840312156108b2575f5ffd5b5035919050565b5f610120820190508251825260018060a01b036020840151166020830152604083015160408301526060830151606083015260018060a01b03608084015116608083015260a083015160a083015260c083015161091a60c084018215159052565b5060e083015160e083015261010083015161010083015292915050565b60208082526026908201527f436f6d70757465526f757465723a2063616c6c6572206973206e6f7420746865604082015265081859d95b9d60d21b606082015260800190565b60208082526021908201527f436f6d70757465526f757465723a206a6f6220646f6573206e6f7420657869736040820152601d60fa1b606082015260800190565b5f600182016109db57634e487b7160e01b5f52601160045260245ffd5b506001019056fea2646970667358221220664ef8a9b31916e56ad35052b02f828fcb4db28aa7779925553e003eacdd1d6464736f6c634300081c0033",
  "linkReferences": {},
  "deployedLinkReferences": {},
  "immutableReferences": {},
  "inputSourceName": "project/contracts/ComputeRouter.sol",
  "buildInfoId": "solc-0_8_28-7138e64096f36469e72bf4be47ca35deb2cb9a46"
}