{
  "_format": "hh3-artifact-1",
  "contractName": "TestnetUSDC",
  "sourceName": "contracts/TestnetUSDC.sol",
  "abi": [
    {
      "anonymous": false,
      "inputs": [
        {
          "indexed": true,
          "internalType": "address",
          "name": "owner",
          "type": "address"
        },
        {
          "indexed": true,
          "internalType": "address",
          "name": "spender",
          "type": "address"
        },
        {
          "indexed": false,
          "internalType": "uint256",
          "name": "value",
          "type": "uint256"
        }
      ],
      "name": "Approval",
      "type": "event"
    },
    {
      "anonymous": false,
      "inputs": [
        {
          "indexed": true,
          "internalType": "address",
          "name": "from",
          "type": "address"
        },
        {
          "indexed": true,
          "internalType": "address",
          "name": "to",
          "type": "address"
        },
        {
          "indexed": false,
          "internalType": "uint256",
          "name": "value",
          "type": "uint256"
        }
      ],
      "name": "Transfer",
      "type": "event"
    },
    {
      "inputs": [],
      "name": "FAUCET_AMOUNT",
      "outputs": [
        {
          "internalType": "uint256",
          "name": "",
          "type": "uint256"
        }
      ],
      "stateMutability": "view",
      "type": "function"
    },
    {
      "inputs": [
        {
          "internalType": "address",
          "name": "",
          "type": "address"
        },
        {
          "internalType": "address",
          "name": "",
          "type": "address"
        }
      ],
      "name": "allowance",
      "outputs": [
        {
          "internalType": "uint256",
          "name": "",
          "type": "uint256"
        }
      ],
      "stateMutability": "view",
      "type": "function"
    },
    {
      "inputs": [
        {
          "internalType": "address",
          "name": "spender",
          "type": "address"
        },
        {
          "internalType": "uint256",
          "name": "amount",
          "type": "uint256"
        }
      ],
      "name": "approve",
      "outputs": [
        {
          "internalType": "bool",
          "name": "",
          "type": "bool"
        }
      ],
      "stateMutability": "nonpayable",
      "type": "function"
    },
    {
      "inputs": [
        {
          "internalType": "address",
          "name": "",
          "type": "address"
        }
      ],
      "name": "balanceOf",
      "outputs": [
        {
          "internalType": "uint256",
          "name": "",
          "type": "uint256"
        }
      ],
      "stateMutability": "view",
      "type": "function"
    },
    {
      "inputs": [],
      "name": "decimals",
      "outputs": [
        {
          "internalType": "uint8",
          "name": "",
          "type": "uint8"
        }
      ],
      "stateMutability": "view",
      "type": "function"
    },
    {
      "inputs": [
        {
          "internalType": "address",
          "name": "to",
          "type": "address"
        },
        {
          "internalType": "uint256",
          "name": "amount",
          "type": "uint256"
        }
      ],
      "name": "mint",
      "outputs": [],
      "stateMutability": "nonpayable",
      "type": "function"
    },
    {
      "inputs": [],
      "name": "name",
      "outputs": [
        {
          "internalType": "string",
          "name": "",
          "type": "string"
        }
      ],
      "stateMutability": "view",
      "type": "function"
    },
    {
      "inputs": [],
      "name": "symbol",
      "outputs": [
        {
          "internalType": "string",
          "name": "",
          "type": "string"
        }
      ],
      "stateMutability": "view",
      "type": "function"
    },
    {
      "inputs": [],
      "name": "totalSupply",
      "outputs": [
        {
          "internalType": "uint256",
          "name": "",
          "type": "uint256"
        }
      ],
      "stateMutability": "view",
      "type": "function"
    },
    {
      "inputs": [
        {
          "internalType": "address",
          "name": "recipient",
          "type": "address"
        },
        {
          "internalType": "uint256",
          "name": "amount",
          "type": "uint256"
        }
      ],
      "name": "transfer",
      "outputs": [
        {
          "internalType": "bool",
          "name": "",
          "type": "bool"
        }
      ],
      "stateMutability": "nonpayable",
      "type": "function"
    },
    {
      "inputs": [
        {
          "internalType": "address",
          "name": "sender",
          "type": "address"
        },
        {
          "internalType": "address",
          "name": "recipient",
          "type": "address"
        },
        {
          "internalType": "uint256",
          "name": "amount",
          "type": "uint256"
        }
      ],
      "name": "transferFrom",
      "outputs": [
        {
          "internalType": "bool",
          "name": "",
          "type": "bool"
        }
      ],
      "stateMutability": "nonpayable",
      "type": "function"
    }
  ],
  "bytecode": "0x6080604052348015600e575f5ffd5b506108448061001c5f395ff3fe608060405234801561000f575f5ffd5b50600436106100a6575f3560e01c806340c10f191161006e57806340c10f191461015157806370a0823114610166578063766976401461018557806395d89b4114610191578063a9059cbb146101b5578063dd62ed3e146101c8575f5ffd5b806306fdde03146100aa578063095ea7b3146100eb57806318160ddd1461010e57806323b872dd14610124578063313ce56714610137575b5f5ffd5b6100d56040518060400160405280600c81526020016b546573746e6574205553444360a01b81525081565b6040516100e291906106d8565b60405180910390f35b6100fe6100f9366004610728565b6101f2565b60405190151581526020016100e2565b6101165f5481565b6040519081526020016100e2565b6100fe610132366004610750565b6102be565b61013f600681565b60405160ff90911681526020016100e2565b61016461015f366004610728565b610389565b005b61011661017436600461078a565b60016020525f908152604090205481565b6101166402540be40081565b6100d560405180604001604052806005815260200164745553444360d81b81525081565b6100fe6101c3366004610728565b6104cd565b6101166101d63660046107a3565b600260209081525f928352604080842090915290825290205481565b5f6001600160a01b03831661025a5760405162461bcd60e51b8152602060048201526024808201527f546573746e6574555344433a20617070726f766520746f207a65726f206164646044820152637265737360e01b60648201526084015b60405180910390fd5b335f8181526002602090815260408083206001600160a01b03881680855290835292819020869055518581529192917f8c5be1e5ebec7d5bd14f71427d1e84f3dd0314c0f7b2291e5b200ac8c7c3b925910160405180910390a35060015b92915050565b6001600160a01b0383165f908152600260209081526040808320338452909152812054828110156103485760405162461bcd60e51b815260206004820152602e60248201527f546573746e6574555344433a207472616e7366657220616d6f756e742065786360448201526d6565647320616c6c6f77616e636560901b6064820152608401610251565b61035283826107e8565b6001600160a01b0386165f9081526002602090815260408083203384529091529020556103808585856104e0565b95945050505050565b6001600160a01b0382166103e95760405162461bcd60e51b815260206004820152602160248201527f546573746e6574555344433a206d696e7420746f207a65726f206164647265736044820152607360f81b6064820152608401610251565b6402540be4008111156104485760405162461bcd60e51b815260206004820152602160248201527f546573746e6574555344433a206578636565647320666175636574206c696d696044820152601d60fa1b6064820152608401610251565b805f5f82825461045891906107fb565b90915550506001600160a01b0382165f90815260016020526040812080548392906104849084906107fb565b90915550506040518181526001600160a01b038316905f907fddf252ad1be2c89b69c2b068fc378daa952ba7f163c4a11628f55a4df523b3ef9060200160405180910390a35050565b5f6104d93384846104e0565b9392505050565b5f6001600160a01b0384166105475760405162461bcd60e51b815260206004820152602760248201527f546573746e6574555344433a207472616e736665722066726f6d207a65726f206044820152666164647265737360c81b6064820152608401610251565b6001600160a01b0383166105ab5760405162461bcd60e51b815260206004820152602560248201527f546573746e6574555344433a207472616e7366657220746f207a65726f206164604482015264647265737360d81b6064820152608401610251565b6001600160a01b0384165f908152600160205260409020548211156106275760405162461bcd60e51b815260206004820152602c60248201527f546573746e6574555344433a207472616e7366657220616d6f756e742065786360448201526b656564732062616c616e636560a01b6064820152608401610251565b6001600160a01b0384165f908152600160205260408120805484929061064e9084906107e8565b90915550506001600160a01b0383165f908152600160205260408120805484929061067a9084906107fb565b92505081905550826001600160a01b0316846001600160a01b03167fddf252ad1be2c89b69c2b068fc378daa952ba7f163c4a11628f55a4df523b3ef846040516106c691815260200190565b60405180910390a35060019392505050565b602081525f82518060208401528060208501604085015e5f604082850101526040601f19601f83011684010191505092915050565b80356001600160a01b0381168114610723575f5ffd5b919050565b5f5f60408385031215610739575f5ffd5b6107428361070d565b946020939093013593505050565b5f5f5f60608486031215610762575f5ffd5b61076b8461070d565b92506107796020850161070d565b929592945050506040919091013590565b5f6020828403121561079a575f5ffd5b6104d98261070d565b5f5f604083850312156107b4575f5ffd5b6107bd8361070d565b91506107cb6020840161070d565b90509250929050565b634e487b7160e01b5f52601160045260245ffd5b818103818111156102b8576102b86107d4565b808201808211156102b8576102b86107d456fea2646970667358221220195884d6f57c2a9c4630b806225f68fa71974c8eaed06a2bd00d9bdd69b5bbcb64736f6c634300081c0033",
  "linkReferences": {},
  "deployedLinkReferences": {},
  "immutableReferences": {},
  "inputSourceName": "project/contracts/TestnetUSDC.sol",
  "buildInfoId": "solc-0_8_28-ed07210bc969f1f6b8b5ecadeae946400355623b"
}