{
  "_format": "hh3-artifact-1",
  "contractName": "TestnetUSDC",
  "sourceName": "contracts/TestnetUSDC.sol",
  "abi": [
    {
      "inputs": [],
      "stateMutability": "nonpayable",
      "type": "constructor"
    },
    {
      "inputs": [
        {
          "internalType": "address",
          "name": "spender",
          "type": "address"
        },
        {
          "internalType": "uint256",
          "name": "allowance",
          "type": "uint256"
        },
        {
          "internalType": "uint256",
          "name": "needed",
          "type": "uint256"
        }
      ],
      "name": "ERC20InsufficientAllowance",
      "type": "error"
    },
    {
      "inputs": [
        {
          "internalType": "address",
          "name": "sender",
          "type": "address"
        },
        {
          "internalType": "uint256",
          "name": "balance",
          "type": "uint256"
        },
        {
          "internalType": "uint256",
          "name": "needed",
          "type": "uint256"
        }
      ],
      "name": "ERC20InsufficientBalance",
      "type": "error"
    },
    {
      "inputs": [
        {
          "internalType": "address",
          "name": "approver",
          "type": "address"
        }
      ],
      "name": "ERC20InvalidApprover",
      "type": "error"
    },
    {
      "inputs": [
        {
          "internalType": "address",
          "name": "receiver",
          "type": "address"
        }
      ],
      "name": "ERC20InvalidReceiver",
      "type": "error"
    },
    {
      "inputs": [
        {
          "internalType": "address",
          "name": "sender",
          "type": "address"
        }
      ],
      "name": "ERC20InvalidSender",
      "type": "error"
    },
    {
      "inputs": [
        {
          "internalType": "address",
          "name": "spender",
          "type": "address"
        }
      ],
      "name": "ERC20InvalidSpender",
      "type": "error"
    },
    {
      "inputs": [
        {
          "internalType": "address",
          "name": "owner",
          "type": "address"
        }
      ],
      "name": "OwnableInvalidOwner",
      "type": "error"
    },
    {
      "inputs": [
        {
          "internalType": "address",
          "name": "account",
          "type": "address"
        }
      ],
      "name": "OwnableUnauthorizedAccount",
      "type": "error"
    },
    {
      "anonymous": false,
      "inputs": [
        {
          "indexed": true,
          "internalType": "address",
          "name": "owner",
          "type": "address"
        },
        {
          "indexed": true,
          "internalType": "address",
          "name": "spender",
          "type": "address"
        },
        {
          "indexed": false,
          "internalType": "uint256",
          "name": "value",
          "type": "uint256"
        }
      ],
      "name": "Approval",
      "type": "event"
    },
    {
      "anonymous": false,
      "inputs": [
        {
          "indexed": true,
          "internalType": "address",
          "name": "previousOwner",
          "type": "address"
        },
        {
          "indexed": true,
          "internalType": "address",
          "name": "newOwner",
          "type": "address"
        }
      ],
      "name": "OwnershipTransferred",
      "type": "event"
    },
    {
      "anonymous": false,
      "inputs": [
        {
          "indexed": true,
          "internalType": "address",
          "name": "from",
          "type": "address"
        },
        {
          "indexed": true,
          "internalType": "address",
          "name": "to",
          "type": "address"
        },
        {
          "indexed": false,
          "internalType": "uint256",
          "name": "value",
          "type": "uint256"
        }
      ],
      "name": "Transfer",
      "type": "event"
    },
    {
      "inputs": [],
      "name": "FAUCET_AMOUNT",
      "outputs": [
        {
          "internalType": "uint256",
          "name": "",
          "type": "uint256"
        }
      ],
      "stateMutability": "view",
      "type": "function"
    },
    {
      "inputs": [
        {
          "internalType": "address",
          "name": "owner",
          "type": "address"
        },
        {
          "internalType": "address",
          "name": "spender",
          "type": "address"
        }
      ],
      "name": "allowance",
      "outputs": [
        {
          "internalType": "uint256",
          "name": "",
          "type": "uint256"
        }
      ],
      "stateMutability": "view",
      "type": "function"
    },
    {
      "inputs": [
        {
          "internalType": "address",
          "name": "spender",
          "type": "address"
        },
        {
          "internalType": "uint256",
          "name": "value",
          "type": "uint256"
        }
      ],
      "name": "approve",
      "outputs": [
        {
          "internalType": "bool",
          "name": "",
          "type": "bool"
        }
      ],
      "stateMutability": "nonpayable",
      "type": "function"
    },
    {
      "inputs": [
        {
          "internalType": "address",
          "name": "account",
          "type": "address"
        }
      ],
      "name": "balanceOf",
      "outputs": [
        {
          "internalType": "uint256",
          "name": "",
          "type": "uint256"
        }
      ],
      "stateMutability": "view",
      "type": "function"
    },
    {
      "inputs": [
        {
          "internalType": "address[]",
          "name": "recipients",
          "type": "address[]"
        },
        {
          "internalType": "uint256[]",
          "name": "amounts",
          "type": "uint256[]"
        }
      ],
      "name": "batchMint",
      "outputs": [],
      "stateMutability": "nonpayable",
      "type": "function"
    },
    {
      "inputs": [],
      "name": "decimals",
      "outputs": [
        {
          "internalType": "uint8",
          "name": "",
          "type": "uint8"
        }
      ],
      "stateMutability": "pure",
      "type": "function"
    },
    {
      "inputs": [
        {
          "internalType": "address",
          "name": "to",
          "type": "address"
        },
        {
          "internalType": "uint256",
          "name": "amount",
          "type": "uint256"
        }
      ],
      "name": "mint",
      "outputs": [],
      "stateMutability": "nonpayable",
      "type": "function"
    },
    {
      "inputs": [],
      "name": "name",
      "outputs": [
        {
          "internalType": "string",
          "name": "",
          "type": "string"
        }
      ],
      "stateMutability": "view",
      "type": "function"
    },
    {
      "inputs": [],
      "name": "owner",
      "outputs": [
        {
          "internalType": "address",
          "name": "",
          "type": "address"
        }
      ],
      "stateMutability": "view",
      "type": "function"
    },
    {
      "inputs": [],
      "name": "renounceOwnership",
      "outputs": [],
      "stateMutability": "nonpayable",
      "type": "function"
    },
    {
      "inputs": [],
      "name": "symbol",
      "outputs": [
        {
          "internalType": "string",
          "name": "",
          "type": "string"
        }
      ],
      "stateMutability": "view",
      "type": "function"
    },
    {
      "inputs": [],
      "name": "totalSupply",
      "outputs": [
        {
          "internalType": "uint256",
          "name": "",
          "type": "uint256"
        }
      ],
      "stateMutability": "view",
      "type": "function"
    },
    {
      "inputs": [
        {
          "internalType": "address",
          "name": "to",
          "type": "address"
        },
        {
          "internalType": "uint256",
          "name": "value",
          "type": "uint256"
        }
      ],
      "name": "transfer",
      "outputs": [
        {
          "internalType": "bool",
          "name": "",
          "type": "bool"
        }
      ],
      "stateMutability": "nonpayable",
      "type": "function"
    },
    {
      "inputs": [
        {
          "internalType": "address",
          "name": "from",
          "type": "address"
        },
        {
          "internalType": "address",
          "name": "to",
          "type": "address"
        },
        {
          "internalType": "uint256",
          "name": "value",
          "type": "uint256"
        }
      ],
      "name": "transferFrom",
      "outputs": [
        {
          "internalType": "bool",
          "name": "",
          "type": "bool"
        }
      ],
      "stateMutability": "nonpayable",
      "type": "function"
    },
    {
      "inputs": [
        {
          "internalType": "address",
          "name": "newOwner",
          "type": "address"
        }
      ],
      "name": "transferOwnership",
      "outputs": [],
      "stateMutability": "nonpayable",
      "type": "function"
    }
  ],
  "bytecode": "0x608060405234801561000f575f5ffd5b50336040518060400160405280600c81526020016b546573746e6574205553444360a01b81525060405180604001604052806005815260200164745553444360d81b81525081600390816100639190610198565b5060046100708282610198565b5050506001600160a01b0381166100a057604051631e4fbdf760e01b81525f600482015260240160405180910390fd5b6100a9816100af565b50610252565b600580546001600160a01b038381166001600160a01b0319831681179093556040519116919082907f8be0079c531659141344cd1fd0a4f28419497f9722a3daafe3b4186f6b6457e0905f90a35050565b634e487b7160e01b5f52604160045260245ffd5b600181811c9082168061012857607f821691505b60208210810361014657634e487b7160e01b5f52602260045260245ffd5b50919050565b601f82111561019357805f5260205f20601f840160051c810160208510156101715750805b601f840160051c820191505b81811015610190575f815560010161017d565b50505b505050565b81516001600160401b038111156101b1576101b1610100565b6101c5816101bf8454610114565b8461014c565b6020601f8211600181146101f7575f83156101e05750848201515b5f19600385901b1c1916600184901b178455610190565b5f84815260208120601f198516915b828110156102265787850151825560209485019460019092019101610206565b508482101561024357868401515f19600387901b60f8161c191681555b50505050600190811b01905550565b610b618061025f5f395ff3fe608060405234801561000f575f5ffd5b50600436106100f0575f3560e01c806370a082311161009357806395d89b411161006357806395d89b41146101e8578063a9059cbb146101f0578063dd62ed3e14610203578063f2fde38b1461023b575f5ffd5b806370a0823114610191578063715018a6146101b957806376697640146101c15780638da5cb5b146101cd575f5ffd5b806323b872dd116100ce57806323b872dd14610147578063313ce5671461015a57806340c10f1914610169578063685731071461017e575f5ffd5b806306fdde03146100f4578063095ea7b31461011257806318160ddd14610135575b5f5ffd5b6100fc61024e565b60405161010991906108c8565b60405180910390f35b610125610120366004610918565b6102de565b6040519015158152602001610109565b6002545b604051908152602001610109565b610125610155366004610940565b6102f7565b60405160068152602001610109565b61017c610177366004610918565b61031a565b005b61017c61018c3660046109c2565b6103b6565b61013961019f366004610a2e565b6001600160a01b03165f9081526020819052604090205490565b61017c6104c7565b6101396402540be40081565b6005546040516001600160a01b039091168152602001610109565b6100fc6104da565b6101256101fe366004610918565b6104e9565b610139610211366004610a4e565b6001600160a01b039182165f90815260016020908152604080832093909416825291909152205490565b61017c610249366004610a2e565b6104f6565b60606003805461025d90610a7f565b80601f016020809104026020016040519081016040528092919081815260200182805461028990610a7f565b80156102d45780601f106102ab576101008083540402835291602001916102d4565b820191905f5260205f20905b8154815290600101906020018083116102b757829003601f168201915b5050505050905090565b5f336102eb818585610533565b60019150505b92915050565b5f33610304858285610545565b61030f8585856105c1565b506001949350505050565b6001600160a01b0382166103495760405162461bcd60e51b815260040161034090610ab7565b60405180910390fd5b6402540be4008111156103a85760405162461bcd60e51b815260206004820152602160248201527f546573746e6574555344433a206578636565647320666175636574206c696d696044820152601d60fa1b6064820152608401610340565b6103b2828261061e565b5050565b6103be610652565b8281146104185760405162461bcd60e51b815260206004820152602260248201527f546573746e6574555344433a206172726179206c656e677468206d69736d61746044820152610c6d60f31b6064820152608401610340565b5f5b838110156104c0575f85858381811061043557610435610af8565b905060200201602081019061044a9190610a2e565b6001600160a01b0316036104705760405162461bcd60e51b815260040161034090610ab7565b6104b885858381811061048557610485610af8565b905060200201602081019061049a9190610a2e565b8484848181106104ac576104ac610af8565b9050602002013561061e565b60010161041a565b5050505050565b6104cf610652565b6104d85f61067f565b565b60606004805461025d90610a7f565b5f336102eb8185856105c1565b6104fe610652565b6001600160a01b03811661052757604051631e4fbdf760e01b81525f6004820152602401610340565b6105308161067f565b50565b61054083838360016106d0565b505050565b6001600160a01b038381165f908152600160209081526040808320938616835292905220545f198110156105bb57818110156105ad57604051637dc7a0d960e11b81526001600160a01b03841660048201526024810182905260448101839052606401610340565b6105bb84848484035f6106d0565b50505050565b6001600160a01b0383166105ea57604051634b637e8f60e11b81525f6004820152602401610340565b6001600160a01b0382166106135760405163ec442f0560e01b81525f6004820152602401610340565b6105408383836107a2565b6001600160a01b0382166106475760405163ec442f0560e01b81525f6004820152602401610340565b6103b25f83836107a2565b6005546001600160a01b031633146104d85760405163118cdaa760e01b8152336004820152602401610340565b600580546001600160a01b038381166001600160a01b0319831681179093556040519116919082907f8be0079c531659141344cd1fd0a4f28419497f9722a3daafe3b4186f6b6457e0905f90a35050565b6001600160a01b0384166106f95760405163e602df0560e01b81525f6004820152602401610340565b6001600160a01b03831661072257604051634a1406b160e11b81525f6004820152602401610340565b6001600160a01b038085165f90815260016020908152604080832093871683529290522082905580156105bb57826001600160a01b0316846001600160a01b03167f8c5be1e5ebec7d5bd14f71427d1e84f3dd0314c0f7b2291e5b200ac8c7c3b9258460405161079491815260200190565b60405180910390a350505050565b6001600160a01b0383166107cc578060025f8282546107c19190610b0c565b9091555061083c9050565b6001600160a01b0383165f908152602081905260409020548181101561081e5760405163391434e360e21b81526001600160a01b03851660048201526024810182905260448101839052606401610340565b6001600160a01b0384165f9081526020819052604090209082900390555b6001600160a01b03821661085857600280548290039055610876565b6001600160a01b0382165f9081526020819052604090208054820190555b816001600160a01b0316836001600160a01b03167fddf252ad1be2c89b69c2b068fc378daa952ba7f163c4a11628f55a4df523b3ef836040516108bb91815260200190565b60405180910390a3505050565b602081525f82518060208401528060208501604085015e5f604082850101526040601f19601f83011684010191505092915050565b80356001600160a01b0381168114610913575f5ffd5b919050565b5f5f60408385031215610929575f5ffd5b610932836108fd565b946020939093013593505050565b5f5f5f60608486031215610952575f5ffd5b61095b846108fd565b9250610969602085016108fd565b929592945050506040919091013590565b5f5f83601f84011261098a575f5ffd5b50813567ffffffffffffffff8111156109a1575f5ffd5b6020830191508360208260051b85010111156109bb575f5ffd5b9250929050565b5f5f5f5f604085870312156109d5575f5ffd5b843567ffffffffffffffff8111156109eb575f5ffd5b6109f78782880161097a565b909550935050602085013567ffffffffffffffff811115610a16575f5ffd5b610a228782880161097a565b95989497509550505050565b5f60208284031215610a3e575f5ffd5b610a47826108fd565b9392505050565b5f5f60408385031215610a5f575f5ffd5b610a68836108fd565b9150610a76602084016108fd565b90509250929050565b600181811c90821680610a9357607f821691505b602082108103610ab157634e487b7160e01b5f52602260045260245ffd5b50919050565b60208082526021908201527f546573746e6574555344433a206d696e7420746f207a65726f206164647265736040820152607360f81b606082015260800190565b634e487b7160e01b5f52603260045260245ffd5b808201808211156102f157634e487b7160e01b5f52601160045260245ffdfea26469706673582212203c304827f861931a276e58335ffbc3810c2b3a5de532f93908570e05e120dc8964736f6c634300081c0033",
  "linkReferences": {},
  "deployedLinkReferences": {},
  "immutableReferences": {},
  "inputSourceName": "project/contracts/TestnetUSDC.sol",
  "buildInfoId": "solc-0_8_28-171c10fb9eb4b56a96f0ec8a5326fdae7ae3eff8"
}