{
  "_format": "hh3-artifact-1",
  "contractName": "USDCEscrow",
  "sourceName": "contracts/USDCEscrow.sol",
  "abi": [
    {
      "inputs": [
        {
          "internalType": "address",
          "name": "_usdcToken",
          "type": "address"
        },
        {
          "internalType": "address",
          "name": "_computeRouter",
          "type": "address"
        }
      ],
      "stateMutability": "nonpayable",
      "type": "constructor"
    },
    {
      "inputs": [
        {
          "internalType": "address",
          "name": "owner",
          "type": "address"
        }
      ],
      "name": "OwnableInvalidOwner",
      "type": "error"
    },
    {
      "inputs": [
        {
          "internalType": "address",
          "name": "account",
          "type": "address"
        }
      ],
      "name": "OwnableUnauthorizedAccount",
      "type": "error"
    },
    {
      "anonymous": false,
      "inputs": [
        {
          "indexed": true,
          "internalType": "uint256",
          "name": "jobId",
          "type": "uint256"
        },
        {
          "indexed": true,
          "internalType": "address",
          "name": "depositor",
          "type": "address"
        },
        {
          "indexed": false,
          "internalType": "uint256",
          "name": "amount",
          "type": "uint256"
        }
      ],
      "name": "Deposited",
      "type": "event"
    },
    {
      "anonymous": false,
      "inputs": [
        {
          "indexed": true,
          "internalType": "address",
          "name": "previousOwner",
          "type": "address"
        },
        {
          "indexed": true,
          "internalType": "address",
          "name": "newOwner",
          "type": "address"
        }
      ],
      "name": "OwnershipTransferred",
      "type": "event"
    },
    {
      "anonymous": false,
      "inputs": [
        {
          "indexed": true,
          "internalType": "uint256",
          "name": "jobId",
          "type": "uint256"
        },
        {
          "indexed": false,
          "internalType": "uint256",
          "name": "amount",
          "type": "uint256"
        }
      ],
      "name": "Refunded",
      "type": "event"
    },
    {
      "anonymous": false,
      "inputs": [
        {
          "indexed": true,
          "internalType": "uint256",
          "name": "jobId",
          "type": "uint256"
        },
        {
          "indexed": false,
          "internalType": "uint256",
          "name": "amount",
          "type": "uint256"
        }
      ],
      "name": "Released",
      "type": "event"
    },
    {
      "inputs": [],
      "name": "DEFAULT_DEPOSIT",
      "outputs": [
        {
          "internalType": "uint256",
          "name": "",
          "type": "uint256"
        }
      ],
      "stateMutability": "view",
      "type": "function"
    },
    {
      "inputs": [],
      "name": "computeRouter",
      "outputs": [
        {
          "internalType": "contract ComputeRouter",
          "name": "",
          "type": "address"
        }
      ],
      "stateMutability": "view",
      "type": "function"
    },
    {
      "inputs": [
        {
          "internalType": "uint256",
          "name": "jobId",
          "type": "uint256"
        },
        {
          "internalType": "uint256",
          "name": "amount",
          "type": "uint256"
        }
      ],
      "name": "deposit",
      "outputs": [],
      "stateMutability": "nonpayable",
      "type": "function"
    },
    {
      "inputs": [
        {
          "internalType": "uint256",
          "name": "",
          "type": "uint256"
        }
      ],
      "name": "escrows",
      "outputs": [
        {
          "internalType": "address",
          "name": "depositor",
          "type": "address"
        },
        {
          "internalType": "uint256",
          "name": "amount",
          "type": "uint256"
        },
        {
          "internalType": "enum USDCEscrow.EscrowStatus",
          "name": "status",
          "type": "uint8"
        },
        {
          "internalType": "uint256",
          "name": "createdAt",
          "type": "uint256"
        }
      ],
      "stateMutability": "view",
      "type": "function"
    },
    {
      "inputs": [
        {
          "internalType": "uint256",
          "name": "jobId",
          "type": "uint256"
        }
      ],
      "name": "getEscrow",
      "outputs": [
        {
          "components": [
            {
              "internalType": "address",
              "name": "depositor",
              "type": "address"
            },
            {
              "internalType": "uint256",
              "name": "amount",
              "type": "uint256"
            },
            {
              "internalType": "enum USDCEscrow.EscrowStatus",
              "name": "status",
              "type": "uint8"
            },
            {
              "internalType": "uint256",
              "name": "createdAt",
              "type": "uint256"
            }
          ],
          "internalType": "struct USDCEscrow.Escrow",
          "name": "",
          "type": "tuple"
        }
      ],
      "stateMutability": "view",
      "type": "function"
    },
    {
      "inputs": [],
      "name": "owner",
      "outputs": [
        {
          "internalType": "address",
          "name": "",
          "type": "address"
        }
      ],
      "stateMutability": "view",
      "type": "function"
    },
    {
      "inputs": [
        {
          "internalType": "contract IERC20",
          "name": "token",
          "type": "address"
        },
        {
          "internalType": "uint256",
          "name": "amount",
          "type": "uint256"
        }
      ],
      "name": "recoverTokens",
      "outputs": [],
      "stateMutability": "nonpayable",
      "type": "function"
    },
    {
      "inputs": [
        {
          "internalType": "uint256",
          "name": "jobId",
          "type": "uint256"
        }
      ],
      "name": "refund",
      "outputs": [],
      "stateMutability": "nonpayable",
      "type": "function"
    },
    {
      "inputs": [
        {
          "internalType": "uint256",
          "name": "jobId",
          "type": "uint256"
        }
      ],
      "name": "release",
      "outputs": [],
      "stateMutability": "nonpayable",
      "type": "function"
    },
    {
      "inputs": [],
      "name": "renounceOwnership",
      "outputs": [],
      "stateMutability": "nonpayable",
      "type": "function"
    },
    {
      "inputs": [
        {
          "internalType": "address",
          "name": "newOwner",
          "type": "address"
        }
      ],
      "name": "transferOwnership",
      "outputs": [],
      "stateMutability": "nonpayable",
      "type": "function"
    },
    {
      "inputs": [],
      "name": "usdcToken",
      "outputs": [
        {
          "internalType": "contract IERC20",
          "name": "",
          "type": "address"
        }
      ],
      "stateMutability": "view",
      "type": "function"
    }
  ],
  "bytecode": "0x608060405234801561000f575f5ffd5b5060405161110838038061110883398101604081905261002e916101c8565b338061005457604051631e4fbdf760e01b81525f60048201526024015b60405180910390fd5b61005d8161015e565b506001600160a01b0382166100c55760405162461bcd60e51b815260206004820152602860248201527f55534443457363726f773a20746f6b656e2063616e6e6f74206265207a65726f604482015267206164647265737360c01b606482015260840161004b565b6001600160a01b03811661012d5760405162461bcd60e51b815260206004820152602960248201527f55534443457363726f773a20726f757465722063616e6e6f74206265207a65726044820152686f206164647265737360b81b606482015260840161004b565b600180546001600160a01b039384166001600160a01b031991821617909155600280549290931691161790556101f9565b5f80546001600160a01b038381166001600160a01b0319831681178455604051919092169283917f8be0079c531659141344cd1fd0a4f28419497f9722a3daafe3b4186f6b6457e09190a35050565b80516001600160a01b03811681146101c3575f5ffd5b919050565b5f5f604083850312156101d9575f5ffd5b6101e2836101ad565b91506101f0602084016101ad565b90509250929050565b610f02806102065f395ff3fe608060405234801561000f575f5ffd5b50600436106100b1575f3560e01c80637d19e5961161006e5780637d19e5961461017f578063875f354f1461019f5780638da5cb5b146101b7578063d03bef52146101c7578063e2bbb158146101da578063f2fde38b146101ed575f5ffd5b8063012f52ee146100b5578063069c9fae1461011157806311eac85514610126578063278ecde11461015157806337bdc99b14610164578063715018a614610177575b5f5ffd5b6100f86100c3366004610c54565b600360208190525f918252604090912080546001820154600283015492909301546001600160a01b03909116929160ff169084565b6040516101089493929190610c9f565b60405180910390f35b61012461011f366004610ce6565b610200565b005b600154610139906001600160a01b031681565b6040516001600160a01b039091168152602001610108565b61012461015f366004610c54565b610358565b610124610172366004610c54565b610526565b6101246107c6565b61019261018d366004610c54565b6107d9565b6040516101089190610d10565b6101a9624c4b4081565b604051908152602001610108565b5f546001600160a01b0316610139565b600254610139906001600160a01b031681565b6101246101e8366004610d4d565b610870565b6101246101fb366004610d6d565b610b9c565b610208610bd9565b6001546001600160a01b039081169083160361026b5760405162461bcd60e51b815260206004820152601f60248201527f55534443457363726f773a2063616e6e6f74207265636f76657220555344430060448201526064015b60405180910390fd5b5f826001600160a01b031663a9059cbb61028c5f546001600160a01b031690565b6040516001600160e01b031960e084901b1681526001600160a01b039091166004820152602481018590526044016020604051808303815f875af11580156102d6573d5f5f3e3d5ffd5b505050506040513d601f19601f820116820180604052508101906102fa9190610da3565b9050806103535760405162461bcd60e51b815260206004820152602160248201527f55534443457363726f773a20746f6b656e207265636f76657279206661696c656044820152601960fa1b6064820152608401610262565b505050565b610360610bd9565b5f81815260036020526040902080546001600160a01b03166103945760405162461bcd60e51b815260040161026290610dbc565b5f60028083015460ff16908111156103ae576103ae610c6b565b146103fb5760405162461bcd60e51b815260206004820152601d60248201527f55534443457363726f773a20657363726f77206e6f74206163746976650000006044820152606401610262565b6002818101805460ff191690911790556001805482549183015460405163a9059cbb60e01b81526001600160a01b03938416600482015260248101919091525f929091169063a9059cbb906044016020604051808303815f875af1158015610465573d5f5f3e3d5ffd5b505050506040513d601f19601f820116820180604052508101906104899190610da3565b9050806104e35760405162461bcd60e51b815260206004820152602260248201527f55534443457363726f773a20726566756e64207472616e73666572206661696c604482015261195960f21b6064820152608401610262565b827fb7c1f9298a18c36af08bd57eabbfbeb04695f24d0438f67614741ec15fb5c4a9836001015460405161051991815260200190565b60405180910390a2505050565b61052e610bd9565b5f81815260036020526040902080546001600160a01b03166105625760405162461bcd60e51b815260040161026290610dbc565b5f60028083015460ff169081111561057c5761057c610c6b565b146105c95760405162461bcd60e51b815260206004820152601d60248201527f55534443457363726f773a20657363726f77206e6f74206163746976650000006044820152606401610262565b60025460405163bf22c45760e01b8152600481018490525f916001600160a01b03169063bf22c4579060240161012060405180830381865afa158015610611573d5f5f3e3d5ffd5b505050506040513d601f19601f820116820180604052508101906106359190610e3e565b90505f8161010001511161068b5760405162461bcd60e51b815260206004820152601e60248201527f55534443457363726f773a206a6f62206e6f742079657420726f7574656400006044820152606401610262565b60028201805460ff19166001908117909155545f805490916001600160a01b039081169163a9059cbb911660018601546040516001600160e01b031960e085901b1681526001600160a01b03909216600483015260248201526044016020604051808303815f875af1158015610703573d5f5f3e3d5ffd5b505050506040513d601f19601f820116820180604052508101906107279190610da3565b9050806107825760405162461bcd60e51b815260206004820152602360248201527f55534443457363726f773a2072656c65617365207472616e73666572206661696044820152621b195960ea1b6064820152608401610262565b837fd5840651550c173a8bf246eede440a59253bc61eadb2e8887168faad2fad631d84600101546040516107b891815260200190565b60405180910390a250505050565b6107ce610bd9565b6107d75f610c05565b565b60408051608080820183525f80835260208084018290528385018290526060840182905285825260038152908490208451928301855280546001600160a01b0316835260018101549183019190915260028082015493949293919284019160ff169081111561084a5761084a610c6b565b600281111561085b5761085b610c6b565b81526020016003820154815250509050919050565b5f81116108bf5760405162461bcd60e51b815260206004820152601e60248201527f55534443457363726f773a20616d6f756e74206d757374206265203e203000006044820152606401610262565b5f828152600360205260409020546001600160a01b0316156109375760405162461bcd60e51b815260206004820152602b60248201527f55534443457363726f773a20657363726f7720616c726561647920657869737460448201526a1cc8199bdc881a9bd8925960aa1b6064820152608401610262565b60025460405163bf22c45760e01b8152600481018490525f916001600160a01b03169063bf22c4579060240161012060405180830381865afa15801561097f573d5f5f3e3d5ffd5b505050506040513d601f19601f820116820180604052508101906109a39190610e3e565b90505f8160e0015111610a095760405162461bcd60e51b815260206004820152602860248201527f55534443457363726f773a206a6f6220646f6573206e6f74206578697374206960448201526737103937baba32b960c11b6064820152608401610262565b6001546040516323b872dd60e01b8152336004820152306024820152604481018490525f916001600160a01b0316906323b872dd906064016020604051808303815f875af1158015610a5d573d5f5f3e3d5ffd5b505050506040513d601f19601f82011682018060405250810190610a819190610da3565b905080610ad05760405162461bcd60e51b815260206004820181905260248201527f55534443457363726f773a2055534443207472616e73666572206661696c65646044820152606401610262565b60408051608081018252338152602081018590529081015f8152426020918201525f86815260038252604090819020835181546001600160a01b0319166001600160a01b039091161781559183015160018084019190915590830151600280840180549293909260ff1916918490811115610b4d57610b4d610c6b565b021790555060609190910151600390910155604051838152339085907f1599c0fcf897af5babc2bfcf707f5dc050f841b044d97c3251ecec35b9abf80b9060200160405180910390a350505050565b610ba4610bd9565b6001600160a01b038116610bcd57604051631e4fbdf760e01b81525f6004820152602401610262565b610bd681610c05565b50565b5f546001600160a01b031633146107d75760405163118cdaa760e01b8152336004820152602401610262565b5f80546001600160a01b038381166001600160a01b0319831681178455604051919092169283917f8be0079c531659141344cd1fd0a4f28419497f9722a3daafe3b4186f6b6457e09190a35050565b5f60208284031215610c64575f5ffd5b5035919050565b634e487b7160e01b5f52602160045260245ffd5b60038110610c9b57634e487b7160e01b5f52602160045260245ffd5b9052565b6001600160a01b03851681526020810184905260808101610cc36040830185610c7f565b82606083015295945050505050565b6001600160a01b0381168114610bd6575f5ffd5b5f5f60408385031215610cf7575f5ffd5b8235610d0281610cd2565b946020939093013593505050565b81516001600160a01b03168152602080830151908201526040808301516080830191610d3e90840182610c7f565b50606092830151919092015290565b5f5f60408385031215610d5e575f5ffd5b50508035926020909101359150565b5f60208284031215610d7d575f5ffd5b8135610d8881610cd2565b9392505050565b80518015158114610d9e575f5ffd5b919050565b5f60208284031215610db3575f5ffd5b610d8882610d8f565b60208082526021908201527f55534443457363726f773a20657363726f7720646f6573206e6f7420657869736040820152601d60fa1b606082015260800190565b604051610120810167ffffffffffffffff81118282101715610e2d57634e487b7160e01b5f52604160045260245ffd5b60405290565b8051610d9e81610cd2565b5f610120828403128015610e50575f5ffd5b50610e59610dfd565b82518152610e6960208401610e33565b60208201526040838101519082015260608084015190820152610e8e60808401610e33565b608082015260a08381015190820152610ea960c08401610d8f565b60c082015260e0838101519082015261010092830151928101929092525091905056fea2646970667358221220a7c0a2ce86ba5810e156cbd7a15e7e5b87c0db699821c715ff027e8d9643b7e464736f6c634300081c0033",
  "linkReferences": {},
  "deployedLinkReferences": {},
  "immutableReferences": {},
  "inputSourceName": "project/contracts/USDCEscrow.sol",
  "buildInfoId": "solc-0_8_28-3241a19dcb910663ecf5732f4c9941bfda43a079"
}