{
  "_format": "hh3-artifact-1",
  "contractName": "USDCEscrow",
  "sourceName": "contracts/USDCEscrow.sol",
  "abi": [
    {
      "inputs": [
        {
          "internalType": "address",
          "name": "_usdcToken",
          "type": "address"
        },
        {
          "internalType": "address",
          "name": "_computeRouter",
          "type": "address"
        }
      ],
      "stateMutability": "nonpayable",
      "type": "constructor"
    },
    {
      "anonymous": false,
      "inputs": [
        {
          "indexed": true,
          "internalType": "uint256",
          "name": "jobId",
          "type": "uint256"
        },
        {
          "indexed": true,
          "internalType": "address",
          "name": "depositor",
          "type": "address"
        },
        {
          "indexed": false,
          "internalType": "uint256",
          "name": "amount",
          "type": "uint256"
        }
      ],
      "name": "Deposited",
      "type": "event"
    },
    {
      "anonymous": false,
      "inputs": [
        {
          "indexed": true,
          "internalType": "uint256",
          "name": "jobId",
          "type": "uint256"
        },
        {
          "indexed": false,
          "internalType": "uint256",
          "name": "amount",
          "type": "uint256"
        }
      ],
      "name": "Refunded",
      "type": "event"
    },
    {
      "anonymous": false,
      "inputs": [
        {
          "indexed": true,
          "internalType": "uint256",
          "name": "jobId",
          "type": "uint256"
        },
        {
          "indexed": false,
          "internalType": "uint256",
          "name": "amount",
          "type": "uint256"
        }
      ],
      "name": "Released",
      "type": "event"
    },
    {
      "inputs": [],
      "name": "DEFAULT_DEPOSIT",
      "outputs": [
        {
          "internalType": "uint256",
          "name": "",
          "type": "uint256"
        }
      ],
      "stateMutability": "view",
      "type": "function"
    },
    {
      "inputs": [],
      "name": "computeRouter",
      "outputs": [
        {
          "internalType": "contract ComputeRouter",
          "name": "",
          "type": "address"
        }
      ],
      "stateMutability": "view",
      "type": "function"
    },
    {
      "inputs": [
        {
          "internalType": "uint256",
          "name": "jobId",
          "type": "uint256"
        },
        {
          "internalType": "uint256",
          "name": "amount",
          "type": "uint256"
        }
      ],
      "name": "deposit",
      "outputs": [],
      "stateMutability": "nonpayable",
      "type": "function"
    },
    {
      "inputs": [
        {
          "internalType": "uint256",
          "name": "",
          "type": "uint256"
        }
      ],
      "name": "escrows",
      "outputs": [
        {
          "internalType": "address",
          "name": "depositor",
          "type": "address"
        },
        {
          "internalType": "uint256",
          "name": "amount",
          "type": "uint256"
        },
        {
          "internalType": "enum USDCEscrow.EscrowStatus",
          "name": "status",
          "type": "uint8"
        },
        {
          "internalType": "uint256",
          "name": "createdAt",
          "type": "uint256"
        }
      ],
      "stateMutability": "view",
      "type": "function"
    },
    {
      "inputs": [
        {
          "internalType": "uint256",
          "name": "jobId",
          "type": "uint256"
        }
      ],
      "name": "getEscrow",
      "outputs": [
        {
          "components": [
            {
              "internalType": "address",
              "name": "depositor",
              "type": "address"
            },
            {
              "internalType": "uint256",
              "name": "amount",
              "type": "uint256"
            },
            {
              "internalType": "enum USDCEscrow.EscrowStatus",
              "name": "status",
              "type": "uint8"
            },
            {
              "internalType": "uint256",
              "name": "createdAt",
              "type": "uint256"
            }
          ],
          "internalType": "struct USDCEscrow.Escrow",
          "name": "",
          "type": "tuple"
        }
      ],
      "stateMutability": "view",
      "type": "function"
    },
    {
      "inputs": [],
      "name": "owner",
      "outputs": [
        {
          "internalType": "address",
          "name": "",
          "type": "address"
        }
      ],
      "stateMutability": "view",
      "type": "function"
    },
    {
      "inputs": [
        {
          "internalType": "uint256",
          "name": "jobId",
          "type": "uint256"
        }
      ],
      "name": "refund",
      "outputs": [],
      "stateMutability": "nonpayable",
      "type": "function"
    },
    {
      "inputs": [
        {
          "internalType": "uint256",
          "name": "jobId",
          "type": "uint256"
        }
      ],
      "name": "release",
      "outputs": [],
      "stateMutability": "nonpayable",
      "type": "function"
    },
    {
      "inputs": [],
      "name": "usdcToken",
      "outputs": [
        {
          "internalType": "contract TestnetUSDC",
          "name": "",
          "type": "address"
        }
      ],
      "stateMutability": "view",
      "type": "function"
    }
  ],
  "bytecode": "0x608060405234801561000f575f5ffd5b50604051610e61380380610e6183398101604081905261002e9161015d565b6001600160a01b03821661009a5760405162461bcd60e51b815260206004820152602860248201527f55534443457363726f773a20746f6b656e2063616e6e6f74206265207a65726f604482015267206164647265737360c01b60648201526084015b60405180910390fd5b6001600160a01b0381166101025760405162461bcd60e51b815260206004820152602960248201527f55534443457363726f773a20726f757465722063616e6e6f74206265207a65726044820152686f206164647265737360b81b6064820152608401610091565b5f80546001600160a01b039384166001600160a01b031991821617909155600180549290931691811691909117909155600280549091163317905561018e565b80516001600160a01b0381168114610158575f5ffd5b919050565b5f5f6040838503121561016e575f5ffd5b61017783610142565b915061018560208401610142565b90509250929050565b610cc68061019b5f395ff3fe608060405234801561000f575f5ffd5b5060043610610090575f3560e01c80637d19e596116100635780637d19e59614610142578063875f354f146101625780638da5cb5b1461017a578063d03bef521461018d578063e2bbb158146101a0575f5ffd5b8063012f52ee1461009457806311eac855146100f0578063278ecde11461011a57806337bdc99b1461012f575b5f5ffd5b6100d76100a2366004610a23565b600360208190525f918252604090912080546001820154600283015492909301546001600160a01b03909116929160ff169084565b6040516100e79493929190610a6e565b60405180910390f35b5f54610102906001600160a01b031681565b6040516001600160a01b0390911681526020016100e7565b61012d610128366004610a23565b6101b3565b005b61012d61013d366004610a23565b6103a9565b610155610150366004610a23565b610660565b6040516100e79190610aa1565b61016c624c4b4081565b6040519081526020016100e7565b600254610102906001600160a01b031681565b600154610102906001600160a01b031681565b61012d6101ae366004610ade565b6106f7565b6002546001600160a01b031633146101e65760405162461bcd60e51b81526004016101dd90610afe565b60405180910390fd5b5f81815260036020526040902080546001600160a01b031661021a5760405162461bcd60e51b81526004016101dd90610b41565b5f60028083015460ff169081111561023457610234610a3a565b146102815760405162461bcd60e51b815260206004820152601d60248201527f55534443457363726f773a20657363726f77206e6f742061637469766500000060448201526064016101dd565b6002818101805460ff191690911790555f80548254600184015460405163a9059cbb60e01b81526001600160a01b039283166004820152602481019190915291169063a9059cbb906044016020604051808303815f875af11580156102e8573d5f5f3e3d5ffd5b505050506040513d601f19601f8201168201806040525081019061030c9190610b96565b9050806103665760405162461bcd60e51b815260206004820152602260248201527f55534443457363726f773a20726566756e64207472616e73666572206661696c604482015261195960f21b60648201526084016101dd565b827fb7c1f9298a18c36af08bd57eabbfbeb04695f24d0438f67614741ec15fb5c4a9836001015460405161039c91815260200190565b60405180910390a2505050565b6002546001600160a01b031633146103d35760405162461bcd60e51b81526004016101dd90610afe565b5f81815260036020526040902080546001600160a01b03166104075760405162461bcd60e51b81526004016101dd90610b41565b5f60028083015460ff169081111561042157610421610a3a565b1461046e5760405162461bcd60e51b815260206004820152601d60248201527f55534443457363726f773a20657363726f77206e6f742061637469766500000060448201526064016101dd565b60015460405163bf22c45760e01b8152600481018490525f916001600160a01b03169063bf22c4579060240161012060405180830381865afa1580156104b6573d5f5f3e3d5ffd5b505050506040513d601f19601f820116820180604052508101906104da9190610c02565b90505f816101000151116105305760405162461bcd60e51b815260206004820152601e60248201527f55534443457363726f773a206a6f62206e6f742079657420726f75746564000060448201526064016101dd565b6002820180546001919060ff1916828002179055505f8054600254600185015460405163a9059cbb60e01b81526001600160a01b039283166004820152602481019190915291169063a9059cbb906044016020604051808303815f875af115801561059d573d5f5f3e3d5ffd5b505050506040513d601f19601f820116820180604052508101906105c19190610b96565b90508061061c5760405162461bcd60e51b815260206004820152602360248201527f55534443457363726f773a2072656c65617365207472616e73666572206661696044820152621b195960ea1b60648201526084016101dd565b837fd5840651550c173a8bf246eede440a59253bc61eadb2e8887168faad2fad631d846001015460405161065291815260200190565b60405180910390a250505050565b60408051608080820183525f80835260208084018290528385018290526060840182905285825260038152908490208451928301855280546001600160a01b0316835260018101549183019190915260028082015493949293919284019160ff16908111156106d1576106d1610a3a565b60028111156106e2576106e2610a3a565b81526020016003820154815250509050919050565b5f81116107465760405162461bcd60e51b815260206004820152601e60248201527f55534443457363726f773a20616d6f756e74206d757374206265203e2030000060448201526064016101dd565b5f828152600360205260409020546001600160a01b0316156107be5760405162461bcd60e51b815260206004820152602b60248201527f55534443457363726f773a20657363726f7720616c726561647920657869737460448201526a1cc8199bdc881a9bd8925960aa1b60648201526084016101dd565b60015460405163bf22c45760e01b8152600481018490525f916001600160a01b03169063bf22c4579060240161012060405180830381865afa158015610806573d5f5f3e3d5ffd5b505050506040513d601f19601f8201168201806040525081019061082a9190610c02565b90505f8160e00151116108905760405162461bcd60e51b815260206004820152602860248201527f55534443457363726f773a206a6f6220646f6573206e6f74206578697374206960448201526737103937baba32b960c11b60648201526084016101dd565b5f80546040516323b872dd60e01b8152336004820152306024820152604481018590526001600160a01b03909116906323b872dd906064016020604051808303815f875af11580156108e4573d5f5f3e3d5ffd5b505050506040513d601f19601f820116820180604052508101906109089190610b96565b9050806109575760405162461bcd60e51b815260206004820181905260248201527f55534443457363726f773a2055534443207472616e73666572206661696c656460448201526064016101dd565b60408051608081018252338152602081018590529081015f8152426020918201525f86815260038252604090819020835181546001600160a01b0319166001600160a01b039091161781559183015160018084019190915590830151600280840180549293909260ff19169184908111156109d4576109d4610a3a565b021790555060609190910151600390910155604051838152339085907f1599c0fcf897af5babc2bfcf707f5dc050f841b044d97c3251ecec35b9abf80b9060200160405180910390a350505050565b5f60208284031215610a33575f5ffd5b5035919050565b634e487b7160e01b5f52602160045260245ffd5b60038110610a6a57634e487b7160e01b5f52602160045260245ffd5b9052565b6001600160a01b03851681526020810184905260808101610a926040830185610a4e565b82606083015295945050505050565b81516001600160a01b03168152602080830151908201526040808301516080830191610acf90840182610a4e565b50606092830151919092015290565b5f5f60408385031215610aef575f5ffd5b50508035926020909101359150565b60208082526023908201527f55534443457363726f773a2063616c6c6572206973206e6f7420746865206f776040820152623732b960e91b606082015260800190565b60208082526021908201527f55534443457363726f773a20657363726f7720646f6573206e6f7420657869736040820152601d60fa1b606082015260800190565b80518015158114610b91575f5ffd5b919050565b5f60208284031215610ba6575f5ffd5b610baf82610b82565b9392505050565b604051610120810167ffffffffffffffff81118282101715610be657634e487b7160e01b5f52604160045260245ffd5b60405290565b80516001600160a01b0381168114610b91575f5ffd5b5f610120828403128015610c14575f5ffd5b50610c1d610bb6565b82518152610c2d60208401610bec565b60208201526040838101519082015260608084015190820152610c5260808401610bec565b608082015260a08381015190820152610c6d60c08401610b82565b60c082015260e0838101519082015261010092830151928101929092525091905056fea264697066735822122076003f0a1b7b10877ac433527c2c4e52bd65ebf920233105afd0cc782e242b5064736f6c634300081c0033",
  "linkReferences": {},
  "deployedLinkReferences": {},
  "immutableReferences": {},
  "inputSourceName": "project/contracts/USDCEscrow.sol",
  "buildInfoId": "solc-0_8_28-46b690a3a5d018733d6944b42edd36bd29d704da"
}